{
  "contractName": "CivilState",
  "abi": [
    {
      "inputs": [],
      "payable": false,
      "stateMutability": "nonpayable",
      "type": "constructor"
    },
    {
      "constant": true,
      "inputs": [],
      "name": "_donneesEtabTemp",
      "outputs": [
        {
          "internalType": "string",
          "name": "nom",
          "type": "string"
        },
        {
          "internalType": "string",
          "name": "adresse",
          "type": "string"
        },
        {
          "internalType": "string",
          "name": "codePostale",
          "type": "string"
        },
        {
          "internalType": "string",
          "name": "ville",
          "type": "string"
        }
      ],
      "payable": false,
      "stateMutability": "view",
      "type": "function"
    },
    {
      "constant": true,
      "inputs": [],
      "name": "_donneesIdentTemp",
      "outputs": [
        {
          "internalType": "string",
          "name": "civilite",
          "type": "string"
        },
        {
          "internalType": "string",
          "name": "nom",
          "type": "string"
        },
        {
          "internalType": "string",
          "name": "prenom",
          "type": "string"
        },
        {
          "internalType": "string",
          "name": "dateNaissance",
          "type": "string"
        },
        {
          "internalType": "string",
          "name": "role",
          "type": "string"
        }
      ],
      "payable": false,
      "stateMutability": "view",
      "type": "function"
    },
    {
      "constant": true,
      "inputs": [],
      "name": "owner",
      "outputs": [
        {
          "internalType": "address payable",
          "name": "",
          "type": "address"
        }
      ],
      "payable": false,
      "stateMutability": "view",
      "type": "function"
    },
    {
      "constant": true,
      "inputs": [
        {
          "internalType": "string",
          "name": "_login",
          "type": "string"
        }
      ],
      "name": "getTypeUtilisateur",
      "outputs": [
        {
          "internalType": "string",
          "name": "_typ",
          "type": "string"
        }
      ],
      "payable": false,
      "stateMutability": "view",
      "type": "function"
    },
    {
      "constant": true,
      "inputs": [],
      "name": "getUtilisateursHopitalCount",
      "outputs": [
        {
          "internalType": "uint256",
          "name": "",
          "type": "uint256"
        }
      ],
      "payable": false,
      "stateMutability": "view",
      "type": "function"
    },
    {
      "constant": false,
      "inputs": [
        {
          "internalType": "string",
          "name": "_login",
          "type": "string"
        }
      ],
      "name": "getInfoIdentMembreHopital",
      "outputs": [
        {
          "internalType": "string",
          "name": "_civilite",
          "type": "string"
        },
        {
          "internalType": "string",
          "name": "_nom",
          "type": "string"
        },
        {
          "internalType": "string",
          "name": "_prenom",
          "type": "string"
        },
        {
          "internalType": "string",
          "name": "_dateNaissance",
          "type": "string"
        },
        {
          "internalType": "string",
          "name": "_role",
          "type": "string"
        }
      ],
      "payable": false,
      "stateMutability": "nonpayable",
      "type": "function"
    },
    {
      "constant": false,
      "inputs": [
        {
          "internalType": "string",
          "name": "_login",
          "type": "string"
        }
      ],
      "name": "getInfoEtabMembreHopital",
      "outputs": [
        {
          "internalType": "string",
          "name": "_nomEtab",
          "type": "string"
        },
        {
          "internalType": "string",
          "name": "_adresseEtab",
          "type": "string"
        },
        {
          "internalType": "string",
          "name": "_codePostaleEtab",
          "type": "string"
        },
        {
          "internalType": "string",
          "name": "_villeEtab",
          "type": "string"
        }
      ],
      "payable": false,
      "stateMutability": "nonpayable",
      "type": "function"
    },
    {
      "constant": false,
      "inputs": [
        {
          "internalType": "string",
          "name": "_civilite",
          "type": "string"
        },
        {
          "internalType": "string",
          "name": "_nom",
          "type": "string"
        },
        {
          "internalType": "string",
          "name": "_prenom",
          "type": "string"
        },
        {
          "internalType": "string",
          "name": "_dateNaissance",
          "type": "string"
        },
        {
          "internalType": "string",
          "name": "_role",
          "type": "string"
        },
        {
          "internalType": "string",
          "name": "_nomEtab",
          "type": "string"
        },
        {
          "internalType": "string",
          "name": "_adresseEtab",
          "type": "string"
        },
        {
          "internalType": "string",
          "name": "_codePostaleEtab",
          "type": "string"
        },
        {
          "internalType": "string",
          "name": "_villeEtab",
          "type": "string"
        }
      ],
      "name": "addMembreHopital",
      "outputs": [],
      "payable": false,
      "stateMutability": "nonpayable",
      "type": "function"
    }
  ],
  "bytecode": "0x6080604052600060015560006002556000600355600060045534801561002457600080fd5b50336000806101000a81548173ffffffffffffffffffffffffffffffffffffffff021916908373ffffffffffffffffffffffffffffffffffffffff1602179055506128c6806100746000396000f3fe608060405234801561001057600080fd5b50600436106100885760003560e01c80638da5cb5b1161005b5780638da5cb5b14610c73578063905e385214610cbd578063d31a739a14610fa1578063db9552f414610fbf57610088565b806307569f2f1461008d578063229c8efa1461030557806383ebabaa146105385780638be8087e146106ff575b600080fd5b610146600480360360208110156100a357600080fd5b81019080803590602001906401000000008111156100c057600080fd5b8201836020820111156100d257600080fd5b803590602001918460018302840111640100000000831117156100f457600080fd5b91908080601f016020809104026020016040519081016040528093929190818152602001838380828437600081840152601f19601f8201169050808301925050505050505091929192905050506110f3565b6040518080602001806020018060200180602001858103855289818151815260200191508051906020019080838360005b83811015610192578082015181840152602081019050610177565b50505050905090810190601f1680156101bf5780820380516001836020036101000a031916815260200191505b50858103845288818151815260200191508051906020019080838360005b838110156101f85780820151818401526020810190506101dd565b50505050905090810190601f1680156102255780820380516001836020036101000a031916815260200191505b50858103835287818151815260200191508051906020019080838360005b8381101561025e578082015181840152602081019050610243565b50505050905090810190601f16801561028b5780820380516001836020036101000a031916815260200191505b50858103825286818151815260200191508051906020019080838360005b838110156102c45780820151818401526020810190506102a9565b50505050905090810190601f1680156102f15780820380516001836020036101000a031916815260200191505b509850505050505050505060405180910390f35b61030d611491565b60405180806020018060200180602001806020018060200186810386528b818151815260200191508051906020019080838360005b8381101561035d578082015181840152602081019050610342565b50505050905090810190601f16801561038a5780820380516001836020036101000a031916815260200191505b5086810385528a818151815260200191508051906020019080838360005b838110156103c35780820151818401526020810190506103a8565b50505050905090810190601f1680156103f05780820380516001836020036101000a031916815260200191505b50868103845289818151815260200191508051906020019080838360005b8381101561042957808201518184015260208101905061040e565b50505050905090810190601f1680156104565780820380516001836020036101000a031916815260200191505b50868103835288818151815260200191508051906020019080838360005b8381101561048f578082015181840152602081019050610474565b50505050905090810190601f1680156104bc5780820380516001836020036101000a031916815260200191505b50868103825287818151815260200191508051906020019080838360005b838110156104f55780820151818401526020810190506104da565b50505050905090810190601f1680156105225780820380516001836020036101000a031916815260200191505b509a505050505050505050505060405180910390f35b6105406117ad565b6040518080602001806020018060200180602001858103855289818151815260200191508051906020019080838360005b8381101561058c578082015181840152602081019050610571565b50505050905090810190601f1680156105b95780820380516001836020036101000a031916815260200191505b50858103845288818151815260200191508051906020019080838360005b838110156105f25780820151818401526020810190506105d7565b50505050905090810190601f16801561061f5780820380516001836020036101000a031916815260200191505b50858103835287818151815260200191508051906020019080838360005b8381101561065857808201518184015260208101905061063d565b50505050905090810190601f1680156106855780820380516001836020036101000a031916815260200191505b50858103825286818151815260200191508051906020019080838360005b838110156106be5780820151818401526020810190506106a3565b50505050905090810190601f1680156106eb5780820380516001836020036101000a031916815260200191505b509850505050505050505060405180910390f35b610c71600480360361012081101561071657600080fd5b810190808035906020019064010000000081111561073357600080fd5b82018360208201111561074557600080fd5b8035906020019184600183028401116401000000008311171561076757600080fd5b91908080601f016020809104026020016040519081016040528093929190818152602001838380828437600081840152601f19601f820116905080830192505050505050509192919290803590602001906401000000008111156107ca57600080fd5b8201836020820111156107dc57600080fd5b803590602001918460018302840111640100000000831117156107fe57600080fd5b91908080601f016020809104026020016040519081016040528093929190818152602001838380828437600081840152601f19601f8201169050808301925050505050505091929192908035906020019064010000000081111561086157600080fd5b82018360208201111561087357600080fd5b8035906020019184600183028401116401000000008311171561089557600080fd5b91908080601f016020809104026020016040519081016040528093929190818152602001838380828437600081840152601f19601f820116905080830192505050505050509192919290803590602001906401000000008111156108f857600080fd5b82018360208201111561090a57600080fd5b8035906020019184600183028401116401000000008311171561092c57600080fd5b91908080601f016020809104026020016040519081016040528093929190818152602001838380828437600081840152601f19601f8201169050808301925050505050505091929192908035906020019064010000000081111561098f57600080fd5b8201836020820111156109a157600080fd5b803590602001918460018302840111640100000000831117156109c357600080fd5b91908080601f016020809104026020016040519081016040528093929190818152602001838380828437600081840152601f19601f82011690508083019250505050505050919291929080359060200190640100000000811115610a2657600080fd5b820183602082011115610a3857600080fd5b80359060200191846001830284011164010000000083111715610a5a57600080fd5b91908080601f016020809104026020016040519081016040528093929190818152602001838380828437600081840152601f19601f82011690508083019250505050505050919291929080359060200190640100000000811115610abd57600080fd5b820183602082011115610acf57600080fd5b80359060200191846001830284011164010000000083111715610af157600080fd5b91908080601f016020809104026020016040519081016040528093929190818152602001838380828437600081840152601f19601f82011690508083019250505050505050919291929080359060200190640100000000811115610b5457600080fd5b820183602082011115610b6657600080fd5b80359060200191846001830284011164010000000083111715610b8857600080fd5b91908080601f016020809104026020016040519081016040528093929190818152602001838380828437600081840152601f19601f82011690508083019250505050505050919291929080359060200190640100000000811115610beb57600080fd5b820183602082011115610bfd57600080fd5b80359060200191846001830284011164010000000083111715610c1f57600080fd5b91908080601f016020809104026020016040519081016040528093929190818152602001838380828437600081840152601f19601f820116905080830192505050505050509192919290505050611a2b565b005b610c7b61214d565b604051808273ffffffffffffffffffffffffffffffffffffffff1673ffffffffffffffffffffffffffffffffffffffff16815260200191505060405180910390f35b610d7660048036036020811015610cd357600080fd5b8101908080359060200190640100000000811115610cf057600080fd5b820183602082011115610d0257600080fd5b80359060200191846001830284011164010000000083111715610d2457600080fd5b91908080601f016020809104026020016040519081016040528093929190818152602001838380828437600081840152601f19601f820116905080830192505050505050509192919290505050612172565b60405180806020018060200180602001806020018060200186810386528b818151815260200191508051906020019080838360005b83811015610dc6578082015181840152602081019050610dab565b50505050905090810190601f168015610df35780820380516001836020036101000a031916815260200191505b5086810385528a818151815260200191508051906020019080838360005b83811015610e2c578082015181840152602081019050610e11565b50505050905090810190601f168015610e595780820380516001836020036101000a031916815260200191505b50868103845289818151815260200191508051906020019080838360005b83811015610e92578082015181840152602081019050610e77565b50505050905090810190601f168015610ebf5780820380516001836020036101000a031916815260200191505b50868103835288818151815260200191508051906020019080838360005b83811015610ef8578082015181840152602081019050610edd565b50505050905090810190601f168015610f255780820380516001836020036101000a031916815260200191505b50868103825287818151815260200191508051906020019080838360005b83811015610f5e578082015181840152602081019050610f43565b50505050905090810190601f168015610f8b5780820380516001836020036101000a031916815260200191505b509a505050505050505050505060405180910390f35b610fa96125dc565b6040518082815260200191505060405180910390f35b61107860048036036020811015610fd557600080fd5b8101908080359060200190640100000000811115610ff257600080fd5b82018360208201111561100457600080fd5b8035906020019184600183028401116401000000008311171561102657600080fd5b91908080601f016020809104026020016040519081016040528093929190818152602001838380828437600081840152601f19601f8201169050808301925050505050505091929192905050506125e6565b6040518080602001828103825283818151815260200191508051906020019080838360005b838110156110b857808201518184015260208101905061109d565b50505050905090810190601f1680156110e55780820380516001836020036101000a031916815260200191505b509250505060405180910390f35b606080606080600f856040518082805190602001908083835b6020831061112f578051825260208201915060208101905060208303925061110c565b6001836020036101000a0380198251168184511680821785525050505050509050019150509081526020016040518091039020600801600a6000820181600001908054600181600116156101000203166002900461118e9291906126f4565b50600182018160010190805460018160011615610100020316600290046111b69291906126f4565b50600282018160020190805460018160011615610100020316600290046111de9291906126f4565b50600382018160030190805460018160011615610100020316600290046112069291906126f4565b50905050600a6000018054600181600116156101000203166002900480601f0160208091040260200160405190810160405280929190818152602001828054600181600116156101000203166002900480156112a35780601f10611278576101008083540402835291602001916112a3565b820191906000526020600020905b81548152906001019060200180831161128657829003601f168201915b50505050509350600a6001018054600181600116156101000203166002900480601f0160208091040260200160405190810160405280929190818152602001828054600181600116156101000203166002900480156113435780601f1061131857610100808354040283529160200191611343565b820191906000526020600020905b81548152906001019060200180831161132657829003601f168201915b50505050509250600a6002018054600181600116156101000203166002900480601f0160208091040260200160405190810160405280929190818152602001828054600181600116156101000203166002900480156113e35780601f106113b8576101008083540402835291602001916113e3565b820191906000526020600020905b8154815290600101906020018083116113c657829003601f168201915b50505050509150600a6003018054600181600116156101000203166002900480601f0160208091040260200160405190810160405280929190818152602001828054600181600116156101000203166002900480156114835780601f1061145857610100808354040283529160200191611483565b820191906000526020600020905b81548152906001019060200180831161146657829003601f168201915b505050505090509193509193565b6005806000018054600181600116156101000203166002900480601f01602080910402602001604051908101604052809291908181526020018280546001816001161561010002031660029004801561152b5780601f106115005761010080835404028352916020019161152b565b820191906000526020600020905b81548152906001019060200180831161150e57829003601f168201915b505050505090806001018054600181600116156101000203166002900480601f0160208091040260200160405190810160405280929190818152602001828054600181600116156101000203166002900480156115c95780601f1061159e576101008083540402835291602001916115c9565b820191906000526020600020905b8154815290600101906020018083116115ac57829003601f168201915b505050505090806002018054600181600116156101000203166002900480601f0160208091040260200160405190810160405280929190818152602001828054600181600116156101000203166002900480156116675780601f1061163c57610100808354040283529160200191611667565b820191906000526020600020905b81548152906001019060200180831161164a57829003601f168201915b505050505090806003018054600181600116156101000203166002900480601f0160208091040260200160405190810160405280929190818152602001828054600181600116156101000203166002900480156117055780601f106116da57610100808354040283529160200191611705565b820191906000526020600020905b8154815290600101906020018083116116e857829003601f168201915b505050505090806004018054600181600116156101000203166002900480601f0160208091040260200160405190810160405280929190818152602001828054600181600116156101000203166002900480156117a35780601f10611778576101008083540402835291602001916117a3565b820191906000526020600020905b81548152906001019060200180831161178657829003601f168201915b5050505050905085565b600a806000018054600181600116156101000203166002900480601f0160208091040260200160405190810160405280929190818152602001828054600181600116156101000203166002900480156118475780601f1061181c57610100808354040283529160200191611847565b820191906000526020600020905b81548152906001019060200180831161182a57829003601f168201915b505050505090806001018054600181600116156101000203166002900480601f0160208091040260200160405190810160405280929190818152602001828054600181600116156101000203166002900480156118e55780601f106118ba576101008083540402835291602001916118e5565b820191906000526020600020905b8154815290600101906020018083116118c857829003601f168201915b505050505090806002018054600181600116156101000203166002900480601f0160208091040260200160405190810160405280929190818152602001828054600181600116156101000203166002900480156119835780601f1061195857610100808354040283529160200191611983565b820191906000526020600020905b81548152906001019060200180831161196657829003601f168201915b505050505090806003018054600181600116156101000203166002900480601f016020809104026020016040519081016040528092919081815260200182805460018160011615610100020316600290048015611a215780601f106119f657610100808354040283529160200191611a21565b820191906000526020600020905b815481529060010190602001808311611a0457829003601f168201915b5050505050905084565b611a3361277b565b611a3b6127aa565b60608a90508073__LibConcatenateStrings_________________63266001d390918c6040518363ffffffff1660e01b8152600401808060200180602001838103835285818151815260200191508051906020019080838360005b83811015611ab1578082015181840152602081019050611a96565b50505050905090810190601f168015611ade5780820380516001836020036101000a031916815260200191505b50838103825284818151815260200191508051906020019080838360005b83811015611b17578082015181840152602081019050611afc565b50505050905090810190601f168015611b445780820380516001836020036101000a031916815260200191505b5094505050505060006040518083038186803b158015611b6357600080fd5b505af4158015611b77573d6000803e3d6000fd5b505050506040513d6000823e3d601f19601f820116820180604052506020811015611ba157600080fd5b8101908080516040519392919084640100000000821115611bc157600080fd5b83820191506020820185811115611bd757600080fd5b8251866001820283011164010000000082111715611bf457600080fd5b8083526020830192505050908051906020019080838360005b83811015611c28578082015181840152602081019050611c0d565b50505050905090810190601f168015611c555780820380516001836020036101000a031916815260200191505b5060405250505090508073__LibConcatenateStrings_________________63266001d390918b6040518363ffffffff1660e01b8152600401808060200180602001838103835285818151815260200191508051906020019080838360005b83811015611ccf578082015181840152602081019050611cb4565b50505050905090810190601f168015611cfc5780820380516001836020036101000a031916815260200191505b50838103825284818151815260200191508051906020019080838360005b83811015611d35578082015181840152602081019050611d1a565b50505050905090810190601f168015611d625780820380516001836020036101000a031916815260200191505b5094505050505060006040518083038186803b158015611d8157600080fd5b505af4158015611d95573d6000803e3d6000fd5b505050506040513d6000823e3d601f19601f820116820180604052506020811015611dbf57600080fd5b8101908080516040519392919084640100000000821115611ddf57600080fd5b83820191506020820185811115611df557600080fd5b8251866001820283011164010000000082111715611e1257600080fd5b8083526020830192505050908051906020019080838360005b83811015611e46578082015181840152602081019050611e2b565b50505050905090810190601f168015611e735780820380516001836020036101000a031916815260200191505b5060405250505090506060819050611e896127d2565b6040518060a001604052808f81526020018e81526020018d81526020018c81526020018b815250945060405180608001604052808a815260200189815260200188815260200187815250935060405180604001604052808381526020016040518060400160405280600781526020017f686f706974616c000000000000000000000000000000000000000000000000008152508152509050604051806080016040528084815260200182815260200186815260200185815250600f846040518082805190602001908083835b60208310611f785780518252602082019150602081019050602083039250611f55565b6001836020036101000a03801982511681845116808217855250505050505090500191505090815260200160405180910390206000820151816000019080519060200190611fc79291906127ec565b506020820151816001016000820151816000019080519060200190611fed9291906127ec565b50602082015181600101908051906020019061200a9291906127ec565b50505060408201518160030160008201518160000190805190602001906120329291906127ec565b50602082015181600101908051906020019061204f9291906127ec565b50604082015181600201908051906020019061206c9291906127ec565b5060608201518160030190805190602001906120899291906127ec565b5060808201518160040190805190602001906120a69291906127ec565b50505060608201518160080160008201518160000190805190602001906120ce9291906127ec565b5060208201518160010190805190602001906120eb9291906127ec565b5060408201518160020190805190602001906121089291906127ec565b5060608201518160030190805190602001906121259291906127ec565b5050509050506002600081548092919060010191905055505050505050505050505050505050565b6000809054906101000a900473ffffffffffffffffffffffffffffffffffffffff1681565b6060806060806060600f866040518082805190602001908083835b602083106121b0578051825260208201915060208101905060208303925061218d565b6001836020036101000a038019825116818451168082178552505050505050905001915050908152602001604051809103902060030160056000820181600001908054600181600116156101000203166002900461220f9291906126f4565b50600182018160010190805460018160011615610100020316600290046122379291906126f4565b506002820181600201908054600181600116156101000203166002900461225f9291906126f4565b50600382018160030190805460018160011615610100020316600290046122879291906126f4565b50600482018160040190805460018160011615610100020316600290046122af9291906126f4565b5090505060056000018054600181600116156101000203166002900480601f01602080910402602001604051908101604052809291908181526020018280546001816001161561010002031660029004801561234c5780601f106123215761010080835404028352916020019161234c565b820191906000526020600020905b81548152906001019060200180831161232f57829003601f168201915b5050505050945060056001018054600181600116156101000203166002900480601f0160208091040260200160405190810160405280929190818152602001828054600181600116156101000203166002900480156123ec5780601f106123c1576101008083540402835291602001916123ec565b820191906000526020600020905b8154815290600101906020018083116123cf57829003601f168201915b5050505050935060056002018054600181600116156101000203166002900480601f01602080910402602001604051908101604052809291908181526020018280546001816001161561010002031660029004801561248c5780601f106124615761010080835404028352916020019161248c565b820191906000526020600020905b81548152906001019060200180831161246f57829003601f168201915b5050505050925060056003018054600181600116156101000203166002900480601f01602080910402602001604051908101604052809291908181526020018280546001816001161561010002031660029004801561252c5780601f106125015761010080835404028352916020019161252c565b820191906000526020600020905b81548152906001019060200180831161250f57829003601f168201915b5050505050915060056004018054600181600116156101000203166002900480601f0160208091040260200160405190810160405280929190818152602001828054600181600116156101000203166002900480156125cc5780601f106125a1576101008083540402835291602001916125cc565b820191906000526020600020905b8154815290600101906020018083116125af57829003601f168201915b5050505050905091939590929450565b6000600254905090565b6060600e826040518082805190602001908083835b6020831061261e57805182526020820191506020810190506020830392506125fb565b6001836020036101000a03801982511681845116808217855250505050505090500191505090815260200160405180910390206001018054600181600116156101000203166002900480601f0160208091040260200160405190810160405280929190818152602001828054600181600116156101000203166002900480156126e85780601f106126bd576101008083540402835291602001916126e8565b820191906000526020600020905b8154815290600101906020018083116126cb57829003601f168201915b50505050509050919050565b828054600181600116156101000203166002900490600052602060002090601f016020900481019282601f1061272d578054855561276a565b8280016001018555821561276a57600052602060002091601f016020900482015b8281111561276957825482559160010191906001019061274e565b5b509050612777919061286c565b5090565b6040518060a0016040528060608152602001606081526020016060815260200160608152602001606081525090565b6040518060800160405280606081526020016060815260200160608152602001606081525090565b604051806040016040528060608152602001606081525090565b828054600181600116156101000203166002900490600052602060002090601f016020900481019282601f1061282d57805160ff191683800117855561285b565b8280016001018555821561285b579182015b8281111561285a57825182559160200191906001019061283f565b5b509050612868919061286c565b5090565b61288e91905b8082111561288a576000816000905550600101612872565b5090565b9056fea265627a7a72315820bf69322fffe2ab522f62454906e4fd6227d644f29e144d5eee9f3bd514ac808a64736f6c63430005100032",
  "source": "// SPDX-License-Identifier: MIT\r\npragma solidity >=0.4.21 <0.8.0;\r\n\r\n/* \r\n* Libraries needed in the contract 'Civil State' contract\r\n*/\r\n/** @title LibConcatenateStrings. */\r\n/// @dev Library with a function for concatenating strings\r\nimport {LibConcatenateStrings} from './LibConcatenateStrings.sol';\r\n/** @title LibTransformUintString. */\r\n/// @dev Library with a function to transform an 'uint' in a 'string\r\nimport {LibTransformUintString} from './LibTransformUintString.sol';\r\n/** @title SafeMath. */\r\n/** \r\n * @dev Library with functions to realize arithmetic operations with overflow checks\r\n *\r\n * Contract collection retrieved from : https://github.com/OpenZeppelin/openzeppelin-contracts/blob/master/contracts/math/SafeMath.sol\r\n *\r\n*/\r\nimport {SafeMath} from './SafeMath.sol';\r\n\r\n/** @title CivilState. */\r\ncontract CivilState {\r\n    /// @dev Include libraries codes and initialize its use in the contract\r\n    using LibConcatenateStrings for string;\r\n    using LibTransformUintString for *;\r\n    using SafeMath for uint; \r\n\r\n    /// @dev Owner address\r\n    address payable public owner;\r\n    \r\n    /// @dev Compteur du nombre d'utilisateurs registrs \r\n    uint utilisateursCount = 0;\r\n    \r\n    /// @dev Compteur du nombre d'utilisateurs hopital\r\n    uint utilisateursHopital = 0;\r\n\r\n    /// @dev Compteur du nombre d'utilisateurs prefecture\r\n    uint utilisateursPrefecture = 0;\r\n\r\n    /// @dev Compteur du nombre d'utilisateurs mairie\r\n    uint utilisateursMairie = 0;\r\n\r\n    DonneesIdentification public _donneesIdentTemp;\r\n    DonneesEtablissement public _donneesEtabTemp;\r\n\r\n    /**\r\n    * Informations d'authentifications des utilisateurs\r\n    * typ : pour dfinir si citoyen, admin, membre hpital, membre prefecture, membre mairie\r\n    * valeurs possibles typ : citoyen, admin, hopital, prefecture, mairie\r\n    */\r\n    struct Authentification {\r\n        string mdp;\r\n        string typ;\r\n    }\r\n\r\n    /**\r\n    * Donnes d'identification des membres\r\n    * de l'hopital, de la prefecture, de la mairie\r\n    *\r\n    */\r\n    struct DonneesIdentification {\r\n        string civilite;\r\n        string nom;\r\n        string prenom;\r\n        string dateNaissance;\r\n        string role;\r\n    }\r\n\r\n    /**\r\n    * Donnes de l'tablissement des membres\r\n    * de l'hopital, de la prefecture, de la mairie\r\n    *\r\n    */\r\n    struct DonneesEtablissement {\r\n        string nom;\r\n        string adresse;\r\n        string codePostale;\r\n        string ville;\r\n    }\r\n\r\n    struct DonneesMembres {\r\n        string login;\r\n        Authentification auth;\r\n        DonneesIdentification donneesIdent;\r\n        DonneesEtablissement donneesEtablissement;\r\n    }\r\n\r\n    /*\r\n    * Mapping pour le suivi des utilisateurs\r\n    * cl : string login\r\n    */\r\n    mapping (string => Authentification) utilisateurs;\r\n\r\n    /** @dev\r\n    * Mappings pour suivi des membres de l'hopital, de la prefecture et de la mairie\r\n    *\r\n    */\r\n    mapping(string => DonneesMembres) membresHopital;\r\n\r\n    mapping(string => DonneesMembres) membresPrefecture;\r\n\r\n    mapping(string => DonneesMembres) membresMairie;    \r\n\r\n    /// @dev Contract constructor sets the owner\r\n    constructor () public {\r\n        owner = msg.sender;\r\n    }   \r\n    \r\n    function getTypeUtilisateur(string memory _login) public view returns(string memory _typ) {\r\n        _typ = utilisateurs[_login].typ;\r\n    }\r\n\r\n    /// @dev Gets the hospital members count.\r\n    /// @return utilisateursHopital Membres hopital count.\r\n    function getUtilisateursHopitalCount() public view returns(uint){\r\n        return utilisateursHopital;\r\n    }\r\n\r\n    /// @dev Get info membre hopital\r\n    /// @param _login Le login du membre.\r\n    /// @return _civilite\r\n    /// @return _nom\r\n    /// @return _prenom\r\n    /// @return _dateNaissance\r\n    /// @return _role\r\n    function getInfoIdentMembreHopital(string memory _login) public returns(string memory _civilite, string memory _nom, string memory _prenom, string memory _dateNaissance, string memory _role){\r\n     \r\n        _donneesIdentTemp = membresHopital[_login].donneesIdent;\r\n        _civilite = _donneesIdentTemp.civilite;\r\n        _nom = _donneesIdentTemp.nom;\r\n        _prenom = _donneesIdentTemp.prenom;\r\n        _dateNaissance = _donneesIdentTemp.dateNaissance;\r\n        _role = _donneesIdentTemp.role;\r\n\r\n    }\r\n\r\n    function getInfoEtabMembreHopital(string memory _login) public returns(string memory _nomEtab, string memory _adresseEtab, string memory _codePostaleEtab, string memory _villeEtab){\r\n     \r\n        _donneesEtabTemp = membresHopital[_login].donneesEtablissement;\r\n        _nomEtab = _donneesEtabTemp.nom;\r\n        _adresseEtab = _donneesEtabTemp.adresse;\r\n        _codePostaleEtab = _donneesEtabTemp.codePostale;\r\n        _villeEtab = _donneesEtabTemp.ville;\r\n\r\n    }\r\n\r\n    /// @dev Function pour ajouter un nouveau utilisateur \r\n    function addMembreHopital(string memory _civilite, string memory _nom, string memory _prenom, string memory _dateNaissance, string memory _role,\r\n    string memory _nomEtab, string memory _adresseEtab, string memory _codePostaleEtab, string memory _villeEtab) public {\r\n        DonneesIdentification memory _donneesIdent;\r\n        DonneesEtablissement memory _donneesEtab;\r\n        string memory _login = _nom;\r\n        _login = _login.concatenate(_prenom);\r\n        _login = _login.concatenate(_dateNaissance);\r\n        string memory _mdp = _login;\r\n        Authentification memory _auth;   \r\n\r\n        _donneesIdent = DonneesIdentification({\r\n            civilite: _civilite,\r\n            nom: _nom,\r\n            prenom : _prenom,\r\n            dateNaissance : _dateNaissance,\r\n            role : _role\r\n        });\r\n        \r\n        _donneesEtab = DonneesEtablissement({\r\n            nom : _nomEtab,\r\n            adresse : _adresseEtab,\r\n            codePostale : _codePostaleEtab,\r\n            ville : _villeEtab\r\n        });\r\n\r\n        _auth = Authentification({\r\n            mdp : _mdp,\r\n            typ : \"hopital\"\r\n        });\r\n        \r\n    \r\n        membresHopital[_login] = DonneesMembres({\r\n            login : _login,\r\n            auth : _auth,\r\n            donneesIdent : _donneesIdent,\r\n            donneesEtablissement : _donneesEtab\r\n        });\r\n\r\n        utilisateursHopital++;\r\n        \r\n    }\r\n\r\n    \r\n\r\n}",
  "sourcePath": "C:/Users/anatereza.mascarenha/Documents/POC Etat Civil/contracts/CivilState.sol",
  "compiler": {
    "name": "solc",
    "version": "0.5.16+commit.9c3226ce.Emscripten.clang"
  },
  "schemaVersion": "3.0.22",
  "updatedAt": "2021-02-08T18:18:35.673Z",
  "devdoc": {
    "methods": {
      "addMembreHopital(string,string,string,string,string,string,string,string,string)": {
        "details": "Function pour ajouter un nouveau utilisateur "
      },
      "constructor": {
        "details": "Contract constructor sets the owner"
      },
      "getInfoIdentMembreHopital(string)": {
        "details": "Get info membre hopital",
        "params": {
          "_login": "Le login du membre."
        },
        "return": "_civilite_nom_prenom_dateNaissance_role"
      },
      "getUtilisateursHopitalCount()": {
        "details": "Gets the hospital members count.",
        "return": "utilisateursHopital Membres hopital count."
      }
    },
    "title": "CivilState. "
  },
  "userdoc": {
    "methods": {}
  }
}