{
  "contractName": "CivilState",
  "abi": [
    {
      "inputs": [],
      "payable": false,
      "stateMutability": "nonpayable",
      "type": "constructor"
    },
    {
      "constant": true,
      "inputs": [],
      "name": "_donneesEtabTemp",
      "outputs": [
        {
          "internalType": "string",
          "name": "nom",
          "type": "string"
        },
        {
          "internalType": "string",
          "name": "adresse",
          "type": "string"
        },
        {
          "internalType": "string",
          "name": "codePostale",
          "type": "string"
        },
        {
          "internalType": "string",
          "name": "ville",
          "type": "string"
        }
      ],
      "payable": false,
      "stateMutability": "view",
      "type": "function"
    },
    {
      "constant": true,
      "inputs": [],
      "name": "_donneesIdentTemp",
      "outputs": [
        {
          "internalType": "string",
          "name": "civilite",
          "type": "string"
        },
        {
          "internalType": "string",
          "name": "nom",
          "type": "string"
        },
        {
          "internalType": "string",
          "name": "prenom",
          "type": "string"
        },
        {
          "internalType": "string",
          "name": "dateNaissance",
          "type": "string"
        },
        {
          "internalType": "string",
          "name": "role",
          "type": "string"
        }
      ],
      "payable": false,
      "stateMutability": "view",
      "type": "function"
    },
    {
      "constant": true,
      "inputs": [],
      "name": "owner",
      "outputs": [
        {
          "internalType": "address payable",
          "name": "",
          "type": "address"
        }
      ],
      "payable": false,
      "stateMutability": "view",
      "type": "function"
    },
    {
      "constant": true,
      "inputs": [
        {
          "internalType": "string",
          "name": "_login",
          "type": "string"
        }
      ],
      "name": "getTypeUtilisateur",
      "outputs": [
        {
          "internalType": "string",
          "name": "_typ",
          "type": "string"
        }
      ],
      "payable": false,
      "stateMutability": "view",
      "type": "function"
    },
    {
      "constant": true,
      "inputs": [],
      "name": "getUtilisateursHopitalCount",
      "outputs": [
        {
          "internalType": "uint256",
          "name": "",
          "type": "uint256"
        }
      ],
      "payable": false,
      "stateMutability": "view",
      "type": "function"
    },
    {
      "constant": false,
      "inputs": [
        {
          "internalType": "string",
          "name": "_login",
          "type": "string"
        }
      ],
      "name": "getInfoIdentMembreHopital",
      "outputs": [
        {
          "internalType": "string",
          "name": "_civilite",
          "type": "string"
        },
        {
          "internalType": "string",
          "name": "_nom",
          "type": "string"
        },
        {
          "internalType": "string",
          "name": "_prenom",
          "type": "string"
        },
        {
          "internalType": "string",
          "name": "_dateNaissance",
          "type": "string"
        },
        {
          "internalType": "string",
          "name": "_role",
          "type": "string"
        }
      ],
      "payable": false,
      "stateMutability": "nonpayable",
      "type": "function"
    },
    {
      "constant": false,
      "inputs": [
        {
          "internalType": "string",
          "name": "_login",
          "type": "string"
        }
      ],
      "name": "getInfoEtabMembreHopital",
      "outputs": [
        {
          "internalType": "string",
          "name": "_nomEtab",
          "type": "string"
        },
        {
          "internalType": "string",
          "name": "_adresseEtab",
          "type": "string"
        },
        {
          "internalType": "string",
          "name": "_codePostaleEtab",
          "type": "string"
        },
        {
          "internalType": "string",
          "name": "_villeEtab",
          "type": "string"
        }
      ],
      "payable": false,
      "stateMutability": "nonpayable",
      "type": "function"
    },
    {
      "constant": true,
      "inputs": [
        {
          "internalType": "string",
          "name": "_login",
          "type": "string"
        }
      ],
      "name": "getInfoIdentificationCitoyen",
      "outputs": [
        {
          "internalType": "string",
          "name": "_sexe",
          "type": "string"
        },
        {
          "internalType": "string",
          "name": "_nomFamille",
          "type": "string"
        },
        {
          "internalType": "string",
          "name": "_nomUsage",
          "type": "string"
        },
        {
          "internalType": "string",
          "name": "_premierPrenom",
          "type": "string"
        },
        {
          "internalType": "string",
          "name": "_autresPrenoms",
          "type": "string"
        },
        {
          "internalType": "string",
          "name": "_etatCivil",
          "type": "string"
        }
      ],
      "payable": false,
      "stateMutability": "view",
      "type": "function"
    },
    {
      "constant": true,
      "inputs": [
        {
          "internalType": "string",
          "name": "_login",
          "type": "string"
        }
      ],
      "name": "getInfoNaissanceCitoyen",
      "outputs": [
        {
          "internalType": "string",
          "name": "_dateNaissance",
          "type": "string"
        },
        {
          "internalType": "string",
          "name": "_communeNaissance",
          "type": "string"
        },
        {
          "internalType": "string",
          "name": "_departementNaissance",
          "type": "string"
        }
      ],
      "payable": false,
      "stateMutability": "view",
      "type": "function"
    },
    {
      "constant": true,
      "inputs": [
        {
          "internalType": "string",
          "name": "_login",
          "type": "string"
        }
      ],
      "name": "getInfoParentsCitoyen",
      "outputs": [
        {
          "internalType": "string",
          "name": "_nomFamilleMere",
          "type": "string"
        },
        {
          "internalType": "string",
          "name": "_prenomMere",
          "type": "string"
        },
        {
          "internalType": "string",
          "name": "_nomFamillePere",
          "type": "string"
        },
        {
          "internalType": "string",
          "name": "_prenomPere",
          "type": "string"
        }
      ],
      "payable": false,
      "stateMutability": "view",
      "type": "function"
    },
    {
      "constant": false,
      "inputs": [
        {
          "internalType": "string",
          "name": "_civilite",
          "type": "string"
        },
        {
          "internalType": "string",
          "name": "_nom",
          "type": "string"
        },
        {
          "internalType": "string",
          "name": "_prenom",
          "type": "string"
        },
        {
          "internalType": "string",
          "name": "_dateNaissance",
          "type": "string"
        },
        {
          "internalType": "string",
          "name": "_role",
          "type": "string"
        },
        {
          "internalType": "string",
          "name": "_nomEtab",
          "type": "string"
        },
        {
          "internalType": "string",
          "name": "_adresseEtab",
          "type": "string"
        },
        {
          "internalType": "string",
          "name": "_codePostaleEtab",
          "type": "string"
        },
        {
          "internalType": "string",
          "name": "_villeEtab",
          "type": "string"
        }
      ],
      "name": "addMembreHopital",
      "outputs": [],
      "payable": false,
      "stateMutability": "nonpayable",
      "type": "function"
    },
    {
      "constant": false,
      "inputs": [
        {
          "internalType": "string",
          "name": "_sexe",
          "type": "string"
        },
        {
          "internalType": "string",
          "name": "_nomFamille",
          "type": "string"
        },
        {
          "internalType": "string",
          "name": "_nomUsage",
          "type": "string"
        },
        {
          "internalType": "string",
          "name": "_premierPrenom",
          "type": "string"
        },
        {
          "internalType": "string",
          "name": "_autresPrenoms",
          "type": "string"
        }
      ],
      "name": "addNaissance",
      "outputs": [],
      "payable": false,
      "stateMutability": "nonpayable",
      "type": "function"
    },
    {
      "constant": false,
      "inputs": [
        {
          "internalType": "string",
          "name": "_login",
          "type": "string"
        },
        {
          "internalType": "string",
          "name": "_dateNaissance",
          "type": "string"
        },
        {
          "internalType": "string",
          "name": "_communeNaissance",
          "type": "string"
        },
        {
          "internalType": "string",
          "name": "_departementNaissance",
          "type": "string"
        }
      ],
      "name": "addDonneesNaissance",
      "outputs": [],
      "payable": false,
      "stateMutability": "nonpayable",
      "type": "function"
    },
    {
      "constant": false,
      "inputs": [
        {
          "internalType": "string",
          "name": "_login",
          "type": "string"
        },
        {
          "internalType": "string",
          "name": "_nomFamilleMere",
          "type": "string"
        },
        {
          "internalType": "string",
          "name": "_prenomMere",
          "type": "string"
        },
        {
          "internalType": "string",
          "name": "_nomFamillePere",
          "type": "string"
        },
        {
          "internalType": "string",
          "name": "_prenomPere",
          "type": "string"
        }
      ],
      "name": "addDonneesParents",
      "outputs": [],
      "payable": false,
      "stateMutability": "nonpayable",
      "type": "function"
    },
    {
      "constant": false,
      "inputs": [
        {
          "internalType": "string",
          "name": "_login",
          "type": "string"
        }
      ],
      "name": "verifyIdentite",
      "outputs": [],
      "payable": false,
      "stateMutability": "nonpayable",
      "type": "function"
    }
  ],
  "bytecode": "0x60806040526000600155600060025560006003556000600455600060055534801561002957600080fd5b50336000806101000a81548173ffffffffffffffffffffffffffffffffffffffff021916908373ffffffffffffffffffffffffffffffffffffffff16021790555061524a806100796000396000f3fe608060405234801561001057600080fd5b50600436106100f55760003560e01c806383ebabaa11610097578063905e385211610066578063905e385214611bef578063bcf6e46a14611ed3578063d31a739a1461214b578063db9552f414612169576100f5565b806383ebabaa146111ea5780638be8087e146113b15780638da5cb5b146119255780638e09e63c1461196f576100f5565b80631d5a3b82116100d35780631d5a3b82146109d9578063229c8efa14610cf0578063676152b514610f235780636a78c47a14610fde576100f5565b806302759bb6146100fa57806307569f2f1461044a5780630aba0e20146106c2575b600080fd5b6101b36004803603602081101561011057600080fd5b810190808035906020019064010000000081111561012d57600080fd5b82018360208201111561013f57600080fd5b8035906020019184600183028401116401000000008311171561016157600080fd5b91908080601f016020809104026020016040519081016040528093929190818152602001838380828437600081840152601f19601f82011690508083019250505050505050919291929050505061229d565b6040518080602001806020018060200180602001806020018060200187810387528d818151815260200191508051906020019080838360005b838110156102075780820151818401526020810190506101ec565b50505050905090810190601f1680156102345780820380516001836020036101000a031916815260200191505b5087810386528c818151815260200191508051906020019080838360005b8381101561026d578082015181840152602081019050610252565b50505050905090810190601f16801561029a5780820380516001836020036101000a031916815260200191505b5087810385528b818151815260200191508051906020019080838360005b838110156102d35780820151818401526020810190506102b8565b50505050905090810190601f1680156103005780820380516001836020036101000a031916815260200191505b5087810384528a818151815260200191508051906020019080838360005b8381101561033957808201518184015260208101905061031e565b50505050905090810190601f1680156103665780820380516001836020036101000a031916815260200191505b50878103835289818151815260200191508051906020019080838360005b8381101561039f578082015181840152602081019050610384565b50505050905090810190601f1680156103cc5780820380516001836020036101000a031916815260200191505b50878103825288818151815260200191508051906020019080838360005b838110156104055780820151818401526020810190506103ea565b50505050905090810190601f1680156104325780820380516001836020036101000a031916815260200191505b509c5050505050505050505050505060405180910390f35b6105036004803603602081101561046057600080fd5b810190808035906020019064010000000081111561047d57600080fd5b82018360208201111561048f57600080fd5b803590602001918460018302840111640100000000831117156104b157600080fd5b91908080601f016020809104026020016040519081016040528093929190818152602001838380828437600081840152601f19601f820116905080830192505050505050509192919290505050612727565b6040518080602001806020018060200180602001858103855289818151815260200191508051906020019080838360005b8381101561054f578082015181840152602081019050610534565b50505050905090810190601f16801561057c5780820380516001836020036101000a031916815260200191505b50858103845288818151815260200191508051906020019080838360005b838110156105b557808201518184015260208101905061059a565b50505050905090810190601f1680156105e25780820380516001836020036101000a031916815260200191505b50858103835287818151815260200191508051906020019080838360005b8381101561061b578082015181840152602081019050610600565b50505050905090810190601f1680156106485780820380516001836020036101000a031916815260200191505b50858103825286818151815260200191508051906020019080838360005b83811015610681578082015181840152602081019050610666565b50505050905090810190601f1680156106ae5780820380516001836020036101000a031916815260200191505b509850505050505050505060405180910390f35b6109d7600480360360a08110156106d857600080fd5b81019080803590602001906401000000008111156106f557600080fd5b82018360208201111561070757600080fd5b8035906020019184600183028401116401000000008311171561072957600080fd5b91908080601f016020809104026020016040519081016040528093929190818152602001838380828437600081840152601f19601f8201169050808301925050505050505091929192908035906020019064010000000081111561078c57600080fd5b82018360208201111561079e57600080fd5b803590602001918460018302840111640100000000831117156107c057600080fd5b91908080601f016020809104026020016040519081016040528093929190818152602001838380828437600081840152601f19601f8201169050808301925050505050505091929192908035906020019064010000000081111561082357600080fd5b82018360208201111561083557600080fd5b8035906020019184600183028401116401000000008311171561085757600080fd5b91908080601f016020809104026020016040519081016040528093929190818152602001838380828437600081840152601f19601f820116905080830192505050505050509192919290803590602001906401000000008111156108ba57600080fd5b8201836020820111156108cc57600080fd5b803590602001918460018302840111640100000000831117156108ee57600080fd5b91908080601f016020809104026020016040519081016040528093929190818152602001838380828437600081840152601f19601f8201169050808301925050505050505091929192908035906020019064010000000081111561095157600080fd5b82018360208201111561096357600080fd5b8035906020019184600183028401116401000000008311171561098557600080fd5b91908080601f016020809104026020016040519081016040528093929190818152602001838380828437600081840152601f19601f820116905080830192505050505050509192919290505050612ac5565b005b610cee600480360360a08110156109ef57600080fd5b8101908080359060200190640100000000811115610a0c57600080fd5b820183602082011115610a1e57600080fd5b80359060200191846001830284011164010000000083111715610a4057600080fd5b91908080601f016020809104026020016040519081016040528093929190818152602001838380828437600081840152601f19601f82011690508083019250505050505050919291929080359060200190640100000000811115610aa357600080fd5b820183602082011115610ab557600080fd5b80359060200191846001830284011164010000000083111715610ad757600080fd5b91908080601f016020809104026020016040519081016040528093929190818152602001838380828437600081840152601f19601f82011690508083019250505050505050919291929080359060200190640100000000811115610b3a57600080fd5b820183602082011115610b4c57600080fd5b80359060200191846001830284011164010000000083111715610b6e57600080fd5b91908080601f016020809104026020016040519081016040528093929190818152602001838380828437600081840152601f19601f82011690508083019250505050505050919291929080359060200190640100000000811115610bd157600080fd5b820183602082011115610be357600080fd5b80359060200191846001830284011164010000000083111715610c0557600080fd5b91908080601f016020809104026020016040519081016040528093929190818152602001838380828437600081840152601f19601f82011690508083019250505050505050919291929080359060200190640100000000811115610c6857600080fd5b820183602082011115610c7a57600080fd5b80359060200191846001830284011164010000000083111715610c9c57600080fd5b91908080601f016020809104026020016040519081016040528093929190818152602001838380828437600081840152601f19601f8201169050808301925050505050505091929192905050506130c3565b005b610cf86131da565b60405180806020018060200180602001806020018060200186810386528b818151815260200191508051906020019080838360005b83811015610d48578082015181840152602081019050610d2d565b50505050905090810190601f168015610d755780820380516001836020036101000a031916815260200191505b5086810385528a818151815260200191508051906020019080838360005b83811015610dae578082015181840152602081019050610d93565b50505050905090810190601f168015610ddb5780820380516001836020036101000a031916815260200191505b50868103845289818151815260200191508051906020019080838360005b83811015610e14578082015181840152602081019050610df9565b50505050905090810190601f168015610e415780820380516001836020036101000a031916815260200191505b50868103835288818151815260200191508051906020019080838360005b83811015610e7a578082015181840152602081019050610e5f565b50505050905090810190601f168015610ea75780820380516001836020036101000a031916815260200191505b50868103825287818151815260200191508051906020019080838360005b83811015610ee0578082015181840152602081019050610ec5565b50505050905090810190601f168015610f0d5780820380516001836020036101000a031916815260200191505b509a505050505050505050505060405180910390f35b610fdc60048036036020811015610f3957600080fd5b8101908080359060200190640100000000811115610f5657600080fd5b820183602082011115610f6857600080fd5b80359060200191846001830284011164010000000083111715610f8a57600080fd5b91908080601f016020809104026020016040519081016040528093929190818152602001838380828437600081840152601f19601f8201169050808301925050505050505091929192905050506134f6565b005b61109760048036036020811015610ff457600080fd5b810190808035906020019064010000000081111561101157600080fd5b82018360208201111561102357600080fd5b8035906020019184600183028401116401000000008311171561104557600080fd5b91908080601f016020809104026020016040519081016040528093929190818152602001838380828437600081840152601f19601f820116905080830192505050505050509192919290505050613881565b60405180806020018060200180602001848103845287818151815260200191508051906020019080838360005b838110156110df5780820151818401526020810190506110c4565b50505050905090810190601f16801561110c5780820380516001836020036101000a031916815260200191505b50848103835286818151815260200191508051906020019080838360005b8381101561114557808201518184015260208101905061112a565b50505050905090810190601f1680156111725780820380516001836020036101000a031916815260200191505b50848103825285818151815260200191508051906020019080838360005b838110156111ab578082015181840152602081019050611190565b50505050905090810190601f1680156111d85780820380516001836020036101000a031916815260200191505b50965050505050505060405180910390f35b6111f2613b0a565b6040518080602001806020018060200180602001858103855289818151815260200191508051906020019080838360005b8381101561123e578082015181840152602081019050611223565b50505050905090810190601f16801561126b5780820380516001836020036101000a031916815260200191505b50858103845288818151815260200191508051906020019080838360005b838110156112a4578082015181840152602081019050611289565b50505050905090810190601f1680156112d15780820380516001836020036101000a031916815260200191505b50858103835287818151815260200191508051906020019080838360005b8381101561130a5780820151818401526020810190506112ef565b50505050905090810190601f1680156113375780820380516001836020036101000a031916815260200191505b50858103825286818151815260200191508051906020019080838360005b83811015611370578082015181840152602081019050611355565b50505050905090810190601f16801561139d5780820380516001836020036101000a031916815260200191505b509850505050505050505060405180910390f35b61192360048036036101208110156113c857600080fd5b81019080803590602001906401000000008111156113e557600080fd5b8201836020820111156113f757600080fd5b8035906020019184600183028401116401000000008311171561141957600080fd5b91908080601f016020809104026020016040519081016040528093929190818152602001838380828437600081840152601f19601f8201169050808301925050505050505091929192908035906020019064010000000081111561147c57600080fd5b82018360208201111561148e57600080fd5b803590602001918460018302840111640100000000831117156114b057600080fd5b91908080601f016020809104026020016040519081016040528093929190818152602001838380828437600081840152601f19601f8201169050808301925050505050505091929192908035906020019064010000000081111561151357600080fd5b82018360208201111561152557600080fd5b8035906020019184600183028401116401000000008311171561154757600080fd5b91908080601f016020809104026020016040519081016040528093929190818152602001838380828437600081840152601f19601f820116905080830192505050505050509192919290803590602001906401000000008111156115aa57600080fd5b8201836020820111156115bc57600080fd5b803590602001918460018302840111640100000000831117156115de57600080fd5b91908080601f016020809104026020016040519081016040528093929190818152602001838380828437600081840152601f19601f8201169050808301925050505050505091929192908035906020019064010000000081111561164157600080fd5b82018360208201111561165357600080fd5b8035906020019184600183028401116401000000008311171561167557600080fd5b91908080601f016020809104026020016040519081016040528093929190818152602001838380828437600081840152601f19601f820116905080830192505050505050509192919290803590602001906401000000008111156116d857600080fd5b8201836020820111156116ea57600080fd5b8035906020019184600183028401116401000000008311171561170c57600080fd5b91908080601f016020809104026020016040519081016040528093929190818152602001838380828437600081840152601f19601f8201169050808301925050505050505091929192908035906020019064010000000081111561176f57600080fd5b82018360208201111561178157600080fd5b803590602001918460018302840111640100000000831117156117a357600080fd5b91908080601f016020809104026020016040519081016040528093929190818152602001838380828437600081840152601f19601f8201169050808301925050505050505091929192908035906020019064010000000081111561180657600080fd5b82018360208201111561181857600080fd5b8035906020019184600183028401116401000000008311171561183a57600080fd5b91908080601f016020809104026020016040519081016040528093929190818152602001838380828437600081840152601f19601f8201169050808301925050505050505091929192908035906020019064010000000081111561189d57600080fd5b8201836020820111156118af57600080fd5b803590602001918460018302840111640100000000831117156118d157600080fd5b91908080601f016020809104026020016040519081016040528093929190818152602001838380828437600081840152601f19601f820116905080830192505050505050509192919290505050613d88565b005b61192d6145ac565b604051808273ffffffffffffffffffffffffffffffffffffffff1673ffffffffffffffffffffffffffffffffffffffff16815260200191505060405180910390f35b611bed6004803603608081101561198557600080fd5b81019080803590602001906401000000008111156119a257600080fd5b8201836020820111156119b457600080fd5b803590602001918460018302840111640100000000831117156119d657600080fd5b91908080601f016020809104026020016040519081016040528093929190818152602001838380828437600081840152601f19601f82011690508083019250505050505050919291929080359060200190640100000000811115611a3957600080fd5b820183602082011115611a4b57600080fd5b80359060200191846001830284011164010000000083111715611a6d57600080fd5b91908080601f016020809104026020016040519081016040528093929190818152602001838380828437600081840152601f19601f82011690508083019250505050505050919291929080359060200190640100000000811115611ad057600080fd5b820183602082011115611ae257600080fd5b80359060200191846001830284011164010000000083111715611b0457600080fd5b91908080601f016020809104026020016040519081016040528093929190818152602001838380828437600081840152601f19601f82011690508083019250505050505050919291929080359060200190640100000000811115611b6757600080fd5b820183602082011115611b7957600080fd5b80359060200191846001830284011164010000000083111715611b9b57600080fd5b91908080601f016020809104026020016040519081016040528093929190818152602001838380828437600081840152601f19601f8201169050808301925050505050505091929192905050506145d1565b005b611ca860048036036020811015611c0557600080fd5b8101908080359060200190640100000000811115611c2257600080fd5b820183602082011115611c3457600080fd5b80359060200191846001830284011164010000000083111715611c5657600080fd5b91908080601f016020809104026020016040519081016040528093929190818152602001838380828437600081840152601f19601f8201169050808301925050505050505091929192905050506146c4565b60405180806020018060200180602001806020018060200186810386528b818151815260200191508051906020019080838360005b83811015611cf8578082015181840152602081019050611cdd565b50505050905090810190601f168015611d255780820380516001836020036101000a031916815260200191505b5086810385528a818151815260200191508051906020019080838360005b83811015611d5e578082015181840152602081019050611d43565b50505050905090810190601f168015611d8b5780820380516001836020036101000a031916815260200191505b50868103845289818151815260200191508051906020019080838360005b83811015611dc4578082015181840152602081019050611da9565b50505050905090810190601f168015611df15780820380516001836020036101000a031916815260200191505b50868103835288818151815260200191508051906020019080838360005b83811015611e2a578082015181840152602081019050611e0f565b50505050905090810190601f168015611e575780820380516001836020036101000a031916815260200191505b50868103825287818151815260200191508051906020019080838360005b83811015611e90578082015181840152602081019050611e75565b50505050905090810190601f168015611ebd5780820380516001836020036101000a031916815260200191505b509a505050505050505050505060405180910390f35b611f8c60048036036020811015611ee957600080fd5b8101908080359060200190640100000000811115611f0657600080fd5b820183602082011115611f1857600080fd5b80359060200191846001830284011164010000000083111715611f3a57600080fd5b91908080601f016020809104026020016040519081016040528093929190818152602001838380828437600081840152601f19601f820116905080830192505050505050509192919290505050614b2e565b6040518080602001806020018060200180602001858103855289818151815260200191508051906020019080838360005b83811015611fd8578082015181840152602081019050611fbd565b50505050905090810190601f1680156120055780820380516001836020036101000a031916815260200191505b50858103845288818151815260200191508051906020019080838360005b8381101561203e578082015181840152602081019050612023565b50505050905090810190601f16801561206b5780820380516001836020036101000a031916815260200191505b50858103835287818151815260200191508051906020019080838360005b838110156120a4578082015181840152602081019050612089565b50505050905090810190601f1680156120d15780820380516001836020036101000a031916815260200191505b50858103825286818151815260200191508051906020019080838360005b8381101561210a5780820151818401526020810190506120ef565b50505050905090810190601f1680156121375780820380516001836020036101000a031916815260200191505b509850505050505050505060405180910390f35b612153614e61565b6040518082815260200191505060405180910390f35b6122226004803603602081101561217f57600080fd5b810190808035906020019064010000000081111561219c57600080fd5b8201836020820111156121ae57600080fd5b803590602001918460018302840111640100000000831117156121d057600080fd5b91908080601f016020809104026020016040519081016040528093929190818152602001838380828437600081840152601f19601f820116905080830192505050505050509192919290505050614e6b565b6040518080602001828103825283818151815260200191508051906020019080838360005b83811015612262578082015181840152602081019050612247565b50505050905090810190601f16801561228f5780820380516001836020036101000a031916815260200191505b509250505060405180910390f35b6060806060806060806122ae614f79565b6013886040518082805190602001908083835b602083106122e457805182526020820191506020810190506020830392506122c1565b6001836020036101000a03801982511681845116808217855250505050505090500191505090815260200160405180910390206004016040518060c0016040529081600082018054600181600116156101000203166002900480601f0160208091040260200160405190810160405280929190818152602001828054600181600116156101000203166002900480156123be5780601f10612393576101008083540402835291602001916123be565b820191906000526020600020905b8154815290600101906020018083116123a157829003601f168201915b50505050508152602001600182018054600181600116156101000203166002900480601f0160208091040260200160405190810160405280929190818152602001828054600181600116156101000203166002900480156124605780601f1061243557610100808354040283529160200191612460565b820191906000526020600020905b81548152906001019060200180831161244357829003601f168201915b50505050508152602001600282018054600181600116156101000203166002900480601f0160208091040260200160405190810160405280929190818152602001828054600181600116156101000203166002900480156125025780601f106124d757610100808354040283529160200191612502565b820191906000526020600020905b8154815290600101906020018083116124e557829003601f168201915b50505050508152602001600382018054600181600116156101000203166002900480601f0160208091040260200160405190810160405280929190818152602001828054600181600116156101000203166002900480156125a45780601f10612579576101008083540402835291602001916125a4565b820191906000526020600020905b81548152906001019060200180831161258757829003601f168201915b50505050508152602001600482018054600181600116156101000203166002900480601f0160208091040260200160405190810160405280929190818152602001828054600181600116156101000203166002900480156126465780601f1061261b57610100808354040283529160200191612646565b820191906000526020600020905b81548152906001019060200180831161262957829003601f168201915b50505050508152602001600582018054600181600116156101000203166002900480601f0160208091040260200160405190810160405280929190818152602001828054600181600116156101000203166002900480156126e85780601f106126bd576101008083540402835291602001916126e8565b820191906000526020600020905b8154815290600101906020018083116126cb57829003601f168201915b505050505081525050905080600001519650806020015195508060400151945080606001519350806080015192508060a0015191505091939550919395565b6060806060806010856040518082805190602001908083835b602083106127635780518252602082019150602081019050602083039250612740565b6001836020036101000a0380198251168184511680821785525050505050509050019150509081526020016040518091039020600801600b600082018160000190805460018160011615610100020316600290046127c2929190614faf565b50600182018160010190805460018160011615610100020316600290046127ea929190614faf565b5060028201816002019080546001816001161561010002031660029004612812929190614faf565b506003820181600301908054600181600116156101000203166002900461283a929190614faf565b50905050600b6000018054600181600116156101000203166002900480601f0160208091040260200160405190810160405280929190818152602001828054600181600116156101000203166002900480156128d75780601f106128ac576101008083540402835291602001916128d7565b820191906000526020600020905b8154815290600101906020018083116128ba57829003601f168201915b50505050509350600b6001018054600181600116156101000203166002900480601f0160208091040260200160405190810160405280929190818152602001828054600181600116156101000203166002900480156129775780601f1061294c57610100808354040283529160200191612977565b820191906000526020600020905b81548152906001019060200180831161295a57829003601f168201915b50505050509250600b6002018054600181600116156101000203166002900480601f016020809104026020016040519081016040528092919081815260200182805460018160011615610100020316600290048015612a175780601f106129ec57610100808354040283529160200191612a17565b820191906000526020600020905b8154815290600101906020018083116129fa57829003601f168201915b50505050509150600b6003018054600181600116156101000203166002900480601f016020809104026020016040519081016040528092919081815260200182805460018160011615610100020316600290048015612ab75780601f10612a8c57610100808354040283529160200191612ab7565b820191906000526020600020905b815481529060010190602001808311612a9a57829003601f168201915b505050505090509193509193565b612acd614f79565b612ad5615036565b612add615057565b60608790508073__LibConcatenateStrings_________________63266001d39091886040518363ffffffff1660e01b8152600401808060200180602001838103835285818151815260200191508051906020019080838360005b83811015612b53578082015181840152602081019050612b38565b50505050905090810190601f168015612b805780820380516001836020036101000a031916815260200191505b50838103825284818151815260200191508051906020019080838360005b83811015612bb9578082015181840152602081019050612b9e565b50505050905090810190601f168015612be65780820380516001836020036101000a031916815260200191505b5094505050505060006040518083038186803b158015612c0557600080fd5b505af4158015612c19573d6000803e3d6000fd5b505050506040513d6000823e3d601f19601f820116820180604052506020811015612c4357600080fd5b8101908080516040519392919084640100000000821115612c6357600080fd5b83820191506020820185811115612c7957600080fd5b8251866001820283011164010000000082111715612c9657600080fd5b8083526020830192505050908051906020019080838360005b83811015612cca578082015181840152602081019050612caf565b50505050905090810190601f168015612cf75780820380516001836020036101000a031916815260200191505b5060405250505090506060819050612d0d61507f565b60405180604001604052808381526020016040518060400160405280600781526020017f6369746f79656e0000000000000000000000000000000000000000000000000081525081525090506040518060c001604052808c81526020018b81526020018a81526020018981526020018881526020016040518060400160405280600b81526020017f63656c696261746169726500000000000000000000000000000000000000000081525081525095506040518060c001604052808481526020016040518060400160405280600981526020017f6e6f6e76616c69646500000000000000000000000000000000000000000000008152508152602001828152602001878152602001868152602001858152506013846040518082805190602001908083835b60208310612e555780518252602082019150602081019050602083039250612e32565b6001836020036101000a03801982511681845116808217855250505050505090500191505090815260200160405180910390206000820151816000019080519060200190612ea4929190615099565b506020820151816001019080519060200190612ec1929190615099565b506040820151816002016000820151816000019080519060200190612ee7929190615099565b506020820151816001019080519060200190612f04929190615099565b5050506060820151816004016000820151816000019080519060200190612f2c929190615099565b506020820151816001019080519060200190612f49929190615099565b506040820151816002019080519060200190612f66929190615099565b506060820151816003019080519060200190612f83929190615099565b506080820151816004019080519060200190612fa0929190615099565b5060a0820151816005019080519060200190612fbd929190615099565b505050608082015181600a016000820151816000019080519060200190612fe5929190615099565b506020820151816001019080519060200190613002929190615099565b50604082015181600201908051906020019061301f929190615099565b50505060a082015181600d016000820151816000019080519060200190613047929190615099565b506020820151816001019080519060200190613064929190615099565b506040820151816002019080519060200190613081929190615099565b50606082015181600301908051906020019061309e929190615099565b5050509050506005600081548092919060010191905055505050505050505050505050565b6130cb615057565b6040518060800160405280868152602001858152602001848152602001838152509050806013876040518082805190602001908083835b602083106131255780518252602082019150602081019050602083039250613102565b6001836020036101000a0380198251168184511680821785525050505050509050019150509081526020016040518091039020600d016000820151816000019080519060200190613177929190615099565b506020820151816001019080519060200190613194929190615099565b5060408201518160020190805190602001906131b1929190615099565b5060608201518160030190805190602001906131ce929190615099565b50905050505050505050565b6006806000018054600181600116156101000203166002900480601f0160208091040260200160405190810160405280929190818152602001828054600181600116156101000203166002900480156132745780601f1061324957610100808354040283529160200191613274565b820191906000526020600020905b81548152906001019060200180831161325757829003601f168201915b505050505090806001018054600181600116156101000203166002900480601f0160208091040260200160405190810160405280929190818152602001828054600181600116156101000203166002900480156133125780601f106132e757610100808354040283529160200191613312565b820191906000526020600020905b8154815290600101906020018083116132f557829003601f168201915b505050505090806002018054600181600116156101000203166002900480601f0160208091040260200160405190810160405280929190818152602001828054600181600116156101000203166002900480156133b05780601f10613385576101008083540402835291602001916133b0565b820191906000526020600020905b81548152906001019060200180831161339357829003601f168201915b505050505090806003018054600181600116156101000203166002900480601f01602080910402602001604051908101604052809291908181526020018280546001816001161561010002031660029004801561344e5780601f106134235761010080835404028352916020019161344e565b820191906000526020600020905b81548152906001019060200180831161343157829003601f168201915b505050505090806004018054600181600116156101000203166002900480601f0160208091040260200160405190810160405280929190818152602001828054600181600116156101000203166002900480156134ec5780601f106134c1576101008083540402835291602001916134ec565b820191906000526020600020905b8154815290600101906020018083116134cf57829003601f168201915b5050505050905085565b6040518060400160405280600681526020017f76616c69646500000000000000000000000000000000000000000000000000008152506013826040518082805190602001908083835b60208310613562578051825260208201915060208101905060208303925061353f565b6001836020036101000a038019825116818451168082178552505050505050905001915050908152602001604051809103902060010190805190602001906135ab929190615119565b506135b461507f565b6013826040518082805190602001908083835b602083106135ea57805182526020820191506020810190506020830392506135c7565b6001836020036101000a0380198251168184511680821785525050505050509050019150509081526020016040518091039020600201604051806040016040529081600082018054600181600116156101000203166002900480601f0160208091040260200160405190810160405280929190818152602001828054600181600116156101000203166002900480156136c45780601f10613699576101008083540402835291602001916136c4565b820191906000526020600020905b8154815290600101906020018083116136a757829003601f168201915b50505050508152602001600182018054600181600116156101000203166002900480601f0160208091040260200160405190810160405280929190818152602001828054600181600116156101000203166002900480156137665780601f1061373b57610100808354040283529160200191613766565b820191906000526020600020905b81548152906001019060200180831161374957829003601f168201915b505050505081525050905060608160000151905060405180604001604052808281526020016040518060400160405280600781526020017f6369746f79656e00000000000000000000000000000000000000000000000000815250815250600f846040518082805190602001908083835b602083106137fa57805182526020820191506020810190506020830392506137d7565b6001836020036101000a03801982511681845116808217855250505050505090500191505090815260200160405180910390206000820151816000019080519060200190613849929190615099565b506020820151816001019080519060200190613866929190615099565b50905050600160008154809291906001019190505550505050565b606080606061388e615036565b6013856040518082805190602001908083835b602083106138c457805182526020820191506020810190506020830392506138a1565b6001836020036101000a0380198251168184511680821785525050505050509050019150509081526020016040518091039020600a01604051806060016040529081600082018054600181600116156101000203166002900480601f01602080910402602001604051908101604052809291908181526020018280546001816001161561010002031660029004801561399e5780601f106139735761010080835404028352916020019161399e565b820191906000526020600020905b81548152906001019060200180831161398157829003601f168201915b50505050508152602001600182018054600181600116156101000203166002900480601f016020809104026020016040519081016040528092919081815260200182805460018160011615610100020316600290048015613a405780601f10613a1557610100808354040283529160200191613a40565b820191906000526020600020905b815481529060010190602001808311613a2357829003601f168201915b50505050508152602001600282018054600181600116156101000203166002900480601f016020809104026020016040519081016040528092919081815260200182805460018160011615610100020316600290048015613ae25780601f10613ab757610100808354040283529160200191613ae2565b820191906000526020600020905b815481529060010190602001808311613ac557829003601f168201915b5050505050815250509050806000015193508060200151925080604001519150509193909250565b600b806000018054600181600116156101000203166002900480601f016020809104026020016040519081016040528092919081815260200182805460018160011615610100020316600290048015613ba45780601f10613b7957610100808354040283529160200191613ba4565b820191906000526020600020905b815481529060010190602001808311613b8757829003601f168201915b505050505090806001018054600181600116156101000203166002900480601f016020809104026020016040519081016040528092919081815260200182805460018160011615610100020316600290048015613c425780601f10613c1757610100808354040283529160200191613c42565b820191906000526020600020905b815481529060010190602001808311613c2557829003601f168201915b505050505090806002018054600181600116156101000203166002900480601f016020809104026020016040519081016040528092919081815260200182805460018160011615610100020316600290048015613ce05780601f10613cb557610100808354040283529160200191613ce0565b820191906000526020600020905b815481529060010190602001808311613cc357829003601f168201915b505050505090806003018054600181600116156101000203166002900480601f016020809104026020016040519081016040528092919081815260200182805460018160011615610100020316600290048015613d7e5780601f10613d5357610100808354040283529160200191613d7e565b820191906000526020600020905b815481529060010190602001808311613d6157829003601f168201915b5050505050905084565b613d90615199565b613d986151c8565b60608a90508073__LibConcatenateStrings_________________63266001d390918c6040518363ffffffff1660e01b8152600401808060200180602001838103835285818151815260200191508051906020019080838360005b83811015613e0e578082015181840152602081019050613df3565b50505050905090810190601f168015613e3b5780820380516001836020036101000a031916815260200191505b50838103825284818151815260200191508051906020019080838360005b83811015613e74578082015181840152602081019050613e59565b50505050905090810190601f168015613ea15780820380516001836020036101000a031916815260200191505b5094505050505060006040518083038186803b158015613ec057600080fd5b505af4158015613ed4573d6000803e3d6000fd5b505050506040513d6000823e3d601f19601f820116820180604052506020811015613efe57600080fd5b8101908080516040519392919084640100000000821115613f1e57600080fd5b83820191506020820185811115613f3457600080fd5b8251866001820283011164010000000082111715613f5157600080fd5b8083526020830192505050908051906020019080838360005b83811015613f85578082015181840152602081019050613f6a565b50505050905090810190601f168015613fb25780820380516001836020036101000a031916815260200191505b5060405250505090508073__LibConcatenateStrings_________________63266001d390918b6040518363ffffffff1660e01b8152600401808060200180602001838103835285818151815260200191508051906020019080838360005b8381101561402c578082015181840152602081019050614011565b50505050905090810190601f1680156140595780820380516001836020036101000a031916815260200191505b50838103825284818151815260200191508051906020019080838360005b83811015614092578082015181840152602081019050614077565b50505050905090810190601f1680156140bf5780820380516001836020036101000a031916815260200191505b5094505050505060006040518083038186803b1580156140de57600080fd5b505af41580156140f2573d6000803e3d6000fd5b505050506040513d6000823e3d601f19601f82011682018060405250602081101561411c57600080fd5b810190808051604051939291908464010000000082111561413c57600080fd5b8382019150602082018581111561415257600080fd5b825186600182028301116401000000008211171561416f57600080fd5b8083526020830192505050908051906020019080838360005b838110156141a3578082015181840152602081019050614188565b50505050905090810190601f1680156141d05780820380516001836020036101000a031916815260200191505b50604052505050905060608190506141e661507f565b6040518060a001604052808f81526020018e81526020018d81526020018c81526020018b815250945060405180608001604052808a815260200189815260200188815260200187815250935060405180604001604052808381526020016040518060400160405280600781526020017f686f706974616c0000000000000000000000000000000000000000000000000081525081525090506040518060800160405280848152602001828152602001868152602001858152506010846040518082805190602001908083835b602083106142d557805182526020820191506020810190506020830392506142b2565b6001836020036101000a03801982511681845116808217855250505050505090500191505090815260200160405180910390206000820151816000019080519060200190614324929190615099565b50602082015181600101600082015181600001908051906020019061434a929190615099565b506020820151816001019080519060200190614367929190615099565b505050604082015181600301600082015181600001908051906020019061438f929190615099565b5060208201518160010190805190602001906143ac929190615099565b5060408201518160020190805190602001906143c9929190615099565b5060608201518160030190805190602001906143e6929190615099565b506080820151816004019080519060200190614403929190615099565b505050606082015181600801600082015181600001908051906020019061442b929190615099565b506020820151816001019080519060200190614448929190615099565b506040820151816002019080519060200190614465929190615099565b506060820151816003019080519060200190614482929190615099565b50505090505060405180604001604052808381526020016040518060400160405280600781526020017f686f706974616c00000000000000000000000000000000000000000000000000815250815250600f846040518082805190602001908083835b6020831061450857805182526020820191506020810190506020830392506144e5565b6001836020036101000a03801982511681845116808217855250505050505090500191505090815260200160405180910390206000820151816000019080519060200190614557929190615099565b506020820151816001019080519060200190614574929190615099565b509050506002600081548092919060010191905055506001600081548092919060010191905055505050505050505050505050505050565b6000809054906101000a900473ffffffffffffffffffffffffffffffffffffffff1681565b6145d9615036565b6040518060600160405280858152602001848152602001838152509050806013866040518082805190602001908083835b6020831061462d578051825260208201915060208101905060208303925061460a565b6001836020036101000a0380198251168184511680821785525050505050509050019150509081526020016040518091039020600a01600082015181600001908051906020019061467f929190615099565b50602082015181600101908051906020019061469c929190615099565b5060408201518160020190805190602001906146b9929190615099565b509050505050505050565b60608060608060606010866040518082805190602001908083835b6020831061470257805182526020820191506020810190506020830392506146df565b6001836020036101000a0380198251168184511680821785525050505050509050019150509081526020016040518091039020600301600660008201816000019080546001816001161561010002031660029004614761929190614faf565b5060018201816001019080546001816001161561010002031660029004614789929190614faf565b50600282018160020190805460018160011615610100020316600290046147b1929190614faf565b50600382018160030190805460018160011615610100020316600290046147d9929190614faf565b5060048201816004019080546001816001161561010002031660029004614801929190614faf565b5090505060066000018054600181600116156101000203166002900480601f01602080910402602001604051908101604052809291908181526020018280546001816001161561010002031660029004801561489e5780601f106148735761010080835404028352916020019161489e565b820191906000526020600020905b81548152906001019060200180831161488157829003601f168201915b5050505050945060066001018054600181600116156101000203166002900480601f01602080910402602001604051908101604052809291908181526020018280546001816001161561010002031660029004801561493e5780601f106149135761010080835404028352916020019161493e565b820191906000526020600020905b81548152906001019060200180831161492157829003601f168201915b5050505050935060066002018054600181600116156101000203166002900480601f0160208091040260200160405190810160405280929190818152602001828054600181600116156101000203166002900480156149de5780601f106149b3576101008083540402835291602001916149de565b820191906000526020600020905b8154815290600101906020018083116149c157829003601f168201915b5050505050925060066003018054600181600116156101000203166002900480601f016020809104026020016040519081016040528092919081815260200182805460018160011615610100020316600290048015614a7e5780601f10614a5357610100808354040283529160200191614a7e565b820191906000526020600020905b815481529060010190602001808311614a6157829003601f168201915b5050505050915060066004018054600181600116156101000203166002900480601f016020809104026020016040519081016040528092919081815260200182805460018160011615610100020316600290048015614b1e5780601f10614af357610100808354040283529160200191614b1e565b820191906000526020600020905b815481529060010190602001808311614b0157829003601f168201915b5050505050905091939590929450565b606080606080614b3c615057565b6013866040518082805190602001908083835b60208310614b725780518252602082019150602081019050602083039250614b4f565b6001836020036101000a0380198251168184511680821785525050505050509050019150509081526020016040518091039020600d01604051806080016040529081600082018054600181600116156101000203166002900480601f016020809104026020016040519081016040528092919081815260200182805460018160011615610100020316600290048015614c4c5780601f10614c2157610100808354040283529160200191614c4c565b820191906000526020600020905b815481529060010190602001808311614c2f57829003601f168201915b50505050508152602001600182018054600181600116156101000203166002900480601f016020809104026020016040519081016040528092919081815260200182805460018160011615610100020316600290048015614cee5780601f10614cc357610100808354040283529160200191614cee565b820191906000526020600020905b815481529060010190602001808311614cd157829003601f168201915b50505050508152602001600282018054600181600116156101000203166002900480601f016020809104026020016040519081016040528092919081815260200182805460018160011615610100020316600290048015614d905780601f10614d6557610100808354040283529160200191614d90565b820191906000526020600020905b815481529060010190602001808311614d7357829003601f168201915b50505050508152602001600382018054600181600116156101000203166002900480601f016020809104026020016040519081016040528092919081815260200182805460018160011615610100020316600290048015614e325780601f10614e0757610100808354040283529160200191614e32565b820191906000526020600020905b815481529060010190602001808311614e1557829003601f168201915b505050505081525050905080600001519450806020015193508060400151925080606001519150509193509193565b6000600254905090565b6060600f826040518082805190602001908083835b60208310614ea35780518252602082019150602081019050602083039250614e80565b6001836020036101000a03801982511681845116808217855250505050505090500191505090815260200160405180910390206001018054600181600116156101000203166002900480601f016020809104026020016040519081016040528092919081815260200182805460018160011615610100020316600290048015614f6d5780601f10614f4257610100808354040283529160200191614f6d565b820191906000526020600020905b815481529060010190602001808311614f5057829003601f168201915b50505050509050919050565b6040518060c001604052806060815260200160608152602001606081526020016060815260200160608152602001606081525090565b828054600181600116156101000203166002900490600052602060002090601f016020900481019282601f10614fe85780548555615025565b8280016001018555821561502557600052602060002091601f016020900482015b82811115615024578254825591600101919060010190615009565b5b50905061503291906151f0565b5090565b60405180606001604052806060815260200160608152602001606081525090565b6040518060800160405280606081526020016060815260200160608152602001606081525090565b604051806040016040528060608152602001606081525090565b828054600181600116156101000203166002900490600052602060002090601f016020900481019282601f106150da57805160ff1916838001178555615108565b82800160010185558215615108579182015b828111156151075782518255916020019190600101906150ec565b5b50905061511591906151f0565b5090565b828054600181600116156101000203166002900490600052602060002090601f016020900481019282601f1061515a57805160ff1916838001178555615188565b82800160010185558215615188579182015b8281111561518757825182559160200191906001019061516c565b5b50905061519591906151f0565b5090565b6040518060a0016040528060608152602001606081526020016060815260200160608152602001606081525090565b6040518060800160405280606081526020016060815260200160608152602001606081525090565b61521291905b8082111561520e5760008160009055506001016151f6565b5090565b9056fea265627a7a72315820ef0bba3ae43e304ecbc414230bca98b3d5f96445534fb66b264a8257c86f47be64736f6c63430005100032",
  "source": "// SPDX-License-Identifier: MIT\r\npragma solidity >=0.4.21 <0.8.0;\r\n\r\n/* \r\n* Libraries needed in the contract 'Civil State' contract\r\n*/\r\n/** @title LibConcatenateStrings. */\r\n/// @dev Library with a function for concatenating strings\r\nimport {LibConcatenateStrings} from './LibConcatenateStrings.sol';\r\n/** @title LibTransformUintString. */\r\n/// @dev Library with a function to transform an 'uint' in a 'string\r\nimport {LibTransformUintString} from './LibTransformUintString.sol';\r\n/** @title SafeMath. */\r\n/** \r\n * @dev Library with functions to realize arithmetic operations with overflow checks\r\n *\r\n * Contract collection retrieved from : https://github.com/OpenZeppelin/openzeppelin-contracts/blob/master/contracts/math/SafeMath.sol\r\n *\r\n*/\r\nimport {SafeMath} from './SafeMath.sol';\r\n\r\n/** @title CivilState. */\r\ncontract CivilState {\r\n    /// @dev Include libraries codes and initialize its use in the contract\r\n    using LibConcatenateStrings for string;\r\n    using LibTransformUintString for *;\r\n    using SafeMath for uint; \r\n\r\n    /// @dev Owner address\r\n    address payable public owner;\r\n    \r\n    /// @dev Compteur du nombre d'utilisateurs registrs \r\n    uint utilisateursCount = 0;\r\n    \r\n    /// @dev Compteur du nombre d'utilisateurs hopital\r\n    uint utilisateursHopital = 0;\r\n\r\n    /// @dev Compteur du nombre d'utilisateurs prefecture\r\n    uint utilisateursPrefecture = 0;\r\n\r\n    /// @dev Compteur du nombre d'utilisateurs mairie\r\n    uint utilisateursMairie = 0;\r\n\r\n    /// @dev Compteur du nombre de citoyens\r\n    uint citoyensCount = 0;\r\n\r\n    DonneesIdentification public _donneesIdentTemp;\r\n    DonneesEtablissement public _donneesEtabTemp;\r\n\r\n    /**\r\n    * Informations d'authentifications des utilisateurs\r\n    * typ : pour dfinir si citoyen, admin, membre hpital, membre prefecture, membre mairie\r\n    * valeurs possibles typ : citoyen, admin, hopital, prefecture, mairie\r\n    */\r\n    struct Authentification {\r\n        string mdp;\r\n        string typ;\r\n    }\r\n\r\n    /**\r\n    * Donnes d'identification des membres\r\n    * de l'hopital, de la prefecture, de la mairie\r\n    *\r\n    */\r\n    struct DonneesIdentification {\r\n        string civilite;\r\n        string nom;\r\n        string prenom;\r\n        string dateNaissance;\r\n        string role;\r\n    }\r\n\r\n    /**\r\n    * Donnes de l'tablissement des membres\r\n    * de l'hopital, de la prefecture, de la mairie\r\n    *\r\n    */\r\n    struct DonneesEtablissement {\r\n        string nom;\r\n        string adresse;\r\n        string codePostale;\r\n        string ville;\r\n    }\r\n\r\n    struct DonneesMembres {\r\n        string login;\r\n        Authentification auth;\r\n        DonneesIdentification donneesIdent;\r\n        DonneesEtablissement donneesEtablissement;\r\n    }\r\n\r\n    /**\r\n    * Donnes d'identification des citoyens\r\n    */\r\n    struct DonneesIdentificationCitoyen {\r\n        string sexe;\r\n        string nomFamille;\r\n        string nomUsage;\r\n        string premierPrenom;\r\n        string autresPrenoms;\r\n        string etatCivil;\r\n    }\r\n\r\n    /**\r\n    * Donnes de naissance des citoyens\r\n    */\r\n    struct DonneesNaissanceCitoyen {\r\n        string dateNaissance;\r\n        string communeNaissance;\r\n        string departementNaissance;\r\n    }\r\n\r\n    /**\r\n    * Donnes des parents des citoyens\r\n    */\r\n    struct DonneesParentsCitoyen {\r\n        string nomFamilleMere;\r\n        string prenomMere;\r\n        string nomFamillePere;\r\n        string prenomPere;\r\n    }\r\n\r\n    struct DonneesCitoyen {\r\n        string login;\r\n        string identite;\r\n        Authentification auth;\r\n        DonneesIdentificationCitoyen donneesIdentCitoyen;\r\n        DonneesNaissanceCitoyen donneesNaissanceCitoyen;\r\n        DonneesParentsCitoyen donneesParentsCitoyen;\r\n    }            \r\n\r\n    /*\r\n    * Mapping pour le suivi des utilisateurs\r\n    * cl : string login\r\n    */\r\n    mapping (string => Authentification) utilisateurs;\r\n\r\n    /** @dev\r\n    * Mappings pour suivi des membres de l'hopital, de la prefecture et de la mairie\r\n    *\r\n    */\r\n    mapping(string => DonneesMembres) membresHopital;\r\n\r\n    mapping(string => DonneesMembres) membresPrefecture;\r\n\r\n    mapping(string => DonneesMembres) membresMairie;\r\n\r\n    /** @dev\r\n    * Mappings pour suivi des citoyens\r\n    *\r\n    */\r\n    mapping(string => DonneesCitoyen) citoyens;        \r\n\r\n    /// @dev Contract constructor sets the owner\r\n    constructor () public {\r\n        owner = msg.sender;\r\n    }   \r\n    \r\n\r\n    /**\r\n    * Read functions \r\n    */\r\n\r\n    function getTypeUtilisateur(string memory _login) public view returns(string memory _typ) {\r\n        _typ = utilisateurs[_login].typ;\r\n    }\r\n\r\n    /// @dev Gets the hospital members count.\r\n    /// @return utilisateursHopital Membres hopital count.\r\n    function getUtilisateursHopitalCount() public view returns(uint){\r\n        return utilisateursHopital;\r\n    }\r\n\r\n    /// @dev Get info membre hopital\r\n    /// @param _login Le login du membre.\r\n    /// @return _civilite\r\n    /// @return _nom\r\n    /// @return _prenom\r\n    /// @return _dateNaissance\r\n    /// @return _role\r\n    function getInfoIdentMembreHopital(string memory _login) public returns(string memory _civilite, string memory _nom, string memory _prenom, string memory _dateNaissance, string memory _role){\r\n     \r\n        _donneesIdentTemp = membresHopital[_login].donneesIdent;\r\n        _civilite = _donneesIdentTemp.civilite;\r\n        _nom = _donneesIdentTemp.nom;\r\n        _prenom = _donneesIdentTemp.prenom;\r\n        _dateNaissance = _donneesIdentTemp.dateNaissance;\r\n        _role = _donneesIdentTemp.role;\r\n    }\r\n\r\n    function getInfoEtabMembreHopital(string memory _login) public returns(string memory _nomEtab, string memory _adresseEtab, string memory _codePostaleEtab, string memory _villeEtab){\r\n     \r\n        _donneesEtabTemp = membresHopital[_login].donneesEtablissement;\r\n        _nomEtab = _donneesEtabTemp.nom;\r\n        _adresseEtab = _donneesEtabTemp.adresse;\r\n        _codePostaleEtab = _donneesEtabTemp.codePostale;\r\n        _villeEtab = _donneesEtabTemp.ville;\r\n\r\n    }\r\n\r\n    function getInfoIdentificationCitoyen (string memory _login) public view returns(string memory _sexe, \r\n    string memory _nomFamille, string memory _nomUsage, string memory _premierPrenom, \r\n    string memory _autresPrenoms, string memory _etatCivil) {\r\n         DonneesIdentificationCitoyen memory _donneesIdentificationCitoyen;\r\n        _donneesIdentificationCitoyen = citoyens[_login].donneesIdentCitoyen;\r\n\r\n        _sexe = _donneesIdentificationCitoyen.sexe;\r\n        _nomFamille = _donneesIdentificationCitoyen.nomFamille;\r\n        _nomUsage = _donneesIdentificationCitoyen.nomUsage;\r\n        _premierPrenom = _donneesIdentificationCitoyen.premierPrenom;\r\n        _autresPrenoms = _donneesIdentificationCitoyen.autresPrenoms;\r\n        _etatCivil = _donneesIdentificationCitoyen.etatCivil;\r\n\r\n    }\r\n\r\n    function getInfoNaissanceCitoyen (string memory _login) public view returns(string memory _dateNaissance, \r\n    string memory _communeNaissance, string memory _departementNaissance) {\r\n        DonneesNaissanceCitoyen memory _donneesNaissanceCitoyen;\r\n        _donneesNaissanceCitoyen = citoyens[_login].donneesNaissanceCitoyen;\r\n\r\n        _dateNaissance = _donneesNaissanceCitoyen.dateNaissance;\r\n        _communeNaissance = _donneesNaissanceCitoyen.communeNaissance;\r\n        _departementNaissance = _donneesNaissanceCitoyen.departementNaissance;\r\n\r\n    }\r\n\r\n    function getInfoParentsCitoyen (string memory _login) public view returns(string memory _nomFamilleMere,\r\n    string memory _prenomMere, string memory _nomFamillePere, string memory _prenomPere) {\r\n        DonneesParentsCitoyen memory _donneesParentsCitoyen;\r\n        _donneesParentsCitoyen = citoyens[_login].donneesParentsCitoyen;\r\n\r\n        _nomFamilleMere = _donneesParentsCitoyen.nomFamilleMere;\r\n        _prenomMere = _donneesParentsCitoyen.prenomMere;\r\n        _nomFamillePere = _donneesParentsCitoyen.nomFamillePere;\r\n        _prenomPere = _donneesParentsCitoyen.prenomPere;        \r\n    }\r\n\r\n    /**\r\n    * Write functions \r\n    */    \r\n\r\n    /// @dev Function pour ajouter un nouveau utilisateur \r\n    function addMembreHopital(string memory _civilite, string memory _nom, string memory _prenom, string memory _dateNaissance, string memory _role,\r\n    string memory _nomEtab, string memory _adresseEtab, string memory _codePostaleEtab, string memory _villeEtab) public {\r\n        DonneesIdentification memory _donneesIdent;\r\n        DonneesEtablissement memory _donneesEtab;\r\n        string memory _login = _nom;\r\n        _login = _login.concatenate(_prenom);\r\n        _login = _login.concatenate(_dateNaissance);\r\n        string memory _mdp = _login;\r\n        Authentification memory _auth;   \r\n\r\n        _donneesIdent = DonneesIdentification({\r\n            civilite: _civilite,\r\n            nom: _nom,\r\n            prenom : _prenom,\r\n            dateNaissance : _dateNaissance,\r\n            role : _role\r\n        });\r\n        \r\n        _donneesEtab = DonneesEtablissement({\r\n            nom : _nomEtab,\r\n            adresse : _adresseEtab,\r\n            codePostale : _codePostaleEtab,\r\n            ville : _villeEtab\r\n        });\r\n\r\n        _auth = Authentification({\r\n            mdp : _mdp,\r\n            typ : \"hopital\"\r\n        });\r\n        \r\n    \r\n        membresHopital[_login] = DonneesMembres({\r\n            login : _login,\r\n            auth : _auth,\r\n            donneesIdent : _donneesIdent,\r\n            donneesEtablissement : _donneesEtab\r\n        });\r\n\r\n        utilisateurs[_login] = Authentification({\r\n            mdp : _mdp,\r\n            typ : \"hopital\"\r\n        });\r\n\r\n        utilisateursHopital++;\r\n        utilisateursCount++;\r\n    }\r\n\r\n    /// @dev Function pour ajouter un nouveau citoyen \r\n    function addNaissance(string memory _sexe, string memory _nomFamille, string memory _nomUsage, string memory _premierPrenom, string memory _autresPrenoms) public {\r\n        \r\n        DonneesIdentificationCitoyen memory _donneesIdentificationCitoyen;\r\n        DonneesNaissanceCitoyen memory _donneesNaissanceCitoyen;\r\n        DonneesParentsCitoyen memory _donneesParentsCitoyen;\r\n\r\n        string memory _login = _nomFamille;\r\n        _login = _login.concatenate(_premierPrenom);\r\n        string memory _mdp = _login;\r\n        Authentification memory _auth;\r\n\r\n        _auth = Authentification({\r\n            mdp : _mdp,\r\n            typ : \"citoyen\"\r\n        });\r\n\r\n        _donneesIdentificationCitoyen = DonneesIdentificationCitoyen({\r\n            sexe : _sexe,\r\n            nomFamille : _nomFamille,\r\n            nomUsage : _nomUsage,\r\n            premierPrenom : _premierPrenom,\r\n            autresPrenoms : _autresPrenoms,\r\n            etatCivil : \"celibataire\"\r\n        });\r\n\r\n        citoyens[_login] = DonneesCitoyen({\r\n            login : _login,\r\n            identite : \"nonvalide\",\r\n            auth : _auth,\r\n            donneesIdentCitoyen : _donneesIdentificationCitoyen,\r\n            donneesNaissanceCitoyen : _donneesNaissanceCitoyen,\r\n            donneesParentsCitoyen : _donneesParentsCitoyen\r\n        });\r\n\r\n        citoyensCount++; \r\n\r\n    }\r\n\r\n    \r\n    /// @dev Function pour ajouter les donnes de naissance\r\n    function addDonneesNaissance(string memory _login, string memory _dateNaissance, string memory _communeNaissance, string memory _departementNaissance) public {\r\n        DonneesNaissanceCitoyen memory _donneesNaissanceCitoyen;\r\n\r\n        _donneesNaissanceCitoyen = DonneesNaissanceCitoyen({\r\n            dateNaissance : _dateNaissance,\r\n            communeNaissance : _communeNaissance,\r\n            departementNaissance : _departementNaissance\r\n        });\r\n\r\n        citoyens[_login].donneesNaissanceCitoyen = _donneesNaissanceCitoyen;         \r\n    }\r\n\r\n\r\n    /// @dev Function pour ajouter un nouveau citoyen \r\n    function addDonneesParents(string memory _login, string memory _nomFamilleMere, string memory _prenomMere, string memory _nomFamillePere,string memory _prenomPere) public {\r\n        DonneesParentsCitoyen memory _donneesParentsCitoyen;\r\n\r\n        _donneesParentsCitoyen = DonneesParentsCitoyen({\r\n            nomFamilleMere : _nomFamilleMere,\r\n            prenomMere : _prenomMere,\r\n            nomFamillePere : _nomFamillePere,\r\n            prenomPere : _prenomPere\r\n        });\r\n\r\n        citoyens[_login].donneesParentsCitoyen = _donneesParentsCitoyen;        \r\n    }\r\n\r\n    /// @dev Function pour vrifier identit\r\n    function verifyIdentite(string memory _login) public {\r\n        citoyens[_login].identite = \"valide\";\r\n        \r\n        Authentification memory _auth = citoyens[_login].auth;\r\n        string memory _mdp = _auth.mdp;\r\n\r\n        utilisateurs[_login] = Authentification({\r\n            mdp : _mdp,\r\n            typ : \"citoyen\"\r\n        });\r\n\r\n        utilisateursCount++;\r\n\r\n    }\r\n   \r\n\r\n}",
  "sourcePath": "C:/Users/anatereza.mascarenha/Documents/POC Etat Civil/contracts/CivilState.sol",
  "compiler": {
    "name": "solc",
    "version": "0.5.16+commit.9c3226ce.Emscripten.clang"
  },
  "schemaVersion": "3.0.22",
  "updatedAt": "2021-02-09T10:55:50.037Z",
  "networkType": "ethereum",
  "devdoc": {
    "methods": {
      "addDonneesNaissance(string,string,string,string)": {
        "details": "Function pour ajouter les donnes de naissance"
      },
      "addDonneesParents(string,string,string,string,string)": {
        "details": "Function pour ajouter un nouveau citoyen "
      },
      "addMembreHopital(string,string,string,string,string,string,string,string,string)": {
        "details": "Function pour ajouter un nouveau utilisateur "
      },
      "addNaissance(string,string,string,string,string)": {
        "details": "Function pour ajouter un nouveau citoyen "
      },
      "constructor": {
        "details": "Contract constructor sets the owner"
      },
      "getInfoIdentMembreHopital(string)": {
        "details": "Get info membre hopital",
        "params": {
          "_login": "Le login du membre."
        },
        "return": "_civilite_nom_prenom_dateNaissance_role"
      },
      "getUtilisateursHopitalCount()": {
        "details": "Gets the hospital members count.",
        "return": "utilisateursHopital Membres hopital count."
      },
      "verifyIdentite(string)": {
        "details": "Function pour vrifier identit"
      }
    },
    "title": "CivilState. "
  },
  "userdoc": {
    "methods": {
      "getTypeUtilisateur(string)": {
        "notice": "Read functions "
      }
    }
  }
}