{
  "contractName": "CivilState",
  "abi": [
    {
      "inputs": [],
      "payable": false,
      "stateMutability": "nonpayable",
      "type": "constructor"
    },
    {
      "constant": true,
      "inputs": [],
      "name": "_donneesEtabTemp",
      "outputs": [
        {
          "internalType": "string",
          "name": "nom",
          "type": "string"
        },
        {
          "internalType": "string",
          "name": "adresse",
          "type": "string"
        },
        {
          "internalType": "string",
          "name": "codePostale",
          "type": "string"
        },
        {
          "internalType": "string",
          "name": "ville",
          "type": "string"
        }
      ],
      "payable": false,
      "stateMutability": "view",
      "type": "function"
    },
    {
      "constant": true,
      "inputs": [],
      "name": "_donneesIdentTemp",
      "outputs": [
        {
          "internalType": "string",
          "name": "civilite",
          "type": "string"
        },
        {
          "internalType": "string",
          "name": "nom",
          "type": "string"
        },
        {
          "internalType": "string",
          "name": "prenom",
          "type": "string"
        },
        {
          "internalType": "string",
          "name": "dateNaissance",
          "type": "string"
        },
        {
          "internalType": "string",
          "name": "role",
          "type": "string"
        }
      ],
      "payable": false,
      "stateMutability": "view",
      "type": "function"
    },
    {
      "constant": true,
      "inputs": [],
      "name": "owner",
      "outputs": [
        {
          "internalType": "address payable",
          "name": "",
          "type": "address"
        }
      ],
      "payable": false,
      "stateMutability": "view",
      "type": "function"
    },
    {
      "constant": true,
      "inputs": [
        {
          "internalType": "string",
          "name": "_login",
          "type": "string"
        }
      ],
      "name": "getTypeUtilisateur",
      "outputs": [
        {
          "internalType": "string",
          "name": "_typ",
          "type": "string"
        }
      ],
      "payable": false,
      "stateMutability": "view",
      "type": "function"
    },
    {
      "constant": true,
      "inputs": [],
      "name": "getCitoyensCount",
      "outputs": [
        {
          "internalType": "uint256",
          "name": "",
          "type": "uint256"
        }
      ],
      "payable": false,
      "stateMutability": "view",
      "type": "function"
    },
    {
      "constant": true,
      "inputs": [
        {
          "internalType": "uint256",
          "name": "_count",
          "type": "uint256"
        }
      ],
      "name": "getLoginIdStatut",
      "outputs": [
        {
          "internalType": "string",
          "name": "_login",
          "type": "string"
        },
        {
          "internalType": "bytes4",
          "name": "_id",
          "type": "bytes4"
        },
        {
          "internalType": "bool",
          "name": "_statut",
          "type": "bool"
        }
      ],
      "payable": false,
      "stateMutability": "view",
      "type": "function"
    },
    {
      "constant": true,
      "inputs": [
        {
          "internalType": "bytes4",
          "name": "_id",
          "type": "bytes4"
        }
      ],
      "name": "getLoginFromId",
      "outputs": [
        {
          "internalType": "string",
          "name": "_login",
          "type": "string"
        }
      ],
      "payable": false,
      "stateMutability": "view",
      "type": "function"
    },
    {
      "constant": true,
      "inputs": [
        {
          "internalType": "string",
          "name": "_login",
          "type": "string"
        }
      ],
      "name": "getIdFromLogin",
      "outputs": [
        {
          "internalType": "bytes4",
          "name": "_id",
          "type": "bytes4"
        }
      ],
      "payable": false,
      "stateMutability": "view",
      "type": "function"
    },
    {
      "constant": true,
      "inputs": [],
      "name": "getUtilisateursHopitalCount",
      "outputs": [
        {
          "internalType": "uint256",
          "name": "",
          "type": "uint256"
        }
      ],
      "payable": false,
      "stateMutability": "view",
      "type": "function"
    },
    {
      "constant": false,
      "inputs": [
        {
          "internalType": "string",
          "name": "_login",
          "type": "string"
        }
      ],
      "name": "getInfoEtabMembreHopital",
      "outputs": [
        {
          "internalType": "string",
          "name": "_nomEtab",
          "type": "string"
        },
        {
          "internalType": "string",
          "name": "_adresseEtab",
          "type": "string"
        },
        {
          "internalType": "string",
          "name": "_codePostaleEtab",
          "type": "string"
        },
        {
          "internalType": "string",
          "name": "_villeEtab",
          "type": "string"
        }
      ],
      "payable": false,
      "stateMutability": "nonpayable",
      "type": "function"
    },
    {
      "constant": true,
      "inputs": [
        {
          "internalType": "string",
          "name": "_login",
          "type": "string"
        }
      ],
      "name": "getInfoIdentificationCitoyen",
      "outputs": [
        {
          "internalType": "string",
          "name": "_sexe",
          "type": "string"
        },
        {
          "internalType": "string",
          "name": "_nomFamille",
          "type": "string"
        },
        {
          "internalType": "string",
          "name": "_nomUsage",
          "type": "string"
        },
        {
          "internalType": "string",
          "name": "_premierPrenom",
          "type": "string"
        },
        {
          "internalType": "string",
          "name": "_autresPrenoms",
          "type": "string"
        },
        {
          "internalType": "string",
          "name": "_etatCivil",
          "type": "string"
        }
      ],
      "payable": false,
      "stateMutability": "view",
      "type": "function"
    },
    {
      "constant": true,
      "inputs": [
        {
          "internalType": "string",
          "name": "_login",
          "type": "string"
        }
      ],
      "name": "getInfoNaissanceCitoyen",
      "outputs": [
        {
          "internalType": "string",
          "name": "_dateNaissance",
          "type": "string"
        },
        {
          "internalType": "string",
          "name": "_communeNaissance",
          "type": "string"
        },
        {
          "internalType": "string",
          "name": "_departementNaissance",
          "type": "string"
        }
      ],
      "payable": false,
      "stateMutability": "view",
      "type": "function"
    },
    {
      "constant": true,
      "inputs": [
        {
          "internalType": "string",
          "name": "_login",
          "type": "string"
        }
      ],
      "name": "getInfoParentsCitoyen",
      "outputs": [
        {
          "internalType": "string",
          "name": "_nomFamilleMere",
          "type": "string"
        },
        {
          "internalType": "string",
          "name": "_prenomMere",
          "type": "string"
        },
        {
          "internalType": "string",
          "name": "_nomFamillePere",
          "type": "string"
        },
        {
          "internalType": "string",
          "name": "_prenomPere",
          "type": "string"
        }
      ],
      "payable": false,
      "stateMutability": "view",
      "type": "function"
    },
    {
      "constant": false,
      "inputs": [
        {
          "internalType": "string",
          "name": "_sexe",
          "type": "string"
        },
        {
          "internalType": "string",
          "name": "_nomFamille",
          "type": "string"
        },
        {
          "internalType": "string",
          "name": "_nomUsage",
          "type": "string"
        },
        {
          "internalType": "string",
          "name": "_premierPrenom",
          "type": "string"
        },
        {
          "internalType": "string",
          "name": "_autresPrenoms",
          "type": "string"
        }
      ],
      "name": "addNaissance",
      "outputs": [],
      "payable": false,
      "stateMutability": "nonpayable",
      "type": "function"
    },
    {
      "constant": false,
      "inputs": [
        {
          "internalType": "string",
          "name": "_login",
          "type": "string"
        },
        {
          "internalType": "string",
          "name": "_dateNaissance",
          "type": "string"
        },
        {
          "internalType": "string",
          "name": "_communeNaissance",
          "type": "string"
        },
        {
          "internalType": "string",
          "name": "_departementNaissance",
          "type": "string"
        }
      ],
      "name": "addDonneesNaissance",
      "outputs": [],
      "payable": false,
      "stateMutability": "nonpayable",
      "type": "function"
    },
    {
      "constant": false,
      "inputs": [
        {
          "internalType": "string",
          "name": "_login",
          "type": "string"
        },
        {
          "internalType": "string",
          "name": "_nomFamilleMere",
          "type": "string"
        },
        {
          "internalType": "string",
          "name": "_prenomMere",
          "type": "string"
        },
        {
          "internalType": "string",
          "name": "_nomFamillePere",
          "type": "string"
        },
        {
          "internalType": "string",
          "name": "_prenomPere",
          "type": "string"
        }
      ],
      "name": "addDonneesParents",
      "outputs": [],
      "payable": false,
      "stateMutability": "nonpayable",
      "type": "function"
    },
    {
      "constant": false,
      "inputs": [
        {
          "internalType": "string",
          "name": "_login",
          "type": "string"
        }
      ],
      "name": "verifyIdentite",
      "outputs": [],
      "payable": false,
      "stateMutability": "nonpayable",
      "type": "function"
    },
    {
      "constant": true,
      "inputs": [
        {
          "internalType": "string",
          "name": "_login",
          "type": "string"
        }
      ],
      "name": "getHash",
      "outputs": [
        {
          "internalType": "bytes32",
          "name": "_hash",
          "type": "bytes32"
        }
      ],
      "payable": false,
      "stateMutability": "view",
      "type": "function"
    },
    {
      "constant": true,
      "inputs": [
        {
          "internalType": "string",
          "name": "_login",
          "type": "string"
        },
        {
          "internalType": "string",
          "name": "_pwd",
          "type": "string"
        }
      ],
      "name": "verifyAuthentification",
      "outputs": [
        {
          "internalType": "string",
          "name": "_verify",
          "type": "string"
        },
        {
          "internalType": "string",
          "name": "_typ",
          "type": "string"
        }
      ],
      "payable": false,
      "stateMutability": "view",
      "type": "function"
    },
    {
      "constant": true,
      "inputs": [
        {
          "internalType": "bytes32",
          "name": "id_hash",
          "type": "bytes32"
        }
      ],
      "name": "verifyCertification",
      "outputs": [
        {
          "internalType": "string",
          "name": "_login",
          "type": "string"
        }
      ],
      "payable": false,
      "stateMutability": "view",
      "type": "function"
    },
    {
      "constant": false,
      "inputs": [
        {
          "internalType": "string",
          "name": "_login",
          "type": "string"
        },
        {
          "internalType": "string",
          "name": "_etatCivil",
          "type": "string"
        }
      ],
      "name": "declareMariage",
      "outputs": [],
      "payable": false,
      "stateMutability": "nonpayable",
      "type": "function"
    }
  ],
  "bytecode": "0x60806040526000600155600060025560006003556000600455600060055534801561002957600080fd5b50336000806101000a81548173ffffffffffffffffffffffffffffffffffffffff021916908373ffffffffffffffffffffffffffffffffffffffff16021790555061589a806200007a6000396000f3fe608060405234801561001057600080fd5b50600436106101375760003560e01c80636a78c47a116100b8578063b0c96cfb1161007c578063b0c96cfb14611a0e578063bcf6e46a14611b1b578063c606ef6614611d93578063d31a739a14611fca578063db9552f414611fe8578063e218567b1461211c57610137565b80636a78c47a146112ab5780637c770e43146114b757806383ebabaa1461157d5780638da5cb5b146117445780638e09e63c1461178e57610137565b8063229c8efa116100ff578063229c8efa14610e295780633c8beaeb1461105c5780633de79ac91461107a5780635b6beeb914611121578063676152b5146111f057610137565b806302759bb61461013c57806307569f2f1461048c5780630aba0e2014610704578063122717b714610a1b5780631d5a3b8214610b12575b600080fd5b6101f56004803603602081101561015257600080fd5b810190808035906020019064010000000081111561016f57600080fd5b82018360208201111561018157600080fd5b803590602001918460018302840111640100000000831117156101a357600080fd5b91908080601f016020809104026020016040519081016040528093929190818152602001838380828437600081840152601f19601f82011690508083019250505050505050919291929050505061226e565b6040518080602001806020018060200180602001806020018060200187810387528d818151815260200191508051906020019080838360005b8381101561024957808201518184015260208101905061022e565b50505050905090810190601f1680156102765780820380516001836020036101000a031916815260200191505b5087810386528c818151815260200191508051906020019080838360005b838110156102af578082015181840152602081019050610294565b50505050905090810190601f1680156102dc5780820380516001836020036101000a031916815260200191505b5087810385528b818151815260200191508051906020019080838360005b838110156103155780820151818401526020810190506102fa565b50505050905090810190601f1680156103425780820380516001836020036101000a031916815260200191505b5087810384528a818151815260200191508051906020019080838360005b8381101561037b578082015181840152602081019050610360565b50505050905090810190601f1680156103a85780820380516001836020036101000a031916815260200191505b50878103835289818151815260200191508051906020019080838360005b838110156103e15780820151818401526020810190506103c6565b50505050905090810190601f16801561040e5780820380516001836020036101000a031916815260200191505b50878103825288818151815260200191508051906020019080838360005b8381101561044757808201518184015260208101905061042c565b50505050905090810190601f1680156104745780820380516001836020036101000a031916815260200191505b509c5050505050505050505050505060405180910390f35b610545600480360360208110156104a257600080fd5b81019080803590602001906401000000008111156104bf57600080fd5b8201836020820111156104d157600080fd5b803590602001918460018302840111640100000000831117156104f357600080fd5b91908080601f016020809104026020016040519081016040528093929190818152602001838380828437600081840152601f19601f8201169050808301925050505050505091929192905050506126f8565b6040518080602001806020018060200180602001858103855289818151815260200191508051906020019080838360005b83811015610591578082015181840152602081019050610576565b50505050905090810190601f1680156105be5780820380516001836020036101000a031916815260200191505b50858103845288818151815260200191508051906020019080838360005b838110156105f75780820151818401526020810190506105dc565b50505050905090810190601f1680156106245780820380516001836020036101000a031916815260200191505b50858103835287818151815260200191508051906020019080838360005b8381101561065d578082015181840152602081019050610642565b50505050905090810190601f16801561068a5780820380516001836020036101000a031916815260200191505b50858103825286818151815260200191508051906020019080838360005b838110156106c35780820151818401526020810190506106a8565b50505050905090810190601f1680156106f05780820380516001836020036101000a031916815260200191505b509850505050505050505060405180910390f35b610a19600480360360a081101561071a57600080fd5b810190808035906020019064010000000081111561073757600080fd5b82018360208201111561074957600080fd5b8035906020019184600183028401116401000000008311171561076b57600080fd5b91908080601f016020809104026020016040519081016040528093929190818152602001838380828437600081840152601f19601f820116905080830192505050505050509192919290803590602001906401000000008111156107ce57600080fd5b8201836020820111156107e057600080fd5b8035906020019184600183028401116401000000008311171561080257600080fd5b91908080601f016020809104026020016040519081016040528093929190818152602001838380828437600081840152601f19601f8201169050808301925050505050505091929192908035906020019064010000000081111561086557600080fd5b82018360208201111561087757600080fd5b8035906020019184600183028401116401000000008311171561089957600080fd5b91908080601f016020809104026020016040519081016040528093929190818152602001838380828437600081840152601f19601f820116905080830192505050505050509192919290803590602001906401000000008111156108fc57600080fd5b82018360208201111561090e57600080fd5b8035906020019184600183028401116401000000008311171561093057600080fd5b91908080601f016020809104026020016040519081016040528093929190818152602001838380828437600081840152601f19601f8201169050808301925050505050505091929192908035906020019064010000000081111561099357600080fd5b8201836020820111156109a557600080fd5b803590602001918460018302840111640100000000831117156109c757600080fd5b91908080601f016020809104026020016040519081016040528093929190818152602001838380828437600081840152601f19601f820116905080830192505050505050509192919290505050612a96565b005b610a4760048036036020811015610a3157600080fd5b8101908080359060200190929190505050613198565b6040518080602001847bffffffffffffffffffffffffffffffffffffffffffffffffffffffff19167bffffffffffffffffffffffffffffffffffffffffffffffffffffffff1916815260200183151515158152602001828103825285818151815260200191508051906020019080838360005b83811015610ad5578082015181840152602081019050610aba565b50505050905090810190601f168015610b025780820380516001836020036101000a031916815260200191505b5094505050505060405180910390f35b610e27600480360360a0811015610b2857600080fd5b8101908080359060200190640100000000811115610b4557600080fd5b820183602082011115610b5757600080fd5b80359060200191846001830284011164010000000083111715610b7957600080fd5b91908080601f016020809104026020016040519081016040528093929190818152602001838380828437600081840152601f19601f82011690508083019250505050505050919291929080359060200190640100000000811115610bdc57600080fd5b820183602082011115610bee57600080fd5b80359060200191846001830284011164010000000083111715610c1057600080fd5b91908080601f016020809104026020016040519081016040528093929190818152602001838380828437600081840152601f19601f82011690508083019250505050505050919291929080359060200190640100000000811115610c7357600080fd5b820183602082011115610c8557600080fd5b80359060200191846001830284011164010000000083111715610ca757600080fd5b91908080601f016020809104026020016040519081016040528093929190818152602001838380828437600081840152601f19601f82011690508083019250505050505050919291929080359060200190640100000000811115610d0a57600080fd5b820183602082011115610d1c57600080fd5b80359060200191846001830284011164010000000083111715610d3e57600080fd5b91908080601f016020809104026020016040519081016040528093929190818152602001838380828437600081840152601f19601f82011690508083019250505050505050919291929080359060200190640100000000811115610da157600080fd5b820183602082011115610db357600080fd5b80359060200191846001830284011164010000000083111715610dd557600080fd5b91908080601f016020809104026020016040519081016040528093929190818152602001838380828437600081840152601f19601f82011690508083019250505050505050919291929050505061334a565b005b610e31613461565b60405180806020018060200180602001806020018060200186810386528b818151815260200191508051906020019080838360005b83811015610e81578082015181840152602081019050610e66565b50505050905090810190601f168015610eae5780820380516001836020036101000a031916815260200191505b5086810385528a818151815260200191508051906020019080838360005b83811015610ee7578082015181840152602081019050610ecc565b50505050905090810190601f168015610f145780820380516001836020036101000a031916815260200191505b50868103845289818151815260200191508051906020019080838360005b83811015610f4d578082015181840152602081019050610f32565b50505050905090810190601f168015610f7a5780820380516001836020036101000a031916815260200191505b50868103835288818151815260200191508051906020019080838360005b83811015610fb3578082015181840152602081019050610f98565b50505050905090810190601f168015610fe05780820380516001836020036101000a031916815260200191505b50868103825287818151815260200191508051906020019080838360005b83811015611019578082015181840152602081019050610ffe565b50505050905090810190601f1680156110465780820380516001836020036101000a031916815260200191505b509a505050505050505050505060405180910390f35b61106461377d565b6040518082815260200191505060405180910390f35b6110a66004803603602081101561109057600080fd5b8101908080359060200190929190505050613787565b6040518080602001828103825283818151815260200191508051906020019080838360005b838110156110e65780820151818401526020810190506110cb565b50505050905090810190601f1680156111135780820380516001836020036101000a031916815260200191505b509250505060405180910390f35b6111da6004803603602081101561113757600080fd5b810190808035906020019064010000000081111561115457600080fd5b82018360208201111561116657600080fd5b8035906020019184600183028401116401000000008311171561118857600080fd5b91908080601f016020809104026020016040519081016040528093929190818152602001838380828437600081840152601f19601f82011690508083019250505050505050919291929050505061383c565b6040518082815260200191505060405180910390f35b6112a96004803603602081101561120657600080fd5b810190808035906020019064010000000081111561122357600080fd5b82018360208201111561123557600080fd5b8035906020019184600183028401116401000000008311171561125757600080fd5b91908080601f016020809104026020016040519081016040528093929190818152602001838380828437600081840152601f19601f8201169050808301925050505050505091929192905050506138b2565b005b611364600480360360208110156112c157600080fd5b81019080803590602001906401000000008111156112de57600080fd5b8201836020820111156112f057600080fd5b8035906020019184600183028401116401000000008311171561131257600080fd5b91908080601f016020809104026020016040519081016040528093929190818152602001838380828437600081840152601f19601f82011690508083019250505050505050919291929050505061428a565b60405180806020018060200180602001848103845287818151815260200191508051906020019080838360005b838110156113ac578082015181840152602081019050611391565b50505050905090810190601f1680156113d95780820380516001836020036101000a031916815260200191505b50848103835286818151815260200191508051906020019080838360005b838110156114125780820151818401526020810190506113f7565b50505050905090810190601f16801561143f5780820380516001836020036101000a031916815260200191505b50848103825285818151815260200191508051906020019080838360005b8381101561147857808201518184015260208101905061145d565b50505050905090810190601f1680156114a55780820380516001836020036101000a031916815260200191505b50965050505050505060405180910390f35b611502600480360360208110156114cd57600080fd5b8101908080357bffffffffffffffffffffffffffffffffffffffffffffffffffffffff19169060200190929190505050614513565b6040518080602001828103825283818151815260200191508051906020019080838360005b83811015611542578082015181840152602081019050611527565b50505050905090810190601f16801561156f5780820380516001836020036101000a031916815260200191505b509250505060405180910390f35b611585614606565b6040518080602001806020018060200180602001858103855289818151815260200191508051906020019080838360005b838110156115d15780820151818401526020810190506115b6565b50505050905090810190601f1680156115fe5780820380516001836020036101000a031916815260200191505b50858103845288818151815260200191508051906020019080838360005b8381101561163757808201518184015260208101905061161c565b50505050905090810190601f1680156116645780820380516001836020036101000a031916815260200191505b50858103835287818151815260200191508051906020019080838360005b8381101561169d578082015181840152602081019050611682565b50505050905090810190601f1680156116ca5780820380516001836020036101000a031916815260200191505b50858103825286818151815260200191508051906020019080838360005b838110156117035780820151818401526020810190506116e8565b50505050905090810190601f1680156117305780820380516001836020036101000a031916815260200191505b509850505050505050505060405180910390f35b61174c614884565b604051808273ffffffffffffffffffffffffffffffffffffffff1673ffffffffffffffffffffffffffffffffffffffff16815260200191505060405180910390f35b611a0c600480360360808110156117a457600080fd5b81019080803590602001906401000000008111156117c157600080fd5b8201836020820111156117d357600080fd5b803590602001918460018302840111640100000000831117156117f557600080fd5b91908080601f016020809104026020016040519081016040528093929190818152602001838380828437600081840152601f19601f8201169050808301925050505050505091929192908035906020019064010000000081111561185857600080fd5b82018360208201111561186a57600080fd5b8035906020019184600183028401116401000000008311171561188c57600080fd5b91908080601f016020809104026020016040519081016040528093929190818152602001838380828437600081840152601f19601f820116905080830192505050505050509192919290803590602001906401000000008111156118ef57600080fd5b82018360208201111561190157600080fd5b8035906020019184600183028401116401000000008311171561192357600080fd5b91908080601f016020809104026020016040519081016040528093929190818152602001838380828437600081840152601f19601f8201169050808301925050505050505091929192908035906020019064010000000081111561198657600080fd5b82018360208201111561199857600080fd5b803590602001918460018302840111640100000000831117156119ba57600080fd5b91908080601f016020809104026020016040519081016040528093929190818152602001838380828437600081840152601f19601f8201169050808301925050505050505091929192905050506148a9565b005b611ac760048036036020811015611a2457600080fd5b8101908080359060200190640100000000811115611a4157600080fd5b820183602082011115611a5357600080fd5b80359060200191846001830284011164010000000083111715611a7557600080fd5b91908080601f016020809104026020016040519081016040528093929190818152602001838380828437600081840152601f19601f82011690508083019250505050505050919291929050505061499c565b60405180827bffffffffffffffffffffffffffffffffffffffffffffffffffffffff19167bffffffffffffffffffffffffffffffffffffffffffffffffffffffff1916815260200191505060405180910390f35b611bd460048036036020811015611b3157600080fd5b8101908080359060200190640100000000811115611b4e57600080fd5b820183602082011115611b6057600080fd5b80359060200191846001830284011164010000000083111715611b8257600080fd5b91908080601f016020809104026020016040519081016040528093929190818152602001838380828437600081840152601f19601f820116905080830192505050505050509192919290505050614a1f565b6040518080602001806020018060200180602001858103855289818151815260200191508051906020019080838360005b83811015611c20578082015181840152602081019050611c05565b50505050905090810190601f168015611c4d5780820380516001836020036101000a031916815260200191505b50858103845288818151815260200191508051906020019080838360005b83811015611c86578082015181840152602081019050611c6b565b50505050905090810190601f168015611cb35780820380516001836020036101000a031916815260200191505b50858103835287818151815260200191508051906020019080838360005b83811015611cec578082015181840152602081019050611cd1565b50505050905090810190601f168015611d195780820380516001836020036101000a031916815260200191505b50858103825286818151815260200191508051906020019080838360005b83811015611d52578082015181840152602081019050611d37565b50505050905090810190601f168015611d7f5780820380516001836020036101000a031916815260200191505b509850505050505050505060405180910390f35b611ee360048036036040811015611da957600080fd5b8101908080359060200190640100000000811115611dc657600080fd5b820183602082011115611dd857600080fd5b80359060200191846001830284011164010000000083111715611dfa57600080fd5b91908080601f016020809104026020016040519081016040528093929190818152602001838380828437600081840152601f19601f82011690508083019250505050505050919291929080359060200190640100000000811115611e5d57600080fd5b820183602082011115611e6f57600080fd5b80359060200191846001830284011164010000000083111715611e9157600080fd5b91908080601f016020809104026020016040519081016040528093929190818152602001838380828437600081840152601f19601f820116905080830192505050505050509192919290505050614d52565b604051808060200180602001838103835285818151815260200191508051906020019080838360005b83811015611f27578082015181840152602081019050611f0c565b50505050905090810190601f168015611f545780820380516001836020036101000a031916815260200191505b50838103825284818151815260200191508051906020019080838360005b83811015611f8d578082015181840152602081019050611f72565b50505050905090810190601f168015611fba5780820380516001836020036101000a031916815260200191505b5094505050505060405180910390f35b611fd2614f8c565b6040518082815260200191505060405180910390f35b6120a160048036036020811015611ffe57600080fd5b810190808035906020019064010000000081111561201b57600080fd5b82018360208201111561202d57600080fd5b8035906020019184600183028401116401000000008311171561204f57600080fd5b91908080601f016020809104026020016040519081016040528093929190818152602001838380828437600081840152601f19601f820116905080830192505050505050509192919290505050614f96565b6040518080602001828103825283818151815260200191508051906020019080838360005b838110156120e15780820151818401526020810190506120c6565b50505050905090810190601f16801561210e5780820380516001836020036101000a031916815260200191505b509250505060405180910390f35b61226c6004803603604081101561213257600080fd5b810190808035906020019064010000000081111561214f57600080fd5b82018360208201111561216157600080fd5b8035906020019184600183028401116401000000008311171561218357600080fd5b91908080601f016020809104026020016040519081016040528093929190818152602001838380828437600081840152601f19601f820116905080830192505050505050509192919290803590602001906401000000008111156121e657600080fd5b8201836020820111156121f857600080fd5b8035906020019184600183028401116401000000008311171561221a57600080fd5b91908080601f016020809104026020016040519081016040528093929190818152602001838380828437600081840152601f19601f8201169050808301925050505050505091929192905050506150a4565b005b60608060608060608061227f61561d565b6013886040518082805190602001908083835b602083106122b55780518252602082019150602081019050602083039250612292565b6001836020036101000a03801982511681845116808217855250505050505090500191505090815260200160405180910390206005016040518060c0016040529081600082018054600181600116156101000203166002900480601f01602080910402602001604051908101604052809291908181526020018280546001816001161561010002031660029004801561238f5780601f106123645761010080835404028352916020019161238f565b820191906000526020600020905b81548152906001019060200180831161237257829003601f168201915b50505050508152602001600182018054600181600116156101000203166002900480601f0160208091040260200160405190810160405280929190818152602001828054600181600116156101000203166002900480156124315780601f1061240657610100808354040283529160200191612431565b820191906000526020600020905b81548152906001019060200180831161241457829003601f168201915b50505050508152602001600282018054600181600116156101000203166002900480601f0160208091040260200160405190810160405280929190818152602001828054600181600116156101000203166002900480156124d35780601f106124a8576101008083540402835291602001916124d3565b820191906000526020600020905b8154815290600101906020018083116124b657829003601f168201915b50505050508152602001600382018054600181600116156101000203166002900480601f0160208091040260200160405190810160405280929190818152602001828054600181600116156101000203166002900480156125755780601f1061254a57610100808354040283529160200191612575565b820191906000526020600020905b81548152906001019060200180831161255857829003601f168201915b50505050508152602001600482018054600181600116156101000203166002900480601f0160208091040260200160405190810160405280929190818152602001828054600181600116156101000203166002900480156126175780601f106125ec57610100808354040283529160200191612617565b820191906000526020600020905b8154815290600101906020018083116125fa57829003601f168201915b50505050508152602001600582018054600181600116156101000203166002900480601f0160208091040260200160405190810160405280929190818152602001828054600181600116156101000203166002900480156126b95780601f1061268e576101008083540402835291602001916126b9565b820191906000526020600020905b81548152906001019060200180831161269c57829003601f168201915b505050505081525050905080600001519650806020015195508060400151945080606001519350806080015192508060a0015191505091939550919395565b6060806060806010856040518082805190602001908083835b602083106127345780518252602082019150602081019050602083039250612711565b6001836020036101000a0380198251168184511680821785525050505050509050019150509081526020016040518091039020600801600b60008201816000019080546001816001161561010002031660029004612793929190615653565b50600182018160010190805460018160011615610100020316600290046127bb929190615653565b50600282018160020190805460018160011615610100020316600290046127e3929190615653565b506003820181600301908054600181600116156101000203166002900461280b929190615653565b50905050600b6000018054600181600116156101000203166002900480601f0160208091040260200160405190810160405280929190818152602001828054600181600116156101000203166002900480156128a85780601f1061287d576101008083540402835291602001916128a8565b820191906000526020600020905b81548152906001019060200180831161288b57829003601f168201915b50505050509350600b6001018054600181600116156101000203166002900480601f0160208091040260200160405190810160405280929190818152602001828054600181600116156101000203166002900480156129485780601f1061291d57610100808354040283529160200191612948565b820191906000526020600020905b81548152906001019060200180831161292b57829003601f168201915b50505050509250600b6002018054600181600116156101000203166002900480601f0160208091040260200160405190810160405280929190818152602001828054600181600116156101000203166002900480156129e85780601f106129bd576101008083540402835291602001916129e8565b820191906000526020600020905b8154815290600101906020018083116129cb57829003601f168201915b50505050509150600b6003018054600181600116156101000203166002900480601f016020809104026020016040519081016040528092919081815260200182805460018160011615610100020316600290048015612a885780601f10612a5d57610100808354040283529160200191612a88565b820191906000526020600020905b815481529060010190602001808311612a6b57829003601f168201915b505050505090509193509193565b612a9e61561d565b612aa66156da565b612aae6156fb565b60608790508073__LibConcatenateStrings_________________63266001d39091886040518363ffffffff1660e01b8152600401808060200180602001838103835285818151815260200191508051906020019080838360005b83811015612b24578082015181840152602081019050612b09565b50505050905090810190601f168015612b515780820380516001836020036101000a031916815260200191505b50838103825284818151815260200191508051906020019080838360005b83811015612b8a578082015181840152602081019050612b6f565b50505050905090810190601f168015612bb75780820380516001836020036101000a031916815260200191505b5094505050505060006040518083038186803b158015612bd657600080fd5b505af4158015612bea573d6000803e3d6000fd5b505050506040513d6000823e3d601f19601f820116820180604052506020811015612c1457600080fd5b8101908080516040519392919084640100000000821115612c3457600080fd5b83820191506020820185811115612c4a57600080fd5b8251866001820283011164010000000082111715612c6757600080fd5b8083526020830192505050908051906020019080838360005b83811015612c9b578082015181840152602081019050612c80565b50505050905090810190601f168015612cc85780820380516001836020036101000a031916815260200191505b5060405250505090506060819050600081805190602001209050612cea615723565b60006040518060400160405280600981526020017f6e61697373616e6365000000000000000000000000000000000000000000000081525080519060200120905060008580519060200120905060405180604001604052808581526020016040518060400160405280600781526020017f6369746f79656e0000000000000000000000000000000000000000000000000081525081525092506040518060c001604052808f81526020018e81526020018d81526020018c81526020018b81526020016040518060400160405280600b81526020017f43454c49424154414952450000000000000000000000000000000000000000008152508152509850604051806101000160405280878152602001600015158152602001827bffffffffffffffffffffffffffffffffffffffffffffffffffffffff191681526020018381526020018481526020018a8152602001898152602001888152506013876040518082805190602001908083835b60208310612e795780518252602082019150602081019050602083039250612e56565b6001836020036101000a03801982511681845116808217855250505050505090500191505090815260200160405180910390206000820151816000019080519060200190612ec8929190615740565b5060208201518160010160006101000a81548160ff02191690831515021790555060408201518160010160016101000a81548163ffffffff021916908360e01c021790555060608201518160020155608082015181600301600082015181600001556020820151816001019080519060200190612f46929190615740565b50505060a0820151816005016000820151816000019080519060200190612f6e929190615740565b506020820151816001019080519060200190612f8b929190615740565b506040820151816002019080519060200190612fa8929190615740565b506060820151816003019080519060200190612fc5929190615740565b506080820151816004019080519060200190612fe2929190615740565b5060a0820151816005019080519060200190612fff929190615740565b50505060c082015181600b016000820151816000019080519060200190613027929190615740565b506020820151816001019080519060200190613044929190615740565b506040820151816002019080519060200190613061929190615740565b50505060e082015181600e016000820151816000019080519060200190613089929190615740565b5060208201518160010190805190602001906130a6929190615740565b5060408201518160020190805190602001906130c3929190615740565b5060608201518160030190805190602001906130e0929190615740565b50505090505085601460006005548152602001908152602001600020908051906020019061310f9291906157c0565b508560156000837bffffffffffffffffffffffffffffffffffffffffffffffffffffffff19167bffffffffffffffffffffffffffffffffffffffffffffffffffffffff1916815260200190815260200160002090805190602001906131759291906157c0565b506005600081548092919060010191905055505050505050505050505050505050565b6060600080601460008581526020019081526020016000208054600181600116156101000203166002900480601f0160208091040260200160405190810160405280929190818152602001828054600181600116156101000203166002900480156132445780601f1061321957610100808354040283529160200191613244565b820191906000526020600020905b81548152906001019060200180831161322757829003601f168201915b505050505092506013836040518082805190602001908083835b60208310613281578051825260208201915060208101905060208303925061325e565b6001836020036101000a038019825116818451168082178552505050505050905001915050908152602001604051809103902060010160019054906101000a900460e01b91506013836040518082805190602001908083835b602083106132fd57805182526020820191506020810190506020830392506132da565b6001836020036101000a038019825116818451168082178552505050505050905001915050908152602001604051809103902060010160009054906101000a900460ff1690509193909250565b6133526156fb565b6040518060800160405280868152602001858152602001848152602001838152509050806013876040518082805190602001908083835b602083106133ac5780518252602082019150602081019050602083039250613389565b6001836020036101000a0380198251168184511680821785525050505050509050019150509081526020016040518091039020600e0160008201518160000190805190602001906133fe929190615740565b50602082015181600101908051906020019061341b929190615740565b506040820151816002019080519060200190613438929190615740565b506060820151816003019080519060200190613455929190615740565b50905050505050505050565b6006806000018054600181600116156101000203166002900480601f0160208091040260200160405190810160405280929190818152602001828054600181600116156101000203166002900480156134fb5780601f106134d0576101008083540402835291602001916134fb565b820191906000526020600020905b8154815290600101906020018083116134de57829003601f168201915b505050505090806001018054600181600116156101000203166002900480601f0160208091040260200160405190810160405280929190818152602001828054600181600116156101000203166002900480156135995780601f1061356e57610100808354040283529160200191613599565b820191906000526020600020905b81548152906001019060200180831161357c57829003601f168201915b505050505090806002018054600181600116156101000203166002900480601f0160208091040260200160405190810160405280929190818152602001828054600181600116156101000203166002900480156136375780601f1061360c57610100808354040283529160200191613637565b820191906000526020600020905b81548152906001019060200180831161361a57829003601f168201915b505050505090806003018054600181600116156101000203166002900480601f0160208091040260200160405190810160405280929190818152602001828054600181600116156101000203166002900480156136d55780601f106136aa576101008083540402835291602001916136d5565b820191906000526020600020905b8154815290600101906020018083116136b857829003601f168201915b505050505090806004018054600181600116156101000203166002900480601f0160208091040260200160405190810160405280929190818152602001828054600181600116156101000203166002900480156137735780601f1061374857610100808354040283529160200191613773565b820191906000526020600020905b81548152906001019060200180831161375657829003601f168201915b5050505050905085565b6000600554905090565b6060601660008381526020019081526020016000208054600181600116156101000203166002900480601f0160208091040260200160405190810160405280929190818152602001828054600181600116156101000203166002900480156138305780601f1061380557610100808354040283529160200191613830565b820191906000526020600020905b81548152906001019060200180831161381357829003601f168201915b50505050509050919050565b60006013826040518082805190602001908083835b602083106138745780518252602082019150602081019050602083039250613851565b6001836020036101000a0380198251168184511680821785525050505050509050019150509081526020016040518091039020600201549050919050565b6138ba61561d565b60016013836040518082805190602001908083835b602083106138f257805182526020820191506020810190506020830392506138cf565b6001836020036101000a038019825116818451168082178552505050505050905001915050908152602001604051809103902060010160006101000a81548160ff021916908315150217905550613947615723565b6013836040518082805190602001908083835b6020831061397d578051825260208201915060208101905060208303925061395a565b6001836020036101000a038019825116818451168082178552505050505050905001915050908152602001604051809103902060030160405180604001604052908160008201548152602001600182018054600181600116156101000203166002900480601f016020809104026020016040519081016040528092919081815260200182805460018160011615610100020316600290048015613a615780601f10613a3657610100808354040283529160200191613a61565b820191906000526020600020905b815481529060010190602001808311613a4457829003601f168201915b50505050508152505090506000816000015190506013846040518082805190602001908083835b60208310613aab5780518252602082019150602081019050602083039250613a88565b6001836020036101000a03801982511681845116808217855250505050505090500191505090815260200160405180910390206005016040518060c0016040529081600082018054600181600116156101000203166002900480601f016020809104026020016040519081016040528092919081815260200182805460018160011615610100020316600290048015613b855780601f10613b5a57610100808354040283529160200191613b85565b820191906000526020600020905b815481529060010190602001808311613b6857829003601f168201915b50505050508152602001600182018054600181600116156101000203166002900480601f016020809104026020016040519081016040528092919081815260200182805460018160011615610100020316600290048015613c275780601f10613bfc57610100808354040283529160200191613c27565b820191906000526020600020905b815481529060010190602001808311613c0a57829003601f168201915b50505050508152602001600282018054600181600116156101000203166002900480601f016020809104026020016040519081016040528092919081815260200182805460018160011615610100020316600290048015613cc95780601f10613c9e57610100808354040283529160200191613cc9565b820191906000526020600020905b815481529060010190602001808311613cac57829003601f168201915b50505050508152602001600382018054600181600116156101000203166002900480601f016020809104026020016040519081016040528092919081815260200182805460018160011615610100020316600290048015613d6b5780601f10613d4057610100808354040283529160200191613d6b565b820191906000526020600020905b815481529060010190602001808311613d4e57829003601f168201915b50505050508152602001600482018054600181600116156101000203166002900480601f016020809104026020016040519081016040528092919081815260200182805460018160011615610100020316600290048015613e0d5780601f10613de257610100808354040283529160200191613e0d565b820191906000526020600020905b815481529060010190602001808311613df057829003601f168201915b50505050508152602001600582018054600181600116156101000203166002900480601f016020809104026020016040519081016040528092919081815260200182805460018160011615610100020316600290048015613eaf5780601f10613e8457610100808354040283529160200191613eaf565b820191906000526020600020905b815481529060010190602001808311613e9257829003601f168201915b505050505081525050925060608360200151905060608460600151905060608273__LibConcatenateStrings_________________63266001d39091846040518363ffffffff1660e01b8152600401808060200180602001838103835285818151815260200191508051906020019080838360005b83811015613f3f578082015181840152602081019050613f24565b50505050905090810190601f168015613f6c5780820380516001836020036101000a031916815260200191505b50838103825284818151815260200191508051906020019080838360005b83811015613fa5578082015181840152602081019050613f8a565b50505050905090810190601f168015613fd25780820380516001836020036101000a031916815260200191505b5094505050505060006040518083038186803b158015613ff157600080fd5b505af4158015614005573d6000803e3d6000fd5b505050506040513d6000823e3d601f19601f82011682018060405250602081101561402f57600080fd5b810190808051604051939291908464010000000082111561404f57600080fd5b8382019150602082018581111561406557600080fd5b825186600182028301116401000000008211171561408257600080fd5b8083526020830192505050908051906020019080838360005b838110156140b657808201518184015260208101905061409b565b50505050905090810190601f1680156140e35780820380516001836020036101000a031916815260200191505b506040525050509050600081805190602001209050806013896040518082805190602001908083835b6020831061412f578051825260208201915060208101905060208303925061410c565b6001836020036101000a038019825116818451168082178552505050505050905001915050908152602001604051809103902060020181905550876016600083815260200190815260200160002090805190602001906141909291906157c0565b5060405180604001604052808681526020016040518060400160405280600781526020017f6369746f79656e00000000000000000000000000000000000000000000000000815250815250600f896040518082805190602001908083835b6020831061421157805182526020820191506020810190506020830392506141ee565b6001836020036101000a038019825116818451168082178552505050505050905001915050908152602001604051809103902060008201518160000155602082015181600101908051906020019061426a929190615740565b509050506001600081548092919060010191905055505050505050505050565b60608060606142976156da565b6013856040518082805190602001908083835b602083106142cd57805182526020820191506020810190506020830392506142aa565b6001836020036101000a0380198251168184511680821785525050505050509050019150509081526020016040518091039020600b01604051806060016040529081600082018054600181600116156101000203166002900480601f0160208091040260200160405190810160405280929190818152602001828054600181600116156101000203166002900480156143a75780601f1061437c576101008083540402835291602001916143a7565b820191906000526020600020905b81548152906001019060200180831161438a57829003601f168201915b50505050508152602001600182018054600181600116156101000203166002900480601f0160208091040260200160405190810160405280929190818152602001828054600181600116156101000203166002900480156144495780601f1061441e57610100808354040283529160200191614449565b820191906000526020600020905b81548152906001019060200180831161442c57829003601f168201915b50505050508152602001600282018054600181600116156101000203166002900480601f0160208091040260200160405190810160405280929190818152602001828054600181600116156101000203166002900480156144eb5780601f106144c0576101008083540402835291602001916144eb565b820191906000526020600020905b8154815290600101906020018083116144ce57829003601f168201915b5050505050815250509050806000015193508060200151925080604001519150509193909250565b606060156000837bffffffffffffffffffffffffffffffffffffffffffffffffffffffff19167bffffffffffffffffffffffffffffffffffffffffffffffffffffffff191681526020019081526020016000208054600181600116156101000203166002900480601f0160208091040260200160405190810160405280929190818152602001828054600181600116156101000203166002900480156145fa5780601f106145cf576101008083540402835291602001916145fa565b820191906000526020600020905b8154815290600101906020018083116145dd57829003601f168201915b50505050509050919050565b600b806000018054600181600116156101000203166002900480601f0160208091040260200160405190810160405280929190818152602001828054600181600116156101000203166002900480156146a05780601f10614675576101008083540402835291602001916146a0565b820191906000526020600020905b81548152906001019060200180831161468357829003601f168201915b505050505090806001018054600181600116156101000203166002900480601f01602080910402602001604051908101604052809291908181526020018280546001816001161561010002031660029004801561473e5780601f106147135761010080835404028352916020019161473e565b820191906000526020600020905b81548152906001019060200180831161472157829003601f168201915b505050505090806002018054600181600116156101000203166002900480601f0160208091040260200160405190810160405280929190818152602001828054600181600116156101000203166002900480156147dc5780601f106147b1576101008083540402835291602001916147dc565b820191906000526020600020905b8154815290600101906020018083116147bf57829003601f168201915b505050505090806003018054600181600116156101000203166002900480601f01602080910402602001604051908101604052809291908181526020018280546001816001161561010002031660029004801561487a5780601f1061484f5761010080835404028352916020019161487a565b820191906000526020600020905b81548152906001019060200180831161485d57829003601f168201915b5050505050905084565b6000809054906101000a900473ffffffffffffffffffffffffffffffffffffffff1681565b6148b16156da565b6040518060600160405280858152602001848152602001838152509050806013866040518082805190602001908083835b6020831061490557805182526020820191506020810190506020830392506148e2565b6001836020036101000a0380198251168184511680821785525050505050509050019150509081526020016040518091039020600b016000820151816000019080519060200190614957929190615740565b506020820151816001019080519060200190614974929190615740565b506040820151816002019080519060200190614991929190615740565b509050505050505050565b60006013826040518082805190602001908083835b602083106149d457805182526020820191506020810190506020830392506149b1565b6001836020036101000a038019825116818451168082178552505050505050905001915050908152602001604051809103902060010160019054906101000a900460e01b9050919050565b606080606080614a2d6156fb565b6013866040518082805190602001908083835b60208310614a635780518252602082019150602081019050602083039250614a40565b6001836020036101000a0380198251168184511680821785525050505050509050019150509081526020016040518091039020600e01604051806080016040529081600082018054600181600116156101000203166002900480601f016020809104026020016040519081016040528092919081815260200182805460018160011615610100020316600290048015614b3d5780601f10614b1257610100808354040283529160200191614b3d565b820191906000526020600020905b815481529060010190602001808311614b2057829003601f168201915b50505050508152602001600182018054600181600116156101000203166002900480601f016020809104026020016040519081016040528092919081815260200182805460018160011615610100020316600290048015614bdf5780601f10614bb457610100808354040283529160200191614bdf565b820191906000526020600020905b815481529060010190602001808311614bc257829003601f168201915b50505050508152602001600282018054600181600116156101000203166002900480601f016020809104026020016040519081016040528092919081815260200182805460018160011615610100020316600290048015614c815780601f10614c5657610100808354040283529160200191614c81565b820191906000526020600020905b815481529060010190602001808311614c6457829003601f168201915b50505050508152602001600382018054600181600116156101000203166002900480601f016020809104026020016040519081016040528092919081815260200182805460018160011615610100020316600290048015614d235780601f10614cf857610100808354040283529160200191614d23565b820191906000526020600020905b815481529060010190602001808311614d0657829003601f168201915b505050505081525050905080600001519450806020015193508060400151925080606001519150509193509193565b6060808280519060200120600f856040518082805190602001908083835b60208310614d935780518252602082019150602081019050602083039250614d70565b6001836020036101000a0380198251168184511680821785525050505050509050019150509081526020016040518091039020600001541415614f14576040518060400160405280600281526020017f6f6b0000000000000000000000000000000000000000000000000000000000008152509150600f846040518082805190602001908083835b60208310614e3e5780518252602082019150602081019050602083039250614e1b565b6001836020036101000a03801982511681845116808217855250505050505090500191505090815260200160405180910390206001018054600181600116156101000203166002900480601f016020809104026020016040519081016040528092919081815260200182805460018160011615610100020316600290048015614f085780601f10614edd57610100808354040283529160200191614f08565b820191906000526020600020905b815481529060010190602001808311614eeb57829003601f168201915b50505050509050614f85565b6040518060400160405280600281526020017f6b6f00000000000000000000000000000000000000000000000000000000000081525091506040518060400160405280600481526020017f4e554c4c0000000000000000000000000000000000000000000000000000000081525090505b9250929050565b6000600254905090565b6060600f826040518082805190602001908083835b60208310614fce5780518252602082019150602081019050602083039250614fab565b6001836020036101000a03801982511681845116808217855250505050505090500191505090815260200160405180910390206001018054600181600116156101000203166002900480601f0160208091040260200160405190810160405280929190818152602001828054600181600116156101000203166002900480156150985780601f1061506d57610100808354040283529160200191615098565b820191906000526020600020905b81548152906001019060200180831161507b57829003601f168201915b50505050509050919050565b6150ac61561d565b6013836040518082805190602001908083835b602083106150e257805182526020820191506020810190506020830392506150bf565b6001836020036101000a03801982511681845116808217855250505050505090500191505090815260200160405180910390206005016040518060c0016040529081600082018054600181600116156101000203166002900480601f0160208091040260200160405190810160405280929190818152602001828054600181600116156101000203166002900480156151bc5780601f10615191576101008083540402835291602001916151bc565b820191906000526020600020905b81548152906001019060200180831161519f57829003601f168201915b50505050508152602001600182018054600181600116156101000203166002900480601f01602080910402602001604051908101604052809291908181526020018280546001816001161561010002031660029004801561525e5780601f106152335761010080835404028352916020019161525e565b820191906000526020600020905b81548152906001019060200180831161524157829003601f168201915b50505050508152602001600282018054600181600116156101000203166002900480601f0160208091040260200160405190810160405280929190818152602001828054600181600116156101000203166002900480156153005780601f106152d557610100808354040283529160200191615300565b820191906000526020600020905b8154815290600101906020018083116152e357829003601f168201915b50505050508152602001600382018054600181600116156101000203166002900480601f0160208091040260200160405190810160405280929190818152602001828054600181600116156101000203166002900480156153a25780601f10615377576101008083540402835291602001916153a2565b820191906000526020600020905b81548152906001019060200180831161538557829003601f168201915b50505050508152602001600482018054600181600116156101000203166002900480601f0160208091040260200160405190810160405280929190818152602001828054600181600116156101000203166002900480156154445780601f1061541957610100808354040283529160200191615444565b820191906000526020600020905b81548152906001019060200180831161542757829003601f168201915b50505050508152602001600582018054600181600116156101000203166002900480601f0160208091040260200160405190810160405280929190818152602001828054600181600116156101000203166002900480156154e65780601f106154bb576101008083540402835291602001916154e6565b820191906000526020600020905b8154815290600101906020018083116154c957829003601f168201915b5050505050815250509050818160a00181905250806013846040518082805190602001908083835b60208310615531578051825260208201915060208101905060208303925061550e565b6001836020036101000a03801982511681845116808217855250505050505090500191505090815260200160405180910390206005016000820151816000019080519060200190615583929190615740565b5060208201518160010190805190602001906155a0929190615740565b5060408201518160020190805190602001906155bd929190615740565b5060608201518160030190805190602001906155da929190615740565b5060808201518160040190805190602001906155f7929190615740565b5060a0820151816005019080519060200190615614929190615740565b50905050505050565b6040518060c001604052806060815260200160608152602001606081526020016060815260200160608152602001606081525090565b828054600181600116156101000203166002900490600052602060002090601f016020900481019282601f1061568c57805485556156c9565b828001600101855582156156c957600052602060002091601f016020900482015b828111156156c85782548255916001019190600101906156ad565b5b5090506156d69190615840565b5090565b60405180606001604052806060815260200160608152602001606081525090565b6040518060800160405280606081526020016060815260200160608152602001606081525090565b604051806040016040528060008019168152602001606081525090565b828054600181600116156101000203166002900490600052602060002090601f016020900481019282601f1061578157805160ff19168380011785556157af565b828001600101855582156157af579182015b828111156157ae578251825591602001919060010190615793565b5b5090506157bc9190615840565b5090565b828054600181600116156101000203166002900490600052602060002090601f016020900481019282601f1061580157805160ff191683800117855561582f565b8280016001018555821561582f579182015b8281111561582e578251825591602001919060010190615813565b5b50905061583c9190615840565b5090565b61586291905b8082111561585e576000816000905550600101615846565b5090565b9056fea265627a7a72315820eb9501f04a33e26768f1c89e38bd5da3e6a9a061c04ea2163931c11f2531145a64736f6c63430005100032",
  "source": "// SPDX-License-Identifier: MIT\r\npragma solidity >=0.4.21 <0.8.0;\r\n\r\n/* \r\n* Libraries needed in the contract 'Civil State' contract\r\n*/\r\n/** @title LibConcatenateStrings. */\r\n/// @dev Library with a function for concatenating strings\r\nimport {LibConcatenateStrings} from './LibConcatenateStrings.sol';\r\n/** @title LibTransformUintString. */\r\n/// @dev Library with a function to transform an 'uint' in a 'string\r\nimport {LibTransformUintString} from './LibTransformUintString.sol';\r\n/** @title SafeMath. */\r\n/** \r\n * @dev Library with functions to realize arithmetic operations with overflow checks\r\n *\r\n * Contract collection retrieved from : https://github.com/OpenZeppelin/openzeppelin-contracts/blob/master/contracts/math/SafeMath.sol\r\n *\r\n*/\r\nimport {SafeMath} from './SafeMath.sol';\r\n\r\n/** @title CivilState. */\r\ncontract CivilState {\r\n    /// @dev Include libraries codes and initialize its use in the contract\r\n    using LibConcatenateStrings for string;\r\n    using LibTransformUintString for *;\r\n    using SafeMath for uint; \r\n\r\n    /// @dev Owner address\r\n    address payable public owner;\r\n    \r\n    /// @dev Compteur du nombre d'utilisateurs registrs \r\n    uint utilisateursCount = 0;\r\n    \r\n    /// @dev Compteur du nombre d'utilisateurs hopital\r\n    uint utilisateursHopital = 0;\r\n\r\n    /// @dev Compteur du nombre d'utilisateurs prefecture\r\n    uint utilisateursPrefecture = 0;\r\n\r\n    /// @dev Compteur du nombre d'utilisateurs mairie\r\n    uint utilisateursMairie = 0;\r\n\r\n    /// @dev Compteur du nombre de citoyens\r\n    uint citoyensCount = 0;\r\n\r\n    DonneesIdentification public _donneesIdentTemp;\r\n    DonneesEtablissement public _donneesEtabTemp;\r\n\r\n    /**\r\n    * Informations d'authentifications des utilisateurs\r\n    * typ : pour dfinir si citoyen, admin, membre hpital, membre prefecture, membre mairie\r\n    * valeurs possibles typ : citoyen, admin, hopital, prefecture, mairie\r\n    */\r\n    struct Authentification {\r\n        bytes32 mdp;\r\n        string typ;\r\n    }\r\n\r\n    /**\r\n    * Donnes d'identification des membres\r\n    * de l'hopital, de la prefecture, de la mairie\r\n    *\r\n    */\r\n    struct DonneesIdentification {\r\n        string civilite;\r\n        string nom;\r\n        string prenom;\r\n        string dateNaissance;\r\n        string role;\r\n    }\r\n\r\n    /**\r\n    * Donnes de l'tablissement des membres\r\n    * de l'hopital, de la prefecture, de la mairie\r\n    *\r\n    */\r\n    struct DonneesEtablissement {\r\n        string nom;\r\n        string adresse;\r\n        string codePostale;\r\n        string ville;\r\n    }\r\n\r\n    struct DonneesMembres {\r\n        string login;\r\n        Authentification auth;\r\n        DonneesIdentification donneesIdent;\r\n        DonneesEtablissement donneesEtablissement;\r\n    }\r\n\r\n    /**\r\n    * Donnes d'identification des citoyens\r\n    */\r\n    struct DonneesIdentificationCitoyen {\r\n        string sexe;\r\n        string nomFamille;\r\n        string nomUsage;\r\n        string premierPrenom;\r\n        string autresPrenoms;\r\n        string etatCivil;\r\n    }\r\n\r\n    /**\r\n    * Donnes de naissance des citoyens\r\n    */\r\n    struct DonneesNaissanceCitoyen {\r\n        string dateNaissance;\r\n        string communeNaissance;\r\n        string departementNaissance;\r\n    }\r\n\r\n    /**\r\n    * Donnes des parents des citoyens\r\n    */\r\n    struct DonneesParentsCitoyen {\r\n        string nomFamilleMere;\r\n        string prenomMere;\r\n        string nomFamillePere;\r\n        string prenomPere;\r\n    }\r\n\r\n    struct DonneesCitoyen {\r\n        string login;\r\n        bool identite;\r\n        bytes4 id;\r\n        bytes32 hashCertification;\r\n        Authentification auth;\r\n        DonneesIdentificationCitoyen donneesIdentCitoyen;\r\n        DonneesNaissanceCitoyen donneesNaissanceCitoyen;\r\n        DonneesParentsCitoyen donneesParentsCitoyen;\r\n    }            \r\n\r\n    /*\r\n    * Mapping pour le suivi des utilisateurs\r\n    * cl : string login\r\n    */\r\n    mapping (string => Authentification) utilisateurs;\r\n\r\n    /** @dev\r\n    * Mappings pour suivi des membres de l'hopital, de la prefecture et de la mairie\r\n    *\r\n    */\r\n    mapping(string => DonneesMembres) membresHopital;\r\n\r\n    mapping(string => DonneesMembres) membresPrefecture;\r\n\r\n    mapping(string => DonneesMembres) membresMairie;\r\n\r\n    /** @dev\r\n    * Mappings pour suivi des citoyens\r\n    *\r\n    */\r\n    mapping(string => DonneesCitoyen) citoyens;\r\n\r\n    // CitoyenCount --> login\r\n    mapping(uint => string) ids;\r\n\r\n    // ID --> login\r\n    mapping(bytes4 => string) idLogins;\r\n\r\n    /// @dev Mapping des hash\r\n    mapping(bytes32 => string) hashCertifications;    \r\n\r\n    /// @dev Contract constructor sets the owner\r\n    constructor () public {\r\n        owner = msg.sender;\r\n    }   \r\n    \r\n\r\n    /**\r\n    * Read functions \r\n    */\r\n\r\n    function getTypeUtilisateur(string memory _login) public view returns(string memory _typ) {\r\n        _typ = utilisateurs[_login].typ;\r\n    }\r\n\r\n\r\n    /// @dev Gets the citoyens members count.\r\n    /// @return citoyenCount Citoyens count.\r\n    function getCitoyensCount() public view returns(uint){\r\n        return citoyensCount;\r\n    }\r\n\r\n    function getLoginIdStatut(uint _count) public view returns(string memory _login, bytes4 _id, bool _statut) {\r\n        _login = ids[_count];\r\n        _id = citoyens[_login].id;\r\n        _statut = citoyens[_login].identite;\r\n    }\r\n\r\n    function getLoginFromId(bytes4 _id) public view returns(string memory _login) {\r\n        _login = idLogins[_id];\r\n    }\r\n\r\n    function getIdFromLogin(string memory _login) public view returns (bytes4 _id) {\r\n        _id = citoyens[_login].id;\r\n    }\r\n\r\n    /// @dev Gets the hospital members count.\r\n    /// @return utilisateursHopital Membres hopital count.\r\n    function getUtilisateursHopitalCount() public view returns(uint){\r\n        return utilisateursHopital;\r\n    }\r\n\r\n    /*function getInfoIdentMembreHopital(string memory _login) public returns(string memory _civilite, string memory _nom, string memory _prenom, string memory _dateNaissance, string memory _role){\r\n     \r\n        _donneesIdentTemp = membresHopital[_login].donneesIdent;\r\n        _civilite = _donneesIdentTemp.civilite;\r\n        _nom = _donneesIdentTemp.nom;\r\n        _prenom = _donneesIdentTemp.prenom;\r\n        _dateNaissance = _donneesIdentTemp.dateNaissance;\r\n        _role = _donneesIdentTemp.role;\r\n    }*/\r\n\r\n    function getInfoEtabMembreHopital(string memory _login) public returns(string memory _nomEtab, string memory _adresseEtab, string memory _codePostaleEtab, string memory _villeEtab){\r\n     \r\n        _donneesEtabTemp = membresHopital[_login].donneesEtablissement;\r\n        _nomEtab = _donneesEtabTemp.nom;\r\n        _adresseEtab = _donneesEtabTemp.adresse;\r\n        _codePostaleEtab = _donneesEtabTemp.codePostale;\r\n        _villeEtab = _donneesEtabTemp.ville;\r\n\r\n    }\r\n\r\n    function getInfoIdentificationCitoyen (string memory _login) public view returns(string memory _sexe, \r\n    string memory _nomFamille, string memory _nomUsage, string memory _premierPrenom, \r\n    string memory _autresPrenoms, string memory _etatCivil) {\r\n       DonneesIdentificationCitoyen memory _donneesIdentificationCitoyen;\r\n        _donneesIdentificationCitoyen = citoyens[_login].donneesIdentCitoyen;\r\n\r\n        _sexe = _donneesIdentificationCitoyen.sexe;\r\n        _nomFamille = _donneesIdentificationCitoyen.nomFamille;\r\n        _nomUsage = _donneesIdentificationCitoyen.nomUsage;\r\n        _premierPrenom = _donneesIdentificationCitoyen.premierPrenom;\r\n        _autresPrenoms = _donneesIdentificationCitoyen.autresPrenoms;\r\n        _etatCivil = _donneesIdentificationCitoyen.etatCivil;\r\n\r\n    }\r\n\r\n    function getInfoNaissanceCitoyen (string memory _login) public view returns(string memory _dateNaissance, \r\n    string memory _communeNaissance, string memory _departementNaissance) {\r\n        DonneesNaissanceCitoyen memory _donneesNaissanceCitoyen;\r\n        _donneesNaissanceCitoyen = citoyens[_login].donneesNaissanceCitoyen;\r\n\r\n        _dateNaissance = _donneesNaissanceCitoyen.dateNaissance;\r\n        _communeNaissance = _donneesNaissanceCitoyen.communeNaissance;\r\n        _departementNaissance = _donneesNaissanceCitoyen.departementNaissance;\r\n\r\n    }\r\n\r\n    function getInfoParentsCitoyen (string memory _login) public view returns(string memory _nomFamilleMere,\r\n    string memory _prenomMere, string memory _nomFamillePere, string memory _prenomPere) {\r\n        DonneesParentsCitoyen memory _donneesParentsCitoyen;\r\n        _donneesParentsCitoyen = citoyens[_login].donneesParentsCitoyen;\r\n\r\n        _nomFamilleMere = _donneesParentsCitoyen.nomFamilleMere;\r\n        _prenomMere = _donneesParentsCitoyen.prenomMere;\r\n        _nomFamillePere = _donneesParentsCitoyen.nomFamillePere;\r\n        _prenomPere = _donneesParentsCitoyen.prenomPere;        \r\n    }\r\n\r\n    /**\r\n    * Write functions \r\n    */    \r\n    /*\r\n    /// @dev Function pour ajouter un nouveau utilisateur \r\n    function addMembreHopital(string memory _civilite, string memory _nom, string memory _prenom, string memory _dateNaissance, string memory _role,\r\n    string memory _nomEtab, string memory _adresseEtab, string memory _codePostaleEtab, string memory _villeEtab) public {\r\n        DonneesIdentification memory _donneesIdent;\r\n        DonneesEtablissement memory _donneesEtab;\r\n        string memory _login = _nom;\r\n        _login = _login.concatenate(_prenom);\r\n        _login = _login.concatenate(_dateNaissance);\r\n        string memory _mdp = _login;\r\n        bytes32 _mdpHash = keccak256(bytes(_mdp));\r\n\r\n        Authentification memory _auth;   \r\n\r\n        _donneesIdent = DonneesIdentification({\r\n            civilite: _civilite,\r\n            nom: _nom,\r\n            prenom : _prenom,\r\n            dateNaissance : _dateNaissance,\r\n            role : _role\r\n        });\r\n        \r\n        _donneesEtab = DonneesEtablissement({\r\n            nom : _nomEtab,\r\n            adresse : _adresseEtab,\r\n            codePostale : _codePostaleEtab,\r\n            ville : _villeEtab\r\n        });\r\n\r\n        _auth = Authentification({\r\n            mdp : _mdpHash,\r\n            typ : \"hopital\"\r\n        });\r\n        \r\n    \r\n        membresHopital[_login] = DonneesMembres({\r\n            login : _login,\r\n            auth : _auth,\r\n            donneesIdent : _donneesIdent,\r\n            donneesEtablissement : _donneesEtab\r\n        });\r\n\r\n        utilisateurs[_login] = Authentification({\r\n            mdp : _mdpHash,\r\n            typ : \"hopital\"\r\n        });\r\n\r\n        utilisateursHopital++;\r\n        utilisateursCount++;\r\n    }*/\r\n\r\n    /// @dev Function pour ajouter un nouveau citoyen \r\n    function addNaissance(string memory _sexe, string memory _nomFamille, string memory _nomUsage, string memory _premierPrenom, string memory _autresPrenoms) public {\r\n        \r\n        DonneesIdentificationCitoyen memory _donneesIdentificationCitoyen;\r\n        DonneesNaissanceCitoyen memory _donneesNaissanceCitoyen;\r\n        DonneesParentsCitoyen memory _donneesParentsCitoyen;\r\n\r\n        string memory _login = _nomFamille;\r\n        _login = _login.concatenate(_premierPrenom);\r\n        string memory _mdp = _login;\r\n        bytes32 _mdpHash = keccak256(bytes(_mdp));\r\n        Authentification memory _auth;\r\n        bytes32 lambdaCertification = keccak256(bytes(\"naissance\"));\r\n\r\n        bytes4 _id = bytes4(keccak256(bytes(_login)));\r\n\r\n        _auth = Authentification({\r\n            mdp : _mdpHash,\r\n            typ : \"citoyen\"\r\n        });\r\n\r\n        _donneesIdentificationCitoyen = DonneesIdentificationCitoyen({\r\n            sexe : _sexe,\r\n            nomFamille : _nomFamille,\r\n            nomUsage : _nomUsage,\r\n            premierPrenom : _premierPrenom,\r\n            autresPrenoms : _autresPrenoms,\r\n            etatCivil : \"CELIBATAIRE\"\r\n        });\r\n\r\n        citoyens[_login] = DonneesCitoyen({\r\n            login : _login,\r\n            identite : false,\r\n            id : _id,\r\n            hashCertification : lambdaCertification,\r\n            auth : _auth,\r\n            donneesIdentCitoyen : _donneesIdentificationCitoyen,\r\n            donneesNaissanceCitoyen : _donneesNaissanceCitoyen,\r\n            donneesParentsCitoyen : _donneesParentsCitoyen\r\n        });\r\n\r\n        ids[citoyensCount] = _login;\r\n        idLogins[_id] = _login;\r\n\r\n        citoyensCount++; \r\n\r\n    }\r\n\r\n    \r\n    /// @dev Function pour ajouter les donnes de naissance\r\n    function addDonneesNaissance(string memory _login, string memory _dateNaissance, string memory _communeNaissance, string memory _departementNaissance) public {\r\n        DonneesNaissanceCitoyen memory _donneesNaissanceCitoyen;\r\n\r\n        _donneesNaissanceCitoyen = DonneesNaissanceCitoyen({\r\n            dateNaissance : _dateNaissance,\r\n            communeNaissance : _communeNaissance,\r\n            departementNaissance : _departementNaissance\r\n        });\r\n\r\n        citoyens[_login].donneesNaissanceCitoyen = _donneesNaissanceCitoyen;         \r\n    }\r\n\r\n\r\n    /// @dev Function pour ajouter un nouveau citoyen \r\n    function addDonneesParents(string memory _login, string memory _nomFamilleMere, string memory _prenomMere, string memory _nomFamillePere,string memory _prenomPere) public {\r\n        DonneesParentsCitoyen memory _donneesParentsCitoyen;\r\n\r\n        _donneesParentsCitoyen = DonneesParentsCitoyen({\r\n            nomFamilleMere : _nomFamilleMere,\r\n            prenomMere : _prenomMere,\r\n            nomFamillePere : _nomFamillePere,\r\n            prenomPere : _prenomPere\r\n        });\r\n\r\n        citoyens[_login].donneesParentsCitoyen = _donneesParentsCitoyen;        \r\n    }\r\n\r\n    /// @dev Function pour vrifier identit\r\n    function verifyIdentite(string memory _login) public {\r\n        DonneesIdentificationCitoyen memory _donneesIdent;\r\n        citoyens[_login].identite = true;\r\n\r\n        Authentification memory _auth = citoyens[_login].auth;\r\n        bytes32 _mdpHash = _auth.mdp;\r\n        \r\n        /**\r\n         * Gnration du hash\r\n         */\r\n        _donneesIdent = citoyens[_login].donneesIdentCitoyen;\r\n\r\n        string memory _nom = _donneesIdent.nomFamille;\r\n        string memory _prenom = _donneesIdent.premierPrenom;\r\n        string memory _conc = _nom.concatenate(_prenom);\r\n        bytes32 certification_hash = keccak256(bytes(_conc));\r\n\r\n        citoyens[_login].hashCertification = certification_hash;\r\n        hashCertifications[certification_hash] = _login;\r\n\r\n        utilisateurs[_login] = Authentification({\r\n            mdp : _mdpHash,\r\n            typ : \"citoyen\"\r\n        });\r\n\r\n        utilisateursCount++;\r\n\r\n    }\r\n\r\n    /// @dev Rcuprer un hash\r\n    function getHash (string memory _login) public view returns (bytes32 _hash) {\r\n        _hash = citoyens[_login].hashCertification;\r\n    }\r\n\r\n    /// @dev Vrifier l'authentification et renvoie le type d'utilisateur.\r\n    function verifyAuthentification (string memory _login, string memory _pwd) public view returns (string memory _verify, string memory _typ){\r\n        //Verify that the user used the good password\r\n        \r\n        if (utilisateurs[_login].mdp == keccak256(bytes(_pwd))) {\r\n           _verify = \"ok\";\r\n            _typ = utilisateurs[_login].typ;\r\n        } else {\r\n           _verify = \"ko\";\r\n            _typ = \"NULL\";\r\n        }\r\n\r\n    }\r\n\r\n    /// @dev Vrifier un hash\r\n    function verifyCertification (bytes32 id_hash) public view returns (string memory _login) {\r\n        _login =  hashCertifications[id_hash];\r\n    }\r\n\r\n    /// @dev Dclarer mariage\r\n    function declareMariage(string memory _login, string memory _etatCivil) public {\r\n        DonneesIdentificationCitoyen memory _donneesIdentCitoyen;\r\n        _donneesIdentCitoyen = citoyens[_login].donneesIdentCitoyen;\r\n        _donneesIdentCitoyen.etatCivil = _etatCivil;\r\n        citoyens[_login].donneesIdentCitoyen = _donneesIdentCitoyen;\r\n    }\r\n\r\n}",
  "sourcePath": "C:/Users/anatereza.mascarenha/Documents/POC Etat Civil/contracts/CivilState.sol",
  "compiler": {
    "name": "solc",
    "version": "0.5.16+commit.9c3226ce.Emscripten.clang"
  },
  "schemaVersion": "3.0.22",
  "updatedAt": "2021-02-17T16:50:49.541Z",
  "networkType": "ethereum",
  "devdoc": {
    "methods": {
      "addDonneesNaissance(string,string,string,string)": {
        "details": "Function pour ajouter les donnes de naissance"
      },
      "addDonneesParents(string,string,string,string,string)": {
        "details": "Function pour ajouter un nouveau citoyen "
      },
      "addNaissance(string,string,string,string,string)": {
        "details": "Function pour ajouter un nouveau citoyen "
      },
      "constructor": {
        "details": "Contract constructor sets the owner"
      },
      "declareMariage(string,string)": {
        "details": "Dclarer mariage"
      },
      "getCitoyensCount()": {
        "details": "Gets the citoyens members count.",
        "return": "citoyenCount Citoyens count."
      },
      "getHash(string)": {
        "details": "Rcuprer un hash"
      },
      "getUtilisateursHopitalCount()": {
        "details": "Gets the hospital members count.",
        "return": "utilisateursHopital Membres hopital count."
      },
      "verifyAuthentification(string,string)": {
        "details": "Vrifier l'authentification et renvoie le type d'utilisateur."
      },
      "verifyCertification(bytes32)": {
        "details": "Vrifier un hash"
      },
      "verifyIdentite(string)": {
        "details": "Function pour vrifier identit"
      }
    },
    "title": "CivilState. "
  },
  "userdoc": {
    "methods": {
      "getTypeUtilisateur(string)": {
        "notice": "Read functions "
      }
    }
  }
}