{
  "contractName": "CivilState_backup",
  "abi": [
    {
      "inputs": [],
      "payable": false,
      "stateMutability": "nonpayable",
      "type": "constructor"
    },
    {
      "anonymous": false,
      "inputs": [
        {
          "indexed": false,
          "internalType": "string",
          "name": "memberName",
          "type": "string"
        }
      ],
      "name": "LogEventAddCityHallMember",
      "type": "event"
    },
    {
      "anonymous": false,
      "inputs": [
        {
          "indexed": false,
          "internalType": "string",
          "name": "memberName",
          "type": "string"
        }
      ],
      "name": "LogEventAddHospitalMember",
      "type": "event"
    },
    {
      "anonymous": false,
      "inputs": [
        {
          "indexed": false,
          "internalType": "string",
          "name": "memberName",
          "type": "string"
        }
      ],
      "name": "LogEventAddPrefectureMember",
      "type": "event"
    },
    {
      "anonymous": false,
      "inputs": [
        {
          "indexed": false,
          "internalType": "string",
          "name": "name",
          "type": "string"
        },
        {
          "indexed": false,
          "internalType": "string",
          "name": "lastName",
          "type": "string"
        },
        {
          "indexed": false,
          "internalType": "uint256",
          "name": "birthId",
          "type": "uint256"
        }
      ],
      "name": "LogEventBirthAdded",
      "type": "event"
    },
    {
      "anonymous": false,
      "inputs": [
        {
          "indexed": false,
          "internalType": "string",
          "name": "login",
          "type": "string"
        },
        {
          "indexed": false,
          "internalType": "bytes32",
          "name": "identity_hash",
          "type": "bytes32"
        }
      ],
      "name": "LogEventCertificationGenerated",
      "type": "event"
    },
    {
      "anonymous": false,
      "inputs": [
        {
          "indexed": false,
          "internalType": "uint256",
          "name": "birthId",
          "type": "uint256"
        },
        {
          "indexed": false,
          "internalType": "string",
          "name": "newBirthCity",
          "type": "string"
        }
      ],
      "name": "LogEventChangeBirthCity",
      "type": "event"
    },
    {
      "anonymous": false,
      "inputs": [
        {
          "indexed": false,
          "internalType": "uint256",
          "name": "birthId",
          "type": "uint256"
        },
        {
          "indexed": false,
          "internalType": "string",
          "name": "newBirthDate",
          "type": "string"
        }
      ],
      "name": "LogEventChangeBirthDate",
      "type": "event"
    },
    {
      "anonymous": false,
      "inputs": [
        {
          "indexed": false,
          "internalType": "uint256",
          "name": "birthId",
          "type": "uint256"
        },
        {
          "indexed": false,
          "internalType": "string",
          "name": "newLastName",
          "type": "string"
        }
      ],
      "name": "LogEventChangeLastName",
      "type": "event"
    },
    {
      "anonymous": false,
      "inputs": [
        {
          "indexed": false,
          "internalType": "uint256",
          "name": "birthId",
          "type": "uint256"
        },
        {
          "indexed": false,
          "internalType": "string",
          "name": "newName",
          "type": "string"
        }
      ],
      "name": "LogEventChangeName",
      "type": "event"
    },
    {
      "anonymous": false,
      "inputs": [
        {
          "indexed": false,
          "internalType": "string",
          "name": "marriageDate",
          "type": "string"
        },
        {
          "indexed": false,
          "internalType": "uint256",
          "name": "identityId",
          "type": "uint256"
        }
      ],
      "name": "LogEventDeclareMarriage",
      "type": "event"
    },
    {
      "anonymous": false,
      "inputs": [
        {
          "indexed": false,
          "internalType": "string",
          "name": "name",
          "type": "string"
        },
        {
          "indexed": false,
          "internalType": "string",
          "name": "lastName",
          "type": "string"
        },
        {
          "indexed": false,
          "internalType": "string",
          "name": "birthDate",
          "type": "string"
        },
        {
          "indexed": false,
          "internalType": "string",
          "name": "birthCity",
          "type": "string"
        },
        {
          "indexed": false,
          "internalType": "string",
          "name": "maritalStatus",
          "type": "string"
        }
      ],
      "name": "LogEventVerifyCertification",
      "type": "event"
    },
    {
      "anonymous": false,
      "inputs": [
        {
          "indexed": false,
          "internalType": "uint256",
          "name": "birthId",
          "type": "uint256"
        },
        {
          "indexed": false,
          "internalType": "uint256",
          "name": "identityId",
          "type": "uint256"
        }
      ],
      "name": "LogEventVerifyIdentity",
      "type": "event"
    },
    {
      "constant": true,
      "inputs": [],
      "name": "owner",
      "outputs": [
        {
          "internalType": "address payable",
          "name": "",
          "type": "address"
        }
      ],
      "payable": false,
      "stateMutability": "view",
      "type": "function"
    },
    {
      "constant": true,
      "inputs": [],
      "name": "stopped",
      "outputs": [
        {
          "internalType": "bool",
          "name": "",
          "type": "bool"
        }
      ],
      "payable": false,
      "stateMutability": "view",
      "type": "function"
    },
    {
      "constant": false,
      "inputs": [],
      "name": "stopCivilStateContract",
      "outputs": [],
      "payable": false,
      "stateMutability": "nonpayable",
      "type": "function"
    },
    {
      "constant": false,
      "inputs": [],
      "name": "withdraw",
      "outputs": [],
      "payable": false,
      "stateMutability": "nonpayable",
      "type": "function"
    },
    {
      "constant": false,
      "inputs": [],
      "name": "kill",
      "outputs": [],
      "payable": false,
      "stateMutability": "nonpayable",
      "type": "function"
    },
    {
      "constant": true,
      "inputs": [],
      "name": "getBirthsCount",
      "outputs": [
        {
          "internalType": "uint256",
          "name": "",
          "type": "uint256"
        }
      ],
      "payable": false,
      "stateMutability": "view",
      "type": "function"
    },
    {
      "constant": true,
      "inputs": [],
      "name": "getIdentitiesCount",
      "outputs": [
        {
          "internalType": "uint256",
          "name": "",
          "type": "uint256"
        }
      ],
      "payable": false,
      "stateMutability": "view",
      "type": "function"
    },
    {
      "constant": true,
      "inputs": [],
      "name": "getOwner",
      "outputs": [
        {
          "internalType": "address",
          "name": "",
          "type": "address"
        }
      ],
      "payable": false,
      "stateMutability": "view",
      "type": "function"
    },
    {
      "constant": true,
      "inputs": [],
      "name": "isHospitalMember",
      "outputs": [
        {
          "internalType": "address",
          "name": "",
          "type": "address"
        }
      ],
      "payable": false,
      "stateMutability": "view",
      "type": "function"
    },
    {
      "constant": true,
      "inputs": [],
      "name": "isPrefectureMember",
      "outputs": [
        {
          "internalType": "address",
          "name": "",
          "type": "address"
        }
      ],
      "payable": false,
      "stateMutability": "view",
      "type": "function"
    },
    {
      "constant": true,
      "inputs": [],
      "name": "isCityHallMember",
      "outputs": [
        {
          "internalType": "address",
          "name": "",
          "type": "address"
        }
      ],
      "payable": false,
      "stateMutability": "view",
      "type": "function"
    },
    {
      "constant": false,
      "inputs": [
        {
          "internalType": "address",
          "name": "_newMember",
          "type": "address"
        },
        {
          "internalType": "string",
          "name": "_memberName",
          "type": "string"
        }
      ],
      "name": "addHospitalMember",
      "outputs": [],
      "payable": false,
      "stateMutability": "nonpayable",
      "type": "function"
    },
    {
      "constant": false,
      "inputs": [
        {
          "internalType": "address",
          "name": "_newMember",
          "type": "address"
        },
        {
          "internalType": "string",
          "name": "_memberName",
          "type": "string"
        }
      ],
      "name": "addPrefectureMember",
      "outputs": [],
      "payable": false,
      "stateMutability": "nonpayable",
      "type": "function"
    },
    {
      "constant": false,
      "inputs": [
        {
          "internalType": "address",
          "name": "_newMember",
          "type": "address"
        },
        {
          "internalType": "string",
          "name": "_memberName",
          "type": "string"
        }
      ],
      "name": "addCityHallMember",
      "outputs": [],
      "payable": false,
      "stateMutability": "nonpayable",
      "type": "function"
    },
    {
      "constant": false,
      "inputs": [
        {
          "internalType": "string",
          "name": "_name",
          "type": "string"
        },
        {
          "internalType": "string",
          "name": "_lastName",
          "type": "string"
        },
        {
          "internalType": "string",
          "name": "_birthDate",
          "type": "string"
        },
        {
          "internalType": "string",
          "name": "_birthCity",
          "type": "string"
        }
      ],
      "name": "addBirth",
      "outputs": [
        {
          "internalType": "uint256",
          "name": "",
          "type": "uint256"
        }
      ],
      "payable": false,
      "stateMutability": "nonpayable",
      "type": "function"
    },
    {
      "constant": true,
      "inputs": [],
      "name": "getBirthId",
      "outputs": [
        {
          "internalType": "uint256",
          "name": "_birthId",
          "type": "uint256"
        },
        {
          "internalType": "string",
          "name": "_name",
          "type": "string"
        },
        {
          "internalType": "string",
          "name": "_lastName",
          "type": "string"
        }
      ],
      "payable": false,
      "stateMutability": "view",
      "type": "function"
    },
    {
      "constant": false,
      "inputs": [
        {
          "internalType": "uint256",
          "name": "birthId",
          "type": "uint256"
        },
        {
          "internalType": "string",
          "name": "newName",
          "type": "string"
        }
      ],
      "name": "changeName",
      "outputs": [],
      "payable": false,
      "stateMutability": "nonpayable",
      "type": "function"
    },
    {
      "constant": false,
      "inputs": [
        {
          "internalType": "uint256",
          "name": "birthId",
          "type": "uint256"
        },
        {
          "internalType": "string",
          "name": "newLastName",
          "type": "string"
        }
      ],
      "name": "changeLastName",
      "outputs": [],
      "payable": false,
      "stateMutability": "nonpayable",
      "type": "function"
    },
    {
      "constant": false,
      "inputs": [
        {
          "internalType": "uint256",
          "name": "birthId",
          "type": "uint256"
        },
        {
          "internalType": "string",
          "name": "newBirthCity",
          "type": "string"
        }
      ],
      "name": "changeBirthCity",
      "outputs": [],
      "payable": false,
      "stateMutability": "nonpayable",
      "type": "function"
    },
    {
      "constant": false,
      "inputs": [
        {
          "internalType": "uint256",
          "name": "birthId",
          "type": "uint256"
        },
        {
          "internalType": "string",
          "name": "newBirthDate",
          "type": "string"
        }
      ],
      "name": "changeBirthDate",
      "outputs": [],
      "payable": false,
      "stateMutability": "nonpayable",
      "type": "function"
    },
    {
      "constant": false,
      "inputs": [
        {
          "internalType": "uint256",
          "name": "birthId",
          "type": "uint256"
        }
      ],
      "name": "verifyIdentity",
      "outputs": [
        {
          "internalType": "uint256",
          "name": "identityId",
          "type": "uint256"
        }
      ],
      "payable": false,
      "stateMutability": "nonpayable",
      "type": "function"
    },
    {
      "constant": true,
      "inputs": [],
      "name": "getIdentityId",
      "outputs": [
        {
          "internalType": "uint256",
          "name": "_identity",
          "type": "uint256"
        },
        {
          "internalType": "string",
          "name": "_name",
          "type": "string"
        },
        {
          "internalType": "string",
          "name": "_lastName",
          "type": "string"
        }
      ],
      "payable": false,
      "stateMutability": "view",
      "type": "function"
    },
    {
      "constant": false,
      "inputs": [
        {
          "internalType": "uint256",
          "name": "identityId",
          "type": "uint256"
        },
        {
          "internalType": "string",
          "name": "_marriageDate",
          "type": "string"
        }
      ],
      "name": "declareMarriage",
      "outputs": [],
      "payable": false,
      "stateMutability": "nonpayable",
      "type": "function"
    },
    {
      "constant": false,
      "inputs": [
        {
          "internalType": "string",
          "name": "_login",
          "type": "string"
        },
        {
          "internalType": "string",
          "name": "_oldPwd",
          "type": "string"
        },
        {
          "internalType": "string",
          "name": "_newPwd",
          "type": "string"
        }
      ],
      "name": "modifyMyPassword",
      "outputs": [],
      "payable": false,
      "stateMutability": "nonpayable",
      "type": "function"
    },
    {
      "constant": false,
      "inputs": [
        {
          "internalType": "string",
          "name": "login",
          "type": "string"
        },
        {
          "internalType": "string",
          "name": "pwd",
          "type": "string"
        }
      ],
      "name": "generateIdCertification",
      "outputs": [
        {
          "internalType": "bytes32",
          "name": "",
          "type": "bytes32"
        }
      ],
      "payable": false,
      "stateMutability": "nonpayable",
      "type": "function"
    },
    {
      "constant": true,
      "inputs": [
        {
          "internalType": "string",
          "name": "_login",
          "type": "string"
        }
      ],
      "name": "getCertification",
      "outputs": [
        {
          "internalType": "bytes32",
          "name": "",
          "type": "bytes32"
        }
      ],
      "payable": false,
      "stateMutability": "view",
      "type": "function"
    },
    {
      "constant": false,
      "inputs": [
        {
          "internalType": "bytes32",
          "name": "id_hash",
          "type": "bytes32"
        }
      ],
      "name": "verifyCertification",
      "outputs": [
        {
          "internalType": "string",
          "name": "_name",
          "type": "string"
        },
        {
          "internalType": "string",
          "name": "_lastName",
          "type": "string"
        },
        {
          "internalType": "string",
          "name": "_birthDate",
          "type": "string"
        },
        {
          "internalType": "string",
          "name": "_birthCity",
          "type": "string"
        },
        {
          "internalType": "string",
          "name": "_maritalStatus",
          "type": "string"
        }
      ],
      "payable": false,
      "stateMutability": "nonpayable",
      "type": "function"
    },
    {
      "constant": true,
      "inputs": [
        {
          "internalType": "uint256",
          "name": "birthId",
          "type": "uint256"
        }
      ],
      "name": "readBirth",
      "outputs": [
        {
          "internalType": "string",
          "name": "_name",
          "type": "string"
        },
        {
          "internalType": "string",
          "name": "_lastName",
          "type": "string"
        },
        {
          "internalType": "string",
          "name": "_birthDate",
          "type": "string"
        },
        {
          "internalType": "string",
          "name": "_birthCity",
          "type": "string"
        },
        {
          "internalType": "bool",
          "name": "_isVerified",
          "type": "bool"
        }
      ],
      "payable": false,
      "stateMutability": "view",
      "type": "function"
    },
    {
      "constant": true,
      "inputs": [
        {
          "internalType": "uint256",
          "name": "identityId",
          "type": "uint256"
        }
      ],
      "name": "readIdentity",
      "outputs": [
        {
          "internalType": "string",
          "name": "_name",
          "type": "string"
        },
        {
          "internalType": "string",
          "name": "_lastName",
          "type": "string"
        },
        {
          "internalType": "string",
          "name": "_birthDate",
          "type": "string"
        },
        {
          "internalType": "string",
          "name": "_birthCity",
          "type": "string"
        },
        {
          "internalType": "string",
          "name": "_maritalStatus",
          "type": "string"
        }
      ],
      "payable": false,
      "stateMutability": "view",
      "type": "function"
    }
  ],
  "bytecode": "0x608060405260008060006101000a81548160ff0219169083151502179055506000600555600060075534801561003457600080fd5b5033600060016101000a81548173ffffffffffffffffffffffffffffffffffffffff021916908373ffffffffffffffffffffffffffffffffffffffff160217905550615cde80620000866000396000f3fe608060405234801561001057600080fd5b50600436106101cf5760003560e01c806386eb895d11610104578063babb55c5116100a2578063da611a8b11610071578063da611a8b146115b4578063dea0e3f714611679578063df1891811461176f578063eaab88d31461184a576101cf565b8063babb55c514610fc2578063c39cbef114611004578063c728da96146110c9578063d0bbc1ac1461135d576101cf565b8063908262f4116100de578063908262f414610b145780639097a63214610bd9578063996f932b14610dc2578063aac4b06214610dcc576101cf565b806386eb895d146109bb578063893d20e814610a805780638da5cb5b14610aca576101cf565b80634f7b3c7d1161017157806357959edc1161014b57806357959edc146107035780637006045c146107de57806375f12b21146108d457806384a3409d146108f6576101cf565b80634f7b3c7d146105a057806353fb3c241461066f57806355363909146106b9576101cf565b80633ccfd60b116101ad5780633ccfd60b146103175780633de79ac91461032157806341c0e1b51461057857806341d204ad14610582576101cf565b806321e15d54146101d45780632da2a898146102af578063398dbab0146102f9575b600080fd5b6102ad600480360360408110156101ea57600080fd5b81019080803573ffffffffffffffffffffffffffffffffffffffff1690602001909291908035906020019064010000000081111561022757600080fd5b82018360208201111561023957600080fd5b8035906020019184600183028401116401000000008311171561025b57600080fd5b91908080601f016020809104026020016040519081016040528093929190818152602001838380828437600081840152601f19601f8201169050808301925050505050505091929192905050506119b0565b005b6102b7611d97565b604051808273ffffffffffffffffffffffffffffffffffffffff1673ffffffffffffffffffffffffffffffffffffffff16815260200191505060405180910390f35b610301611e0d565b6040518082815260200191505060405180910390f35b61031f611e17565b005b61034d6004803603602081101561033757600080fd5b8101908080359060200190929190505050611e9a565b60405180806020018060200180602001806020018060200186810386528b818151815260200191508051906020019080838360005b8381101561039d578082015181840152602081019050610382565b50505050905090810190601f1680156103ca5780820380516001836020036101000a031916815260200191505b5086810385528a818151815260200191508051906020019080838360005b838110156104035780820151818401526020810190506103e8565b50505050905090810190601f1680156104305780820380516001836020036101000a031916815260200191505b50868103845289818151815260200191508051906020019080838360005b8381101561046957808201518184015260208101905061044e565b50505050905090810190601f1680156104965780820380516001836020036101000a031916815260200191505b50868103835288818151815260200191508051906020019080838360005b838110156104cf5780820151818401526020810190506104b4565b50505050905090810190601f1680156104fc5780820380516001836020036101000a031916815260200191505b50868103825287818151815260200191508051906020019080838360005b8381101561053557808201518184015260208101905061051a565b50505050905090810190601f1680156105625780820380516001836020036101000a031916815260200191505b509a505050505050505050505060405180910390f35b6105806125ad565b005b61058a612642565b6040518082815260200191505060405180910390f35b610659600480360360208110156105b657600080fd5b81019080803590602001906401000000008111156105d357600080fd5b8201836020820111156105e557600080fd5b8035906020019184600183028401116401000000008311171561060757600080fd5b91908080601f016020809104026020016040519081016040528093929190818152602001838380828437600081840152601f19601f82011690508083019250505050505050919291929050505061264c565b6040518082815260200191505060405180910390f35b6106776126c2565b604051808273ffffffffffffffffffffffffffffffffffffffff1673ffffffffffffffffffffffffffffffffffffffff16815260200191505060405180910390f35b6106c1612738565b604051808273ffffffffffffffffffffffffffffffffffffffff1673ffffffffffffffffffffffffffffffffffffffff16815260200191505060405180910390f35b6107dc6004803603604081101561071957600080fd5b81019080803573ffffffffffffffffffffffffffffffffffffffff1690602001909291908035906020019064010000000081111561075657600080fd5b82018360208201111561076857600080fd5b8035906020019184600183028401116401000000008311171561078a57600080fd5b91908080601f016020809104026020016040519081016040528093929190818152602001838380828437600081840152601f19601f8201169050808301925050505050505091929192905050506127ae565b005b6107e6612b95565b604051808481526020018060200180602001838103835285818151815260200191508051906020019080838360005b83811015610830578082015181840152602081019050610815565b50505050905090810190601f16801561085d5780820380516001836020036101000a031916815260200191505b50838103825284818151815260200191508051906020019080838360005b8381101561089657808201518184015260208101905061087b565b50505050905090810190601f1680156108c35780820380516001836020036101000a031916815260200191505b509550505050505060405180910390f35b6108dc612d35565b604051808215151515815260200191505060405180910390f35b6109b96004803603604081101561090c57600080fd5b81019080803590602001909291908035906020019064010000000081111561093357600080fd5b82018360208201111561094557600080fd5b8035906020019184600183028401116401000000008311171561096757600080fd5b91908080601f016020809104026020016040519081016040528093929190818152602001838380828437600081840152601f19601f820116905080830192505050505050509192919290505050612d47565b005b610a7e600480360360408110156109d157600080fd5b8101908080359060200190929190803590602001906401000000008111156109f857600080fd5b820183602082011115610a0a57600080fd5b80359060200191846001830284011164010000000083111715610a2c57600080fd5b91908080601f016020809104026020016040519081016040528093929190818152602001838380828437600081840152601f19601f820116905080830192505050505050509192919290505050612f2d565b005b610a886130b0565b604051808273ffffffffffffffffffffffffffffffffffffffff1673ffffffffffffffffffffffffffffffffffffffff16815260200191505060405180910390f35b610ad26130d9565b604051808273ffffffffffffffffffffffffffffffffffffffff1673ffffffffffffffffffffffffffffffffffffffff16815260200191505060405180910390f35b610bd760048036036040811015610b2a57600080fd5b810190808035906020019092919080359060200190640100000000811115610b5157600080fd5b820183602082011115610b6357600080fd5b80359060200191846001830284011164010000000083111715610b8557600080fd5b91908080601f016020809104026020016040519081016040528093929190818152602001838380828437600081840152601f19601f8201169050808301925050505050505091929192905050506130ff565b005b610dc060048036036060811015610bef57600080fd5b8101908080359060200190640100000000811115610c0c57600080fd5b820183602082011115610c1e57600080fd5b80359060200191846001830284011164010000000083111715610c4057600080fd5b91908080601f016020809104026020016040519081016040528093929190818152602001838380828437600081840152601f19601f82011690508083019250505050505050919291929080359060200190640100000000811115610ca357600080fd5b820183602082011115610cb557600080fd5b80359060200191846001830284011164010000000083111715610cd757600080fd5b91908080601f016020809104026020016040519081016040528093929190818152602001838380828437600081840152601f19601f82011690508083019250505050505050919291929080359060200190640100000000811115610d3a57600080fd5b820183602082011115610d4c57600080fd5b80359060200191846001830284011164010000000083111715610d6e57600080fd5b91908080601f016020809104026020016040519081016040528093929190818152602001838380828437600081840152601f19601f820116905080830192505050505050509192919290505050613282565b005b610dca613384565b005b610df860048036036020811015610de257600080fd5b81019080803590602001909291905050506133fa565b60405180806020018060200180602001806020018615151515815260200185810385528a818151815260200191508051906020019080838360005b83811015610e4e578082015181840152602081019050610e33565b50505050905090810190601f168015610e7b5780820380516001836020036101000a031916815260200191505b50858103845289818151815260200191508051906020019080838360005b83811015610eb4578082015181840152602081019050610e99565b50505050905090810190601f168015610ee15780820380516001836020036101000a031916815260200191505b50858103835288818151815260200191508051906020019080838360005b83811015610f1a578082015181840152602081019050610eff565b50505050905090810190601f168015610f475780820380516001836020036101000a031916815260200191505b50858103825287818151815260200191508051906020019080838360005b83811015610f80578082015181840152602081019050610f65565b50505050905090810190601f168015610fad5780820380516001836020036101000a031916815260200191505b50995050505050505050505060405180910390f35b610fee60048036036020811015610fd857600080fd5b8101908080359060200190929190505050613701565b6040518082815260200191505060405180910390f35b6110c76004803603604081101561101a57600080fd5b81019080803590602001909291908035906020019064010000000081111561104157600080fd5b82018360208201111561105357600080fd5b8035906020019184600183028401116401000000008311171561107557600080fd5b91908080601f016020809104026020016040519081016040528093929190818152602001838380828437600081840152601f19601f8201169050808301925050505050505091929192905050506144d7565b005b611347600480360360808110156110df57600080fd5b81019080803590602001906401000000008111156110fc57600080fd5b82018360208201111561110e57600080fd5b8035906020019184600183028401116401000000008311171561113057600080fd5b91908080601f016020809104026020016040519081016040528093929190818152602001838380828437600081840152601f19601f8201169050808301925050505050505091929192908035906020019064010000000081111561119357600080fd5b8201836020820111156111a557600080fd5b803590602001918460018302840111640100000000831117156111c757600080fd5b91908080601f016020809104026020016040519081016040528093929190818152602001838380828437600081840152601f19601f8201169050808301925050505050505091929192908035906020019064010000000081111561122a57600080fd5b82018360208201111561123c57600080fd5b8035906020019184600183028401116401000000008311171561125e57600080fd5b91908080601f016020809104026020016040519081016040528093929190818152602001838380828437600081840152601f19601f820116905080830192505050505050509192919290803590602001906401000000008111156112c157600080fd5b8201836020820111156112d357600080fd5b803590602001918460018302840111640100000000831117156112f557600080fd5b91908080601f016020809104026020016040519081016040528093929190818152602001838380828437600081840152601f19601f82011690508083019250505050505050919291929050505061465a565b6040518082815260200191505060405180910390f35b6113896004803603602081101561137357600080fd5b81019080803590602001909291905050506148eb565b60405180806020018060200180602001806020018060200186810386528b818151815260200191508051906020019080838360005b838110156113d95780820151818401526020810190506113be565b50505050905090810190601f1680156114065780820380516001836020036101000a031916815260200191505b5086810385528a818151815260200191508051906020019080838360005b8381101561143f578082015181840152602081019050611424565b50505050905090810190601f16801561146c5780820380516001836020036101000a031916815260200191505b50868103845289818151815260200191508051906020019080838360005b838110156114a557808201518184015260208101905061148a565b50505050905090810190601f1680156114d25780820380516001836020036101000a031916815260200191505b50868103835288818151815260200191508051906020019080838360005b8381101561150b5780820151818401526020810190506114f0565b50505050905090810190601f1680156115385780820380516001836020036101000a031916815260200191505b50868103825287818151815260200191508051906020019080838360005b83811015611571578082015181840152602081019050611556565b50505050905090810190601f16801561159e5780820380516001836020036101000a031916815260200191505b509a505050505050505050505060405180910390f35b611677600480360360408110156115ca57600080fd5b8101908080359060200190929190803590602001906401000000008111156115f157600080fd5b82018360208201111561160357600080fd5b8035906020019184600183028401116401000000008311171561162557600080fd5b91908080601f016020809104026020016040519081016040528093929190818152602001838380828437600081840152601f19601f820116905080830192505050505050509192919290505050614cc3565b005b611681614e46565b604051808481526020018060200180602001838103835285818151815260200191508051906020019080838360005b838110156116cb5780820151818401526020810190506116b0565b50505050905090810190601f1680156116f85780820380516001836020036101000a031916815260200191505b50838103825284818151815260200191508051906020019080838360005b83811015611731578082015181840152602081019050611716565b50505050905090810190601f16801561175e5780820380516001836020036101000a031916815260200191505b509550505050505060405180910390f35b6118486004803603604081101561178557600080fd5b81019080803573ffffffffffffffffffffffffffffffffffffffff169060200190929190803590602001906401000000008111156117c257600080fd5b8201836020820111156117d457600080fd5b803590602001918460018302840111640100000000831117156117f657600080fd5b91908080601f016020809104026020016040519081016040528093929190818152602001838380828437600081840152601f19601f820116905080830192505050505050509192919290505050614fe0565b005b61199a6004803603604081101561186057600080fd5b810190808035906020019064010000000081111561187d57600080fd5b82018360208201111561188f57600080fd5b803590602001918460018302840111640100000000831117156118b157600080fd5b91908080601f016020809104026020016040519081016040528093929190818152602001838380828437600081840152601f19601f8201169050808301925050505050505091929192908035906020019064010000000081111561191457600080fd5b82018360208201111561192657600080fd5b8035906020019184600183028401116401000000008311171561194857600080fd5b91908080601f016020809104026020016040519081016040528093929190818152602001838380828437600081840152601f19601f8201169050808301925050505050505091929192905050506153c7565b6040518082815260200191505060405180910390f35b3373ffffffffffffffffffffffffffffffffffffffff16600060019054906101000a900473ffffffffffffffffffffffffffffffffffffffff1673ffffffffffffffffffffffffffffffffffffffff1614611a0a57600080fd5b60606040518060400160405280600681526020017f6c6f67696e5f0000000000000000000000000000000000000000000000000000815250905060608173__LibConcatenateStrings_________________63266001d39091856040518363ffffffff1660e01b8152600401808060200180602001838103835285818151815260200191508051906020019080838360005b83811015611ab7578082015181840152602081019050611a9c565b50505050905090810190601f168015611ae45780820380516001836020036101000a031916815260200191505b50838103825284818151815260200191508051906020019080838360005b83811015611b1d578082015181840152602081019050611b02565b50505050905090810190601f168015611b4a5780820380516001836020036101000a031916815260200191505b5094505050505060006040518083038186803b158015611b6957600080fd5b505af4158015611b7d573d6000803e3d6000fd5b505050506040513d6000823e3d601f19601f820116820180604052506020811015611ba757600080fd5b8101908080516040519392919084640100000000821115611bc757600080fd5b83820191506020820185811115611bdd57600080fd5b8251866001820283011164010000000082111715611bfa57600080fd5b8083526020830192505050908051906020019080838360005b83811015611c2e578082015181840152602081019050611c13565b50505050905090810190601f168015611c5b5780820380516001836020036101000a031916815260200191505b506040525050509050604051806040016040528082815260200184815250600360008673ffffffffffffffffffffffffffffffffffffffff1673ffffffffffffffffffffffffffffffffffffffff1681526020019081526020016000206000820151816000019080519060200190611cd4929190615b84565b506020820151816001019080519060200190611cf1929190615b84565b509050507f401ac4b35a7b6689f6099149d9a4590d106d0b7850a038645519383db1f9e5aa836040518080602001828103825283818151815260200191508051906020019080838360005b83811015611d57578082015181840152602081019050611d3c565b50505050905090810190601f168015611d845780820380516001836020036101000a031916815260200191505b509250505060405180910390a150505050565b6000806000600260003373ffffffffffffffffffffffffffffffffffffffff1673ffffffffffffffffffffffffffffffffffffffff1681526020019081526020016000206001018054600181600116156101000203166002900490501115611e0157339050611e06565b600090505b8091505090565b6000600554905090565b6000809054906101000a900460ff16611e2f57600080fd5b600060019054906101000a900473ffffffffffffffffffffffffffffffffffffffff1673ffffffffffffffffffffffffffffffffffffffff166108fc479081150290604051600060405180830381858888f19350505050158015611e97573d6000803e3d6000fd5b50565b60608060608060606000600960008881526020019081526020016000206000015490507fdea944d26c9ad75cda8068a64776c72a44ed4a38a049e0e3e619c2a4c4a2bf5a600660008381526020019081526020016000206000016000016006600084815260200190815260200160002060000160010160066000858152602001908152602001600020600001600201600660008681526020019081526020016000206000016003016006600087815260200190815260200160002060050160405180806020018060200180602001806020018060200186810386528b818154600181600116156101000203166002900481526020019150805460018160011615610100020316600290048015611ff15780601f10611fc657610100808354040283529160200191611ff1565b820191906000526020600020905b815481529060010190602001808311611fd457829003601f168201915b505086810385528a8181546001816001161561010002031660029004815260200191508054600181600116156101000203166002900480156120745780601f1061204957610100808354040283529160200191612074565b820191906000526020600020905b81548152906001019060200180831161205757829003601f168201915b50508681038452898181546001816001161561010002031660029004815260200191508054600181600116156101000203166002900480156120f75780601f106120cc576101008083540402835291602001916120f7565b820191906000526020600020905b8154815290600101906020018083116120da57829003601f168201915b505086810383528881815460018160011615610100020316600290048152602001915080546001816001161561010002031660029004801561217a5780601f1061214f5761010080835404028352916020019161217a565b820191906000526020600020905b81548152906001019060200180831161215d57829003601f168201915b50508681038252878181546001816001161561010002031660029004815260200191508054600181600116156101000203166002900480156121fd5780601f106121d2576101008083540402835291602001916121fd565b820191906000526020600020905b8154815290600101906020018083116121e057829003601f168201915b50509a505050505050505050505060405180910390a16006600082815260200190815260200160002060000160000160066000838152602001908152602001600020600001600101600660008481526020019081526020016000206000016002016006600085815260200190815260200160002060000160030160066000868152602001908152602001600020600501848054600181600116156101000203166002900480601f0160208091040260200160405190810160405280929190818152602001828054600181600116156101000203166002900480156123225780601f106122f757610100808354040283529160200191612322565b820191906000526020600020905b81548152906001019060200180831161230557829003601f168201915b50505050509450838054600181600116156101000203166002900480601f0160208091040260200160405190810160405280929190818152602001828054600181600116156101000203166002900480156123be5780601f10612393576101008083540402835291602001916123be565b820191906000526020600020905b8154815290600101906020018083116123a157829003601f168201915b50505050509350828054600181600116156101000203166002900480601f01602080910402602001604051908101604052809291908181526020018280546001816001161561010002031660029004801561245a5780601f1061242f5761010080835404028352916020019161245a565b820191906000526020600020905b81548152906001019060200180831161243d57829003601f168201915b50505050509250818054600181600116156101000203166002900480601f0160208091040260200160405190810160405280929190818152602001828054600181600116156101000203166002900480156124f65780601f106124cb576101008083540402835291602001916124f6565b820191906000526020600020905b8154815290600101906020018083116124d957829003601f168201915b50505050509150808054600181600116156101000203166002900480601f0160208091040260200160405190810160405280929190818152602001828054600181600116156101000203166002900480156125925780601f1061256757610100808354040283529160200191612592565b820191906000526020600020905b81548152906001019060200180831161257557829003601f168201915b50505050509050955095509550955095505091939590929450565b3373ffffffffffffffffffffffffffffffffffffffff16600060019054906101000a900473ffffffffffffffffffffffffffffffffffffffff1673ffffffffffffffffffffffffffffffffffffffff161461260757600080fd5b600060019054906101000a900473ffffffffffffffffffffffffffffffffffffffff1673ffffffffffffffffffffffffffffffffffffffff16ff5b6000600754905090565b60006008826040518082805190602001908083835b602083106126845780518252602082019150602081019050602083039250612661565b6001836020036101000a0380198251168184511680821785525050505050509050019150509081526020016040518091039020600201549050919050565b6000806000600160003373ffffffffffffffffffffffffffffffffffffffff1673ffffffffffffffffffffffffffffffffffffffff168152602001908152602001600020600101805460018160011615610100020316600290049050111561272c57339050612731565b600090505b8091505090565b6000806000600360003373ffffffffffffffffffffffffffffffffffffffff1673ffffffffffffffffffffffffffffffffffffffff16815260200190815260200160002060010180546001816001161561010002031660029004905011156127a2573390506127a7565b600090505b8091505090565b3373ffffffffffffffffffffffffffffffffffffffff16600060019054906101000a900473ffffffffffffffffffffffffffffffffffffffff1673ffffffffffffffffffffffffffffffffffffffff161461280857600080fd5b60606040518060400160405280600681526020017f6c6f67696e5f0000000000000000000000000000000000000000000000000000815250905060608173__LibConcatenateStrings_________________63266001d39091856040518363ffffffff1660e01b8152600401808060200180602001838103835285818151815260200191508051906020019080838360005b838110156128b557808201518184015260208101905061289a565b50505050905090810190601f1680156128e25780820380516001836020036101000a031916815260200191505b50838103825284818151815260200191508051906020019080838360005b8381101561291b578082015181840152602081019050612900565b50505050905090810190601f1680156129485780820380516001836020036101000a031916815260200191505b5094505050505060006040518083038186803b15801561296757600080fd5b505af415801561297b573d6000803e3d6000fd5b505050506040513d6000823e3d601f19601f8201168201806040525060208110156129a557600080fd5b81019080805160405193929190846401000000008211156129c557600080fd5b838201915060208201858111156129db57600080fd5b82518660018202830111640100000000821117156129f857600080fd5b8083526020830192505050908051906020019080838360005b83811015612a2c578082015181840152602081019050612a11565b50505050905090810190601f168015612a595780820380516001836020036101000a031916815260200191505b506040525050509050604051806040016040528082815260200184815250600160008673ffffffffffffffffffffffffffffffffffffffff1673ffffffffffffffffffffffffffffffffffffffff1681526020019081526020016000206000820151816000019080519060200190612ad2929190615b84565b506020820151816001019080519060200190612aef929190615b84565b509050507fab3562bab9e824ea5bd0d7e0ef837e93d1f7a8f3ee468ae9cb2c04d960bfc6d4836040518080602001828103825283818151815260200191508051906020019080838360005b83811015612b55578082015181840152602081019050612b3a565b50505050905090810190601f168015612b825780820380516001836020036101000a031916815260200191505b509250505060405180910390a150505050565b600060608060006007541415612baf576007549250612bc8565b612bc560016007546159f290919063ffffffff16565b92505b600660008481526020019081526020016000206000016000018054600181600116156101000203166002900480601f016020809104026020016040519081016040528092919081815260200182805460018160011615610100020316600290048015612c755780601f10612c4a57610100808354040283529160200191612c75565b820191906000526020600020905b815481529060010190602001808311612c5857829003601f168201915b50505050509150600660008481526020019081526020016000206000016001018054600181600116156101000203166002900480601f016020809104026020016040519081016040528092919081815260200182805460018160011615610100020316600290048015612d295780601f10612cfe57610100808354040283529160200191612d29565b820191906000526020600020905b815481529060010190602001808311612d0c57829003601f168201915b50505050509050909192565b6000809054906101000a900460ff1681565b6000600360003373ffffffffffffffffffffffffffffffffffffffff1673ffffffffffffffffffffffffffffffffffffffff16815260200190815260200160002060010180546001816001161561010002031660029004905011612daa57600080fd5b6000809054906101000a900460ff1615612dc357600080fd5b600115156006600084815260200190815260200160002060000160040160009054906101000a900460ff16151514612dfa57600080fd5b6040518060400160405280600781526020017f6d61727269656400000000000000000000000000000000000000000000000000815250600660008481526020019081526020016000206005019080519060200190612e59929190615c04565b5080600660008481526020019081526020016000206006019080519060200190612e84929190615c04565b507fc7b118d015ed4a95450d7ff616d44d5a9ff7ad9d46e3360ac8ae088efd6a555281836040518080602001838152602001828103825284818151815260200191508051906020019080838360005b83811015612eee578082015181840152602081019050612ed3565b50505050905090810190601f168015612f1b5780820380516001836020036101000a031916815260200191505b50935050505060405180910390a15050565b6000600260003373ffffffffffffffffffffffffffffffffffffffff1673ffffffffffffffffffffffffffffffffffffffff16815260200190815260200160002060010180546001816001161561010002031660029004905011612f9057600080fd5b6000809054906101000a900460ff1615612fa957600080fd5b600015156004600084815260200190815260200160002060040160009054906101000a900460ff16151514612fdd57600080fd5b80600460008481526020019081526020016000206003019080519060200190613007929190615c04565b507f1e7eb9eaef0d861c745bc06375ff0a8666234b9cdcb169e8315785e073aba3cd82826040518083815260200180602001828103825283818151815260200191508051906020019080838360005b83811015613071578082015181840152602081019050613056565b50505050905090810190601f16801561309e5780820380516001836020036101000a031916815260200191505b50935050505060405180910390a15050565b60008060019054906101000a900473ffffffffffffffffffffffffffffffffffffffff16905090565b600060019054906101000a900473ffffffffffffffffffffffffffffffffffffffff1681565b6000600260003373ffffffffffffffffffffffffffffffffffffffff1673ffffffffffffffffffffffffffffffffffffffff1681526020019081526020016000206001018054600181600116156101000203166002900490501161316257600080fd5b6000809054906101000a900460ff161561317b57600080fd5b600015156004600084815260200190815260200160002060040160009054906101000a900460ff161515146131af57600080fd5b806004600084815260200190815260200160002060010190805190602001906131d9929190615c04565b507ff502e320ec34cb6eccc2e9fa05b67e4ad4519ed2134b0c543bd78d5ef1ae07f182826040518083815260200180602001828103825283818151815260200191508051906020019080838360005b83811015613243578082015181840152602081019050613228565b50505050905090810190601f1680156132705780820380516001836020036101000a031916815260200191505b50935050505060405180910390a15050565b81805190602001206008846040518082805190602001908083835b602083106132c0578051825260208201915060208101905060208303925061329d565b6001836020036101000a0380198251168184511680821785525050505050509050019150509081526020016040518091039020600101541461330157600080fd5b600081805190602001209050806008856040518082805190602001908083835b602083106133445780518252602082019150602081019050602083039250613321565b6001836020036101000a03801982511681845116808217855250505050505090500191505090815260200160405180910390206001018190555050505050565b3373ffffffffffffffffffffffffffffffffffffffff16600060019054906101000a900473ffffffffffffffffffffffffffffffffffffffff1673ffffffffffffffffffffffffffffffffffffffff16146133de57600080fd5b60016000806101000a81548160ff021916908315150217905550565b6060806060806000600460008781526020019081526020016000206000016004600088815260200190815260200160002060010160046000898152602001908152602001600020600201600460008a8152602001908152602001600020600301600460008b815260200190815260200160002060040160009054906101000a900460ff16848054600181600116156101000203166002900480601f0160208091040260200160405190810160405280929190818152602001828054600181600116156101000203166002900480156135135780601f106134e857610100808354040283529160200191613513565b820191906000526020600020905b8154815290600101906020018083116134f657829003601f168201915b50505050509450838054600181600116156101000203166002900480601f0160208091040260200160405190810160405280929190818152602001828054600181600116156101000203166002900480156135af5780601f10613584576101008083540402835291602001916135af565b820191906000526020600020905b81548152906001019060200180831161359257829003601f168201915b50505050509350828054600181600116156101000203166002900480601f01602080910402602001604051908101604052809291908181526020018280546001816001161561010002031660029004801561364b5780601f106136205761010080835404028352916020019161364b565b820191906000526020600020905b81548152906001019060200180831161362e57829003601f168201915b50505050509250818054600181600116156101000203166002900480601f0160208091040260200160405190810160405280929190818152602001828054600181600116156101000203166002900480156136e75780601f106136bc576101008083540402835291602001916136e7565b820191906000526020600020905b8154815290600101906020018083116136ca57829003601f168201915b505050505091509450945094509450945091939590929450565b600080600260003373ffffffffffffffffffffffffffffffffffffffff1673ffffffffffffffffffffffffffffffffffffffff1681526020019081526020016000206001018054600181600116156101000203166002900490501161376557600080fd5b6000809054906101000a900460ff161561377e57600080fd5b600015156004600084815260200190815260200160002060040160009054906101000a900460ff161515146137b257600080fd5b60016004600084815260200190815260200160002060040160006101000a81548160ff02191690831515021790555060606040518060400160405280600681526020017f6c6f67696e5f0000000000000000000000000000000000000000000000000000815250905060608173__LibConcatenateStrings_________________63266001d39091600460008881526020019081526020016000206001016040518363ffffffff1660e01b8152600401808060200180602001838103835285818151815260200191508051906020019080838360005b838110156138a3578082015181840152602081019050613888565b50505050905090810190601f1680156138d05780820380516001836020036101000a031916815260200191505b508381038252848181546001816001161561010002031660029004815260200191508054600181600116156101000203166002900480156139525780601f1061392757610100808354040283529160200191613952565b820191906000526020600020905b81548152906001019060200180831161393557829003601f168201915b505094505050505060006040518083038186803b15801561397257600080fd5b505af4158015613986573d6000803e3d6000fd5b505050506040513d6000823e3d601f19601f8201168201806040525060208110156139b057600080fd5b81019080805160405193929190846401000000008211156139d057600080fd5b838201915060208201858111156139e657600080fd5b8251866001820283011164010000000082111715613a0357600080fd5b8083526020830192505050908051906020019080838360005b83811015613a37578082015181840152602081019050613a1c565b50505050905090810190601f168015613a645780820380516001836020036101000a031916815260200191505b5060405250505090508073__LibConcatenateStrings_________________63266001d39091600460008881526020019081526020016000206002016040518363ffffffff1660e01b8152600401808060200180602001838103835285818151815260200191508051906020019080838360005b83811015613af3578082015181840152602081019050613ad8565b50505050905090810190601f168015613b205780820380516001836020036101000a031916815260200191505b50838103825284818154600181600116156101000203166002900481526020019150805460018160011615610100020316600290048015613ba25780601f10613b7757610100808354040283529160200191613ba2565b820191906000526020600020905b815481529060010190602001808311613b8557829003601f168201915b505094505050505060006040518083038186803b158015613bc257600080fd5b505af4158015613bd6573d6000803e3d6000fd5b505050506040513d6000823e3d601f19601f820116820180604052506020811015613c0057600080fd5b8101908080516040519392919084640100000000821115613c2057600080fd5b83820191506020820185811115613c3657600080fd5b8251866001820283011164010000000082111715613c5357600080fd5b8083526020830192505050908051906020019080838360005b83811015613c87578082015181840152602081019050613c6c565b50505050905090810190601f168015613cb45780820380516001836020036101000a031916815260200191505b50604052505050915060606040518060400160405280600481526020017f7077645f00000000000000000000000000000000000000000000000000000000815250905060608173__LibConcatenateStrings_________________63266001d39091600460008a81526020019081526020016000206002016040518363ffffffff1660e01b8152600401808060200180602001838103835285818151815260200191508051906020019080838360005b83811015613d7f578082015181840152602081019050613d64565b50505050905090810190601f168015613dac5780820380516001836020036101000a031916815260200191505b50838103825284818154600181600116156101000203166002900481526020019150805460018160011615610100020316600290048015613e2e5780601f10613e0357610100808354040283529160200191613e2e565b820191906000526020600020905b815481529060010190602001808311613e1157829003601f168201915b505094505050505060006040518083038186803b158015613e4e57600080fd5b505af4158015613e62573d6000803e3d6000fd5b505050506040513d6000823e3d601f19601f820116820180604052506020811015613e8c57600080fd5b8101908080516040519392919084640100000000821115613eac57600080fd5b83820191506020820185811115613ec257600080fd5b8251866001820283011164010000000082111715613edf57600080fd5b8083526020830192505050908051906020019080838360005b83811015613f13578082015181840152602081019050613ef8565b50505050905090810190601f168015613f405780820380516001836020036101000a031916815260200191505b50604052505050905060008180519060200120905060006040518060400160405280600381526020017f6e657700000000000000000000000000000000000000000000000000000000008152508051906020012090506007549650613fb16001600754615a3c90919063ffffffff16565b6007819055506040518060800160405280600460008b81526020019081526020016000206040518060a0016040529081600082018054600181600116156101000203166002900480601f0160208091040260200160405190810160405280929190818152602001828054600181600116156101000203166002900480156140795780601f1061404e57610100808354040283529160200191614079565b820191906000526020600020905b81548152906001019060200180831161405c57829003601f168201915b50505050508152602001600182018054600181600116156101000203166002900480601f01602080910402602001604051908101604052809291908181526020018280546001816001161561010002031660029004801561411b5780601f106140f05761010080835404028352916020019161411b565b820191906000526020600020905b8154815290600101906020018083116140fe57829003601f168201915b50505050508152602001600282018054600181600116156101000203166002900480601f0160208091040260200160405190810160405280929190818152602001828054600181600116156101000203166002900480156141bd5780601f10614192576101008083540402835291602001916141bd565b820191906000526020600020905b8154815290600101906020018083116141a057829003601f168201915b50505050508152602001600382018054600181600116156101000203166002900480601f01602080910402602001604051908101604052809291908181526020018280546001816001161561010002031660029004801561425f5780601f106142345761010080835404028352916020019161425f565b820191906000526020600020905b81548152906001019060200180831161424257829003601f168201915b505050505081526020016004820160009054906101000a900460ff16151515158152505081526020016040518060400160405280600681526020017f73696e676c650000000000000000000000000000000000000000000000000000815250815260200160405180602001604052806000815250815260200187815250600660008981526020019081526020016000206000820151816000016000820151816000019080519060200190614314929190615b84565b506020820151816001019080519060200190614331929190615b84565b50604082015181600201908051906020019061434e929190615b84565b50606082015181600301908051906020019061436b929190615b84565b5060808201518160040160006101000a81548160ff021916908315150217905550505060208201518160050190805190602001906143aa929190615b84565b5060408201518160060190805190602001906143c7929190615b84565b5060608201518160070190805190602001906143e4929190615b84565b509050506040518060600160405280888152602001838152602001828152506008876040518082805190602001908083835b602083106144395780518252602082019150602081019050602083039250614416565b6001836020036101000a03801982511681845116808217855250505050505090500191505090815260200160405180910390206000820151816000015560208201518160010155604082015181600201559050507f742c345840647c71e989bcfe501f009faa76e04998bb4c2ea8b4adc5ac0659998888604051808381526020018281526020019250505060405180910390a1505050505050919050565b6000600260003373ffffffffffffffffffffffffffffffffffffffff1673ffffffffffffffffffffffffffffffffffffffff1681526020019081526020016000206001018054600181600116156101000203166002900490501161453a57600080fd5b6000809054906101000a900460ff161561455357600080fd5b600015156004600084815260200190815260200160002060040160009054906101000a900460ff1615151461458757600080fd5b806004600084815260200190815260200160002060000190805190602001906145b1929190615c04565b507fd54c32c31baee08c0e4dc04415766c93b588f80110ecf547a69e2c1b23ba024d82826040518083815260200180602001828103825283818151815260200191508051906020019080838360005b8381101561461b578082015181840152602081019050614600565b50505050905090810190601f1680156146485780820380516001836020036101000a031916815260200191505b50935050505060405180910390a15050565b600080600160003373ffffffffffffffffffffffffffffffffffffffff1673ffffffffffffffffffffffffffffffffffffffff168152602001908152602001600020600101805460018160011615610100020316600290049050116146be57600080fd5b6000809054906101000a900460ff16156146d757600080fd5b600060055490506146f46001600554615a3c90919063ffffffff16565b6005819055506040518060a0016040528087815260200186815260200185815260200184815260200160001515815250600460008381526020019081526020016000206000820151816000019080519060200190614753929190615b84565b506020820151816001019080519060200190614770929190615b84565b50604082015181600201908051906020019061478d929190615b84565b5060608201518160030190805190602001906147aa929190615b84565b5060808201518160040160006101000a81548160ff0219169083151502179055509050507f975e5fd57c7c0e6b1a8c1a5d6861dce72c6672a93848401afb36caa4eb90ba83868683604051808060200180602001848152602001838103835286818151815260200191508051906020019080838360005b8381101561483c578082015181840152602081019050614821565b50505050905090810190601f1680156148695780820380516001836020036101000a031916815260200191505b50838103825285818151815260200191508051906020019080838360005b838110156148a2578082015181840152602081019050614887565b50505050905090810190601f1680156148cf5780820380516001836020036101000a031916815260200191505b509550505050505060405180910390a180915050949350505050565b6060806060806060600115156006600088815260200190815260200160002060000160040160009054906101000a900460ff1615151461492a57600080fd5b600660008781526020019081526020016000206000016000016006600088815260200190815260200160002060000160010160066000898152602001908152602001600020600001600201600660008a8152602001908152602001600020600001600301600660008b8152602001908152602001600020600501848054600181600116156101000203166002900480601f016020809104026020016040519081016040528092919081815260200182805460018160011615610100020316600290048015614a395780601f10614a0e57610100808354040283529160200191614a39565b820191906000526020600020905b815481529060010190602001808311614a1c57829003601f168201915b50505050509450838054600181600116156101000203166002900480601f016020809104026020016040519081016040528092919081815260200182805460018160011615610100020316600290048015614ad55780601f10614aaa57610100808354040283529160200191614ad5565b820191906000526020600020905b815481529060010190602001808311614ab857829003601f168201915b50505050509350828054600181600116156101000203166002900480601f016020809104026020016040519081016040528092919081815260200182805460018160011615610100020316600290048015614b715780601f10614b4657610100808354040283529160200191614b71565b820191906000526020600020905b815481529060010190602001808311614b5457829003601f168201915b50505050509250818054600181600116156101000203166002900480601f016020809104026020016040519081016040528092919081815260200182805460018160011615610100020316600290048015614c0d5780601f10614be257610100808354040283529160200191614c0d565b820191906000526020600020905b815481529060010190602001808311614bf057829003601f168201915b50505050509150808054600181600116156101000203166002900480601f016020809104026020016040519081016040528092919081815260200182805460018160011615610100020316600290048015614ca95780601f10614c7e57610100808354040283529160200191614ca9565b820191906000526020600020905b815481529060010190602001808311614c8c57829003601f168201915b505050505090509450945094509450945091939590929450565b6000600260003373ffffffffffffffffffffffffffffffffffffffff1673ffffffffffffffffffffffffffffffffffffffff16815260200190815260200160002060010180546001816001161561010002031660029004905011614d2657600080fd5b6000809054906101000a900460ff1615614d3f57600080fd5b600015156004600084815260200190815260200160002060040160009054906101000a900460ff16151514614d7357600080fd5b80600460008481526020019081526020016000206002019080519060200190614d9d929190615c04565b507f2db8565135b423afff0e4bfc4427643dbb5ad57c84a21bd276051fc66381487182826040518083815260200180602001828103825283818151815260200191508051906020019080838360005b83811015614e07578082015181840152602081019050614dec565b50505050905090810190601f168015614e345780820380516001836020036101000a031916815260200191505b50935050505060405180910390a15050565b600060608060006005541415614e60576005549250614e79565b614e7660016005546159f290919063ffffffff16565b92505b600460008481526020019081526020016000206000018054600181600116156101000203166002900480601f016020809104026020016040519081016040528092919081815260200182805460018160011615610100020316600290048015614f235780601f10614ef857610100808354040283529160200191614f23565b820191906000526020600020905b815481529060010190602001808311614f0657829003601f168201915b50505050509150600460008481526020019081526020016000206001018054600181600116156101000203166002900480601f016020809104026020016040519081016040528092919081815260200182805460018160011615610100020316600290048015614fd45780601f10614fa957610100808354040283529160200191614fd4565b820191906000526020600020905b815481529060010190602001808311614fb757829003601f168201915b50505050509050909192565b3373ffffffffffffffffffffffffffffffffffffffff16600060019054906101000a900473ffffffffffffffffffffffffffffffffffffffff1673ffffffffffffffffffffffffffffffffffffffff161461503a57600080fd5b60606040518060400160405280600681526020017f6c6f67696e5f0000000000000000000000000000000000000000000000000000815250905060608173__LibConcatenateStrings_________________63266001d39091856040518363ffffffff1660e01b8152600401808060200180602001838103835285818151815260200191508051906020019080838360005b838110156150e75780820151818401526020810190506150cc565b50505050905090810190601f1680156151145780820380516001836020036101000a031916815260200191505b50838103825284818151815260200191508051906020019080838360005b8381101561514d578082015181840152602081019050615132565b50505050905090810190601f16801561517a5780820380516001836020036101000a031916815260200191505b5094505050505060006040518083038186803b15801561519957600080fd5b505af41580156151ad573d6000803e3d6000fd5b505050506040513d6000823e3d601f19601f8201168201806040525060208110156151d757600080fd5b81019080805160405193929190846401000000008211156151f757600080fd5b8382019150602082018581111561520d57600080fd5b825186600182028301116401000000008211171561522a57600080fd5b8083526020830192505050908051906020019080838360005b8381101561525e578082015181840152602081019050615243565b50505050905090810190601f16801561528b5780820380516001836020036101000a031916815260200191505b506040525050509050604051806040016040528082815260200184815250600260008673ffffffffffffffffffffffffffffffffffffffff1673ffffffffffffffffffffffffffffffffffffffff1681526020019081526020016000206000820151816000019080519060200190615304929190615b84565b506020820151816001019080519060200190615321929190615b84565b509050507fa7b9cf10953e89fba48615bdedc4c557e19daee10f4f77f3ab1a2d2bb951a041836040518080602001828103825283818151815260200191508051906020019080838360005b8381101561538757808201518184015260208101905061536c565b50505050905090810190601f1680156153b45780820380516001836020036101000a031916815260200191505b509250505060405180910390a150505050565b600081805190602001206008846040518082805190602001908083835b6020831061540757805182526020820191506020810190506020830392506153e4565b6001836020036101000a0380198251168184511680821785525050505050509050019150509081526020016040518091039020600101541461544857600080fd5b60006008846040518082805190602001908083835b60208310615480578051825260208201915060208101905060208303925061545d565b6001836020036101000a038019825116818451168082178552505050505050905001915050908152602001604051809103902060000154905060608173__LibTransformUintString________________63e939567990916040518263ffffffff1660e01b81526004018082815260200191505060006040518083038186803b15801561550c57600080fd5b505af4158015615520573d6000803e3d6000fd5b505050506040513d6000823e3d601f19601f82011682018060405250602081101561554a57600080fd5b810190808051604051939291908464010000000082111561556a57600080fd5b8382019150602082018581111561558057600080fd5b825186600182028301116401000000008211171561559d57600080fd5b8083526020830192505050908051906020019080838360005b838110156155d15780820151818401526020810190506155b6565b50505050905090810190601f1680156155fe5780820380516001836020036101000a031916815260200191505b50604052505050905060608173__LibConcatenateStrings_________________63266001d39091876040518363ffffffff1660e01b8152600401808060200180602001838103835285818151815260200191508051906020019080838360005b8381101561567a57808201518184015260208101905061565f565b50505050905090810190601f1680156156a75780820380516001836020036101000a031916815260200191505b50838103825284818151815260200191508051906020019080838360005b838110156156e05780820151818401526020810190506156c5565b50505050905090810190601f16801561570d5780820380516001836020036101000a031916815260200191505b5094505050505060006040518083038186803b15801561572c57600080fd5b505af4158015615740573d6000803e3d6000fd5b505050506040513d6000823e3d601f19601f82011682018060405250602081101561576a57600080fd5b810190808051604051939291908464010000000082111561578a57600080fd5b838201915060208201858111156157a057600080fd5b82518660018202830111640100000000821117156157bd57600080fd5b8083526020830192505050908051906020019080838360005b838110156157f15780820151818401526020810190506157d6565b50505050905090810190601f16801561581e5780820380516001836020036101000a031916815260200191505b506040525050509050600081805190602001209050806008886040518082805190602001908083835b6020831061586a5780518252602082019150602081019050602083039250615847565b6001836020036101000a0380198251168184511680821785525050505050509050019150509081526020016040518091039020600201819055506008876040518082805190602001908083835b602083106158da57805182526020820191506020810190506020830392506158b7565b6001836020036101000a0380198251168184511680821785525050505050509050019150509081526020016040518091039020600960008381526020019081526020016000206000820154816000015560018201548160010155600282015481600201559050507fb3c104ebb8d7c2039282f84239773ba591395f85016526077eeab6912a11dda487826040518080602001838152602001828103825284818151815260200191508051906020019080838360005b838110156159aa57808201518184015260208101905061598f565b50505050905090810190601f1680156159d75780820380516001836020036101000a031916815260200191505b50935050505060405180910390a18094505050505092915050565b6000615a3483836040518060400160405280601e81526020017f536166654d6174683a207375627472616374696f6e206f766572666c6f770000815250615ac4565b905092915050565b600080828401905083811015615aba576040517f08c379a000000000000000000000000000000000000000000000000000000000815260040180806020018281038252601b8152602001807f536166654d6174683a206164646974696f6e206f766572666c6f77000000000081525060200191505060405180910390fd5b8091505092915050565b6000838311158290615b71576040517f08c379a00000000000000000000000000000000000000000000000000000000081526004018080602001828103825283818151815260200191508051906020019080838360005b83811015615b36578082015181840152602081019050615b1b565b50505050905090810190601f168015615b635780820380516001836020036101000a031916815260200191505b509250505060405180910390fd5b5060008385039050809150509392505050565b828054600181600116156101000203166002900490600052602060002090601f016020900481019282601f10615bc557805160ff1916838001178555615bf3565b82800160010185558215615bf3579182015b82811115615bf2578251825591602001919060010190615bd7565b5b509050615c009190615c84565b5090565b828054600181600116156101000203166002900490600052602060002090601f016020900481019282601f10615c4557805160ff1916838001178555615c73565b82800160010185558215615c73579182015b82811115615c72578251825591602001919060010190615c57565b5b509050615c809190615c84565b5090565b615ca691905b80821115615ca2576000816000905550600101615c8a565b5090565b9056fea265627a7a723158200f765b8ec2d9cd117a3fb0e517490602be4fa3e4c5e1e11ba834d5f315efe05b64736f6c63430005100032",
  "source": "// SPDX-License-Identifier: MIT\r\npragma solidity >=0.4.21 <0.8.0;\r\n\r\n/* \r\n* Libraries needed in the contract 'Civil State' contract\r\n*/\r\n/** @title LibConcatenateStrings. */\r\n/// @dev Library with a function for concatenating strings\r\nimport {LibConcatenateStrings} from './LibConcatenateStrings.sol';\r\n/** @title LibTransformUintString. */\r\n/// @dev Library with a function to transform an 'uint' in a 'string\r\nimport {LibTransformUintString} from './LibTransformUintString.sol';\r\n/** @title SafeMath. */\r\n/** \r\n * @dev Library with functions to realize arithmetic operations with overflow checks\r\n *\r\n * Contract collection retrieved from : https://github.com/OpenZeppelin/openzeppelin-contracts/blob/master/contracts/math/SafeMath.sol\r\n *\r\n*/\r\nimport {SafeMath} from './SafeMath.sol';\r\n\r\n/** @title CivilState. */\r\ncontract CivilState_backup {\r\n    /// @dev Include libraries codes and initialize its use in the contract\r\n    using LibConcatenateStrings for string;\r\n    using LibTransformUintString for *;\r\n    using SafeMath for uint; \r\n\r\n    /**\r\n     * @dev State variable to allow contract functionnlity to be stopped\r\n     * For implementing circuit breaker pattern\r\n     */ \r\n    bool public stopped = false;\r\n    \r\n    /// @dev Owner address\r\n    address payable public owner;\r\n\r\n    /** \r\n    * @dev Contains the birth elements \r\n    * Elements : name, last name, birth date, birth city and verification status\r\n    */\r\n    struct Birth {\r\n        string name;\r\n        string lastName;\r\n        string birthDate;\r\n        string birthCity;\r\n        bool isVerified;\r\n    }\r\n\r\n    /** \r\n    * @dev Contains the identity elements \r\n    * Elements : information from the birth, marital status, marriage date and user login\r\n    */    \r\n    struct Identity {\r\n        Birth birthinfo;\r\n        string maritalStatus;\r\n        string marriageDate;\r\n        string userLogin;\r\n    }\r\n\r\n    /** \r\n    * @dev Contains users (citizens) identifiers \r\n    * Elements : \r\n    *   - Identification number\r\n    *   - Hash of the user's password\r\n    *   - Hash of the last certification generated by the user\r\n    */    \r\n    struct Identifier {\r\n        uint userIdentityCount;\r\n        bytes32 userPassword;\r\n        bytes32 newCertification;\r\n    }\r\n\r\n    /** \r\n    * @dev Contains hospital, prefecture and city hall members authentification information\r\n    * Elements : member login, member name\r\n    */    \r\n    struct Authentification {\r\n        string login;\r\n        string name;\r\n    }\r\n    \r\n    \r\n    /// @dev Maps hospital members addresses to their authentification information\r\n    mapping (address => Authentification) hospitalMembers;\r\n\r\n    /// @dev Maps prefecture members addresses to their authentification information\r\n    mapping (address => Authentification) prefectureMembers;\r\n\r\n    /// @dev Maps city hall members addresses to their authentification information\r\n    mapping (address => Authentification) cityHallMembers;\r\n\r\n    /// @dev Maps births identifications to the birth information\r\n    mapping (uint => Birth) births;\r\n    uint birthsCount = 0;\r\n\r\n    /// @dev Maps identities identifications to the identity (citizen) information \r\n    mapping (uint => Identity) identities;\r\n    uint identitiesCount = 0;\r\n\r\n    /// @dev Maps user login (string) to the user identifier\r\n    mapping(string => Identifier) citizenIdentifiers;\r\n\r\n    /// @dev Maps user certification hash (bytes32) to the user identifier\r\n    mapping(bytes32 => Identifier) idCertifications;\r\n\r\n    /**\r\n     * Events\r\n     */ \r\n    /// @dev Event signaling that a new hospital member was added\r\n    event LogEventAddHospitalMember(string memberName);\r\n    /// @dev Event signaling that a new prefecture member was added\r\n    event LogEventAddPrefectureMember(string memberName);\r\n    /// @dev Event signaling that a new cityHall member was added\r\n    event LogEventAddCityHallMember(string memberName);\r\n    /// @dev Event signaling that a new birth member was declared\r\n    event LogEventBirthAdded (string name, string lastName, uint birthId);\r\n    \r\n    /// @dev Event signaling that a new identity was verified\r\n    event LogEventVerifyIdentity(uint birthId, uint identityId);\r\n    event LogEventChangeName(uint birthId, string newName);\r\n    event LogEventChangeLastName(uint birthId, string newLastName);\r\n    event LogEventChangeBirthCity(uint birthId, string newBirthCity);\r\n    event LogEventChangeBirthDate(uint birthId, string newBirthDate);\r\n\r\n    /// @dev Event signaling that new marriage member was declared\r\n    event LogEventDeclareMarriage(string marriageDate, uint identityId);\r\n    /// @dev Event signaling that a certification was generated\r\n    event LogEventCertificationGenerated(string login, bytes32 identity_hash);\r\n    /// @dev Event verifying a certification\r\n    event LogEventVerifyCertification (string name, string lastName, string birthDate, string birthCity, string maritalStatus);\r\n\r\n    /**\r\n     * Modifiers\r\n     */ \r\n\r\n    /**\r\n     * @dev Permit certain functions only when 'stopped' is false\r\n     * Circuit breaker pattern\r\n     */\r\n    modifier stopInEmergency { \r\n        require(!stopped); _; \r\n    }\r\n    /**\r\n     * @dev Permit withdraw function only when 'stopped' is true\r\n     * Circuit breaker pattern\r\n     */    \r\n    modifier onlyInEmergency { \r\n        require(stopped); _; \r\n    }    \r\n\r\n    \r\n    \r\n    /// @dev Throws an error if the msg.sender is not the owner.\r\n    modifier isAdmin () {\r\n        require(owner == msg.sender);\r\n        _;\r\n    }\r\n\r\n    /// @dev Throws an error if the msg.sender is not a hospital member.\r\n    modifier isHospital () {\r\n        require (bytes(hospitalMembers[msg.sender].name).length > 0);\r\n        _;\r\n    }\r\n\r\n    /// @dev Throws an error if the msg.sender is not a prefecture member.\r\n    modifier isPrefecture () {\r\n        require (bytes(prefectureMembers[msg.sender].name).length > 0);\r\n        _;\r\n    }\r\n\r\n    /// @dev Throws an error if the msg.sender is not a city hall member.\r\n    modifier isCityHall () {\r\n        require (bytes(cityHallMembers[msg.sender].name).length > 0);\r\n        _;\r\n    }\r\n\r\n    /// @dev Contract constructor sets the owner\r\n    constructor () public {\r\n        owner = msg.sender;\r\n    }    \r\n  \r\n\r\n    /**\r\n     * @dev Changes stopped state variable to 'true'\r\n     * Only the admin (owner) can call it\r\n     * Circuit breaker pattern\r\n     */\r\n    function stopCivilStateContract() public isAdmin {\r\n        stopped = true;\r\n    }\r\n\r\n    /**\r\n     * @dev Withdraws contract balance to the owner's account\r\n     * Only the admin (owner) can call it\r\n     * Only possible when 'stopped' is true\r\n     * Circuit breaker pattern\r\n     */\r\n    function withdraw() onlyInEmergency public {\r\n        owner.transfer(address(this).balance);\r\n    }\r\n\r\n    /**\r\n     * @dev Destroys contract and removes it from the blockchain\r\n     * Only the admin (owner) can call it\r\n     * Mortal pattern\r\n     */\r\n    function kill() public isAdmin {\r\n\r\n        selfdestruct(address(uint160(owner))); // cast owner to address payable\r\n    }\r\n\r\n    /**\r\n     * Helper functions\r\n     */\r\n    /// @dev Gets the births count.\r\n    /// @return birthsCount Births count.\r\n    function getBirthsCount() public view returns(uint) {\r\n        return birthsCount; \r\n    }\r\n\r\n    /// @dev Gets the identitues count.\r\n    /// @return identitiesCount Identities count.\r\n    function getIdentitiesCount() public view returns(uint){\r\n        return identitiesCount;\r\n    }\r\n\r\n    /// @dev Gets owner address.\r\n    /// @return Owner's address.\r\n    function getOwner() public view returns(address){\r\n        return owner;\r\n    }\r\n\r\n    /// @dev Verifies if the msg.sender is a hospital member.\r\n    /// @return The hospital member address (if it is a member, otherwise return '0x..0').\r\n    function isHospitalMember() public view returns(address){\r\n        address memberAddress;\r\n        if (bytes(hospitalMembers[msg.sender].name).length > 0) {\r\n            memberAddress = msg.sender;\r\n        } else {\r\n            memberAddress = 0x0000000000000000000000000000000000000000;\r\n        }\r\n        return memberAddress;\r\n    }\r\n\r\n    /// @dev Verifies if the msg.sender is a prefecture member.\r\n    /// @return The prefecture member address (if it is a member, otherwise return '0x..0').\r\n    function isPrefectureMember() public view returns(address){\r\n        address memberAddress;\r\n        if (bytes(prefectureMembers[msg.sender].name).length > 0) {\r\n            memberAddress = msg.sender;\r\n        } else {\r\n            memberAddress = 0x0000000000000000000000000000000000000000;\r\n        }\r\n        return memberAddress;\r\n    }\r\n\r\n    /// @dev Verifies if the msg.sender is a city hall member.\r\n    /// @return The city hall member address (if it is a member, otherwise return '0x..0').\r\n    function isCityHallMember() public view returns(address){\r\n        address memberAddress;\r\n        if (bytes(cityHallMembers[msg.sender].name).length > 0) {\r\n            memberAddress = msg.sender;\r\n        } else {\r\n            memberAddress = 0x0000000000000000000000000000000000000000;\r\n        }\r\n        return memberAddress;\r\n    }\r\n   \r\n    /**\r\n     * Admin functions\r\n     */\r\n\r\n    /// @dev Adds a hospital member.\r\n    /// @param _newMember Address of the new member.\r\n    /// @param _memberName Name of the new member.\r\n    function addHospitalMember (address _newMember, string memory _memberName) public isAdmin {\r\n        // Initialization of login\r\n        string memory login = \"login_\";\r\n        string memory _login = login.concatenate(_memberName);       \r\n        hospitalMembers[_newMember] = Authentification({\r\n            login : _login,\r\n            name : _memberName\r\n        });\r\n        emit LogEventAddHospitalMember(_memberName);\r\n    }\r\n\r\n    /// @dev Adds a prefecture member.\r\n    /// @param _newMember Address of the new member.\r\n    /// @param _memberName Name of the new member.\r\n    function addPrefectureMember (address _newMember, string memory _memberName) public isAdmin {\r\n        // Initialization of login\r\n        string memory login = \"login_\";\r\n        string memory _login = login.concatenate(_memberName); \r\n        prefectureMembers[_newMember] = Authentification({\r\n            login : _login,\r\n            name : _memberName\r\n        });\r\n        emit LogEventAddPrefectureMember(_memberName);\r\n    }\r\n\r\n    /// @dev Adds a city hall member.\r\n    /// @param _newMember Address of the new member.\r\n    /// @param _memberName Name of the new member.\r\n    function addCityHallMember (address _newMember, string memory _memberName) public isAdmin {\r\n        // Initialization of login\r\n        string memory login = \"login_\";\r\n        string memory _login = login.concatenate(_memberName); \r\n        cityHallMembers[_newMember] = Authentification({\r\n            login : _login,\r\n            name : _memberName\r\n        });\r\n        emit LogEventAddCityHallMember(_memberName);\r\n    }\r\n\r\n    /**\r\n     * Hospital members functions\r\n     */\r\n\r\n    /// @dev Adds a new birth.\r\n    /// @param _name Birth name.\r\n    /// @param _lastName Birth last name.\r\n    /// @param _birthDate Birth date.\r\n    /// @param _birthCity Birth city.\r\n    /// @return birthId The birth identification.       \r\n    function addBirth (string memory _name, string memory _lastName, string memory _birthDate, string memory _birthCity) public isHospital stopInEmergency returns(uint) {\r\n        uint birthId = birthsCount;\r\n        birthsCount = birthsCount.add(1);\r\n        births[birthId] = Birth({\r\n            name : _name,\r\n            lastName : _lastName,\r\n            birthDate : _birthDate,\r\n            birthCity : _birthCity,\r\n            isVerified : false\r\n        });\r\n        emit LogEventBirthAdded(_name, _lastName, birthId);\r\n        return birthId;\r\n    }\r\n\r\n    /// @dev Gets the identification of the last birth added  \r\n    /// @return _birthId Birth identification of the last birth added.\r\n    /// @return _name Birth name of the last birth added.\r\n    /// @return _lastName Birth last name of the last birth added.    \r\n    function getBirthId () public view returns (uint _birthId, string memory _name, string memory _lastName){\r\n        if (birthsCount == 0) {\r\n          _birthId = birthsCount;  \r\n        } else {\r\n          _birthId = birthsCount.sub(1);  \r\n        }\r\n        _name = births[_birthId].name;\r\n        _lastName = births[_birthId].lastName;\r\n \r\n    }\r\n\r\n    /**\r\n     * Prefecture members functions\r\n     */\r\n\r\n    function changeName (uint birthId, string memory newName) public isPrefecture stopInEmergency {\r\n        require(births[birthId].isVerified == false);\r\n        births[birthId].name = newName;\r\n        emit LogEventChangeName(birthId, newName);        \r\n    }\r\n    \r\n    function changeLastName (uint birthId, string memory newLastName) public isPrefecture stopInEmergency {\r\n        require(births[birthId].isVerified == false);\r\n        births[birthId].lastName = newLastName;\r\n        emit LogEventChangeLastName(birthId, newLastName);        \r\n    }             \r\n\r\n    function changeBirthCity (uint birthId, string memory newBirthCity) public isPrefecture stopInEmergency {\r\n        require(births[birthId].isVerified == false);\r\n        births[birthId].birthCity = newBirthCity;\r\n        emit LogEventChangeBirthCity(birthId, newBirthCity);        \r\n    }\r\n\r\n    function changeBirthDate (uint birthId, string memory newBirthDate) public isPrefecture stopInEmergency {\r\n        require(births[birthId].isVerified == false);\r\n        births[birthId].birthDate = newBirthDate;\r\n        emit LogEventChangeBirthDate(birthId, newBirthDate);        \r\n    }\r\n\r\n    /// @dev Verifies an identity.\r\n    /// @param birthId Birth identitication to verify.\r\n    /// @return identityId The identity identification.\r\n    function verifyIdentity (uint birthId) public isPrefecture stopInEmergency returns (uint identityId) {\r\n        require(births[birthId].isVerified == false);\r\n        births[birthId].isVerified = true;\r\n        \r\n        string memory login = \"login_\";\r\n        string memory _login = login.concatenate(births[birthId].lastName); \r\n        login = _login.concatenate(births[birthId].birthDate);        \r\n        \r\n        string memory pwd = \"pwd_\";\r\n        string memory password = pwd.concatenate(births[birthId].birthDate);\r\n        bytes32 passwordHash = keccak256(bytes(password));\r\n\r\n        bytes32 lambdaCertification = keccak256(bytes(\"new\"));\r\n\r\n        identityId = identitiesCount;\r\n        identitiesCount = identitiesCount.add(1);\r\n        identities[identityId] = Identity({\r\n            birthinfo : births[birthId],\r\n            maritalStatus : \"single\",\r\n            marriageDate: \"\",\r\n            userLogin: login\r\n        });\r\n\r\n        citizenIdentifiers[login] = Identifier({\r\n            userIdentityCount : identityId,\r\n            userPassword : passwordHash,\r\n            newCertification : lambdaCertification\r\n        });\r\n\r\n        emit LogEventVerifyIdentity(birthId, identityId);\r\n    }\r\n\r\n    /// @dev Gets the identification of the last identity verified  \r\n    /// @return _identity Identity identification of the last identity verified.\r\n    /// @return _name Identity name of the last identity verified.\r\n    /// @return _lastName Identity last name of the last identity verified.\r\n    function getIdentityId() public view returns (uint _identity, string memory _name, string memory _lastName){\r\n        if (identitiesCount == 0) {\r\n          _identity = identitiesCount;  \r\n        } else {\r\n          _identity = identitiesCount.sub(1);  \r\n        }\r\n        _name = identities[_identity].birthinfo.name;\r\n        _lastName = identities[_identity].birthinfo.lastName; \r\n    }\r\n\r\n    /**\r\n     * City hall members functions\r\n     */  \r\n\r\n    /// @dev Declares a marriage.\r\n    /// @param identityId Idenity identitication to declare marriage.\r\n    /// @param _marriageDate Marriage date.\r\n    function declareMarriage (uint identityId, string memory _marriageDate) public isCityHall stopInEmergency {\r\n        require(identities[identityId].birthinfo.isVerified == true);\r\n        \r\n        identities[identityId].maritalStatus = \"married\";\r\n        identities[identityId].marriageDate = _marriageDate;\r\n\r\n        emit LogEventDeclareMarriage(_marriageDate, identityId);\r\n    }\r\n\r\n    /**\r\n     * Citizens (users) and responsible entities functions\r\n     */\r\n\r\n    /// @dev Changes the password.\r\n    /// @param _login User login.\r\n    /// @param _oldPwd Old password.\r\n    /// @param _newPwd New password.    \r\n    function modifyMyPassword (string memory _login, string memory _oldPwd, string memory _newPwd) public{\r\n        //Verify that the user used the good password\r\n        require (citizenIdentifiers[_login].userPassword == keccak256(bytes(_oldPwd)));\r\n        bytes32 newPwd = keccak256(bytes(_newPwd));\r\n        citizenIdentifiers[_login].userPassword = newPwd;\r\n    }\r\n\r\n    /// @dev Generates identity certification.\r\n    /// @param login User login.\r\n    /// @param pwd User password.\r\n    /// @return identity_hash The certification hash.\r\n    function generateIdCertification (string memory login, string memory pwd) public returns (bytes32){\r\n        //Verify that the user used the good password\r\n        require (citizenIdentifiers[login].userPassword == keccak256(bytes(pwd)));\r\n        // Get the user identity count\r\n        uint userIdCount = citizenIdentifiers[login].userIdentityCount;\r\n        string memory userIdCountString = userIdCount.uintToString();\r\n        string memory contIdentifiers = userIdCountString.concatenate(pwd);\r\n        bytes32 identity_hash = keccak256(bytes(contIdentifiers));\r\n        citizenIdentifiers[login].newCertification = identity_hash;\r\n        // add certification to mapping\r\n        idCertifications[identity_hash] = citizenIdentifiers[login];\r\n        emit LogEventCertificationGenerated(login, identity_hash);\r\n        return identity_hash;\r\n    }\r\n    \r\n    /// @dev Gets the hash of the last certification generated by the user\r\n    /// @param _login User login.\r\n    /// @return identity_hash The certification hash.\r\n    function getCertification(string memory _login) public view returns (bytes32) {\r\n        return citizenIdentifiers[_login].newCertification;\r\n    }\r\n    \r\n    /// @dev Verifies a certification\r\n    /// @param id_hash The certification hash.\r\n    /// @return _name The citizen name.\r\n    /// @return _lastName The citizen last name.\r\n    /// @return _birthDate The citizen birth date.\r\n    /// @return _birthCity The citizen birth city.\r\n    function verifyCertification (bytes32 id_hash) public returns (string memory _name, string memory _lastName, string memory _birthDate, string memory _birthCity, string memory _maritalStatus) {\r\n        // get userIdCount\r\n        uint userIdCount = idCertifications[id_hash].userIdentityCount;\r\n        emit LogEventVerifyCertification (identities[userIdCount].birthinfo.name, identities[userIdCount].birthinfo.lastName, identities[userIdCount].birthinfo.birthDate, identities[userIdCount].birthinfo.birthCity, identities[userIdCount].maritalStatus);\r\n        return(identities[userIdCount].birthinfo.name, identities[userIdCount].birthinfo.lastName, identities[userIdCount].birthinfo.birthDate, identities[userIdCount].birthinfo.birthCity, identities[userIdCount].maritalStatus);\r\n\r\n    }\r\n    \r\n    /**\r\n     * Read functions\r\n     */\r\n\r\n    /// @dev Gets a birth information\r\n    /// @param birthId The birth identification.\r\n    /// @return _name The birth name.\r\n    /// @return _lastName The birth last name.\r\n    /// @return _birthDate The birth date.\r\n    /// @return _birthCity The birth city.\r\n     /// @return _isVerified The birth verification status.   \r\n    function readBirth(uint birthId) public view returns(string memory _name, string memory _lastName, string memory _birthDate, string memory _birthCity, bool _isVerified){\r\n        return (births[birthId].name, births[birthId].lastName, births[birthId].birthDate, births[birthId].birthCity, births[birthId].isVerified);\r\n    }        \r\n\r\n    /// @dev Gets an identity information\r\n    /// @param identityId The identity identification.\r\n    /// @return _name The citizen name.\r\n    /// @return _lastName The citizen last name.\r\n    /// @return _birthDate The citizen birth date.\r\n    /// @return _birthCity The citizen birth city.\r\n    /// @return _maritalStatus The citizen marital status.    \r\n    function readIdentity(uint identityId) public view returns(string memory _name, string memory _lastName, string memory _birthDate, string memory _birthCity, string memory _maritalStatus){\r\n        require(identities[identityId].birthinfo.isVerified == true);\r\n        return (identities[identityId].birthinfo.name, identities[identityId].birthinfo.lastName, identities[identityId].birthinfo.birthDate, identities[identityId].birthinfo.birthCity, identities[identityId].maritalStatus);\r\n    }\r\n \r\n}",
  "sourcePath": "C:/Users/anatereza.mascarenha/Documents/POC Etat Civil/contracts/CivilState_backup.sol",
  "compiler": {
    "name": "solc",
    "version": "0.5.16+commit.9c3226ce.Emscripten.clang"
  },
  "schemaVersion": "3.0.22",
  "updatedAt": "2021-02-12T09:23:46.815Z",
  "devdoc": {
    "methods": {
      "addBirth(string,string,string,string)": {
        "details": "Adds a new birth.",
        "params": {
          "_birthCity": "Birth city.",
          "_birthDate": "Birth date.",
          "_lastName": "Birth last name.",
          "_name": "Birth name."
        },
        "return": "birthId The birth identification.       "
      },
      "addCityHallMember(address,string)": {
        "details": "Adds a city hall member.",
        "params": {
          "_memberName": "Name of the new member.",
          "_newMember": "Address of the new member."
        }
      },
      "addHospitalMember(address,string)": {
        "details": "Adds a hospital member.",
        "params": {
          "_memberName": "Name of the new member.",
          "_newMember": "Address of the new member."
        }
      },
      "addPrefectureMember(address,string)": {
        "details": "Adds a prefecture member.",
        "params": {
          "_memberName": "Name of the new member.",
          "_newMember": "Address of the new member."
        }
      },
      "constructor": {
        "details": "Contract constructor sets the owner"
      },
      "declareMarriage(uint256,string)": {
        "details": "Declares a marriage.",
        "params": {
          "_marriageDate": "Marriage date.",
          "identityId": "Idenity identitication to declare marriage."
        }
      },
      "generateIdCertification(string,string)": {
        "details": "Generates identity certification.",
        "params": {
          "login": "User login.",
          "pwd": "User password."
        },
        "return": "identity_hash The certification hash."
      },
      "getBirthId()": {
        "details": "Gets the identification of the last birth added  ",
        "return": "_birthId Birth identification of the last birth added._name Birth name of the last birth added._lastName Birth last name of the last birth added.    "
      },
      "getBirthsCount()": {
        "details": "Gets the births count.",
        "return": "birthsCount Births count."
      },
      "getCertification(string)": {
        "details": "Gets the hash of the last certification generated by the user",
        "params": {
          "_login": "User login."
        },
        "return": "identity_hash The certification hash."
      },
      "getIdentitiesCount()": {
        "details": "Gets the identitues count.",
        "return": "identitiesCount Identities count."
      },
      "getIdentityId()": {
        "details": "Gets the identification of the last identity verified  ",
        "return": "_identity Identity identification of the last identity verified._name Identity name of the last identity verified._lastName Identity last name of the last identity verified."
      },
      "getOwner()": {
        "details": "Gets owner address.",
        "return": "Owner's address."
      },
      "isCityHallMember()": {
        "details": "Verifies if the msg.sender is a city hall member.",
        "return": "The city hall member address (if it is a member, otherwise return '0x..0')."
      },
      "isHospitalMember()": {
        "details": "Verifies if the msg.sender is a hospital member.",
        "return": "The hospital member address (if it is a member, otherwise return '0x..0')."
      },
      "isPrefectureMember()": {
        "details": "Verifies if the msg.sender is a prefecture member.",
        "return": "The prefecture member address (if it is a member, otherwise return '0x..0')."
      },
      "kill()": {
        "details": "Destroys contract and removes it from the blockchain Only the admin (owner) can call it Mortal pattern"
      },
      "modifyMyPassword(string,string,string)": {
        "details": "Changes the password.",
        "params": {
          "_login": "User login.",
          "_newPwd": "New password.    ",
          "_oldPwd": "Old password."
        }
      },
      "readBirth(uint256)": {
        "details": "Gets a birth information",
        "params": {
          "birthId": "The birth identification."
        },
        "return": "_name The birth name._lastName The birth last name._birthDate The birth date._birthCity The birth city._isVerified The birth verification status.   "
      },
      "readIdentity(uint256)": {
        "details": "Gets an identity information",
        "params": {
          "identityId": "The identity identification."
        },
        "return": "_name The citizen name._lastName The citizen last name._birthDate The citizen birth date._birthCity The citizen birth city._maritalStatus The citizen marital status.    "
      },
      "stopCivilStateContract()": {
        "details": "Changes stopped state variable to 'true' Only the admin (owner) can call it Circuit breaker pattern"
      },
      "verifyCertification(bytes32)": {
        "details": "Verifies a certification",
        "params": {
          "id_hash": "The certification hash."
        },
        "return": "_name The citizen name._lastName The citizen last name._birthDate The citizen birth date._birthCity The citizen birth city."
      },
      "verifyIdentity(uint256)": {
        "details": "Verifies an identity.",
        "params": {
          "birthId": "Birth identitication to verify."
        },
        "return": "identityId The identity identification."
      },
      "withdraw()": {
        "details": "Withdraws contract balance to the owner's account Only the admin (owner) can call it Only possible when 'stopped' is true Circuit breaker pattern"
      }
    },
    "title": "CivilState. "
  },
  "userdoc": {
    "methods": {
      "changeName(uint256,string)": {
        "notice": "Prefecture members functions"
      }
    }
  }
}