{
  "contractName": "CivilState",
  "abi": [
    {
      "inputs": [],
      "payable": false,
      "stateMutability": "nonpayable",
      "type": "constructor"
    },
    {
      "constant": true,
      "inputs": [],
      "name": "_donneesEtabTemp",
      "outputs": [
        {
          "internalType": "string",
          "name": "nom",
          "type": "string"
        },
        {
          "internalType": "string",
          "name": "adresse",
          "type": "string"
        },
        {
          "internalType": "string",
          "name": "codePostale",
          "type": "string"
        },
        {
          "internalType": "string",
          "name": "ville",
          "type": "string"
        }
      ],
      "payable": false,
      "stateMutability": "view",
      "type": "function"
    },
    {
      "constant": true,
      "inputs": [],
      "name": "_donneesIdentTemp",
      "outputs": [
        {
          "internalType": "string",
          "name": "civilite",
          "type": "string"
        },
        {
          "internalType": "string",
          "name": "nom",
          "type": "string"
        },
        {
          "internalType": "string",
          "name": "prenom",
          "type": "string"
        },
        {
          "internalType": "string",
          "name": "dateNaissance",
          "type": "string"
        },
        {
          "internalType": "string",
          "name": "role",
          "type": "string"
        }
      ],
      "payable": false,
      "stateMutability": "view",
      "type": "function"
    },
    {
      "constant": true,
      "inputs": [],
      "name": "owner",
      "outputs": [
        {
          "internalType": "address payable",
          "name": "",
          "type": "address"
        }
      ],
      "payable": false,
      "stateMutability": "view",
      "type": "function"
    },
    {
      "constant": true,
      "inputs": [
        {
          "internalType": "string",
          "name": "_login",
          "type": "string"
        }
      ],
      "name": "getTypeUtilisateur",
      "outputs": [
        {
          "internalType": "string",
          "name": "_typ",
          "type": "string"
        }
      ],
      "payable": false,
      "stateMutability": "view",
      "type": "function"
    },
    {
      "constant": true,
      "inputs": [],
      "name": "getUtilisateursHopitalCount",
      "outputs": [
        {
          "internalType": "uint256",
          "name": "",
          "type": "uint256"
        }
      ],
      "payable": false,
      "stateMutability": "view",
      "type": "function"
    },
    {
      "constant": false,
      "inputs": [
        {
          "internalType": "string",
          "name": "_login",
          "type": "string"
        }
      ],
      "name": "getInfoEtabMembreHopital",
      "outputs": [
        {
          "internalType": "string",
          "name": "_nomEtab",
          "type": "string"
        },
        {
          "internalType": "string",
          "name": "_adresseEtab",
          "type": "string"
        },
        {
          "internalType": "string",
          "name": "_codePostaleEtab",
          "type": "string"
        },
        {
          "internalType": "string",
          "name": "_villeEtab",
          "type": "string"
        }
      ],
      "payable": false,
      "stateMutability": "nonpayable",
      "type": "function"
    },
    {
      "constant": true,
      "inputs": [
        {
          "internalType": "string",
          "name": "_login",
          "type": "string"
        }
      ],
      "name": "getInfoIdentificationCitoyen",
      "outputs": [
        {
          "internalType": "string",
          "name": "_sexe",
          "type": "string"
        },
        {
          "internalType": "string",
          "name": "_nomFamille",
          "type": "string"
        },
        {
          "internalType": "string",
          "name": "_nomUsage",
          "type": "string"
        },
        {
          "internalType": "string",
          "name": "_premierPrenom",
          "type": "string"
        },
        {
          "internalType": "string",
          "name": "_autresPrenoms",
          "type": "string"
        },
        {
          "internalType": "string",
          "name": "_etatCivil",
          "type": "string"
        }
      ],
      "payable": false,
      "stateMutability": "view",
      "type": "function"
    },
    {
      "constant": true,
      "inputs": [
        {
          "internalType": "string",
          "name": "_login",
          "type": "string"
        }
      ],
      "name": "getInfoNaissanceCitoyen",
      "outputs": [
        {
          "internalType": "string",
          "name": "_dateNaissance",
          "type": "string"
        },
        {
          "internalType": "string",
          "name": "_communeNaissance",
          "type": "string"
        },
        {
          "internalType": "string",
          "name": "_departementNaissance",
          "type": "string"
        }
      ],
      "payable": false,
      "stateMutability": "view",
      "type": "function"
    },
    {
      "constant": true,
      "inputs": [
        {
          "internalType": "string",
          "name": "_login",
          "type": "string"
        }
      ],
      "name": "getInfoParentsCitoyen",
      "outputs": [
        {
          "internalType": "string",
          "name": "_nomFamilleMere",
          "type": "string"
        },
        {
          "internalType": "string",
          "name": "_prenomMere",
          "type": "string"
        },
        {
          "internalType": "string",
          "name": "_nomFamillePere",
          "type": "string"
        },
        {
          "internalType": "string",
          "name": "_prenomPere",
          "type": "string"
        }
      ],
      "payable": false,
      "stateMutability": "view",
      "type": "function"
    },
    {
      "constant": false,
      "inputs": [
        {
          "internalType": "string",
          "name": "_sexe",
          "type": "string"
        },
        {
          "internalType": "string",
          "name": "_nomFamille",
          "type": "string"
        },
        {
          "internalType": "string",
          "name": "_nomUsage",
          "type": "string"
        },
        {
          "internalType": "string",
          "name": "_premierPrenom",
          "type": "string"
        },
        {
          "internalType": "string",
          "name": "_autresPrenoms",
          "type": "string"
        }
      ],
      "name": "addNaissance",
      "outputs": [],
      "payable": false,
      "stateMutability": "nonpayable",
      "type": "function"
    },
    {
      "constant": false,
      "inputs": [
        {
          "internalType": "string",
          "name": "_login",
          "type": "string"
        },
        {
          "internalType": "string",
          "name": "_dateNaissance",
          "type": "string"
        },
        {
          "internalType": "string",
          "name": "_communeNaissance",
          "type": "string"
        },
        {
          "internalType": "string",
          "name": "_departementNaissance",
          "type": "string"
        }
      ],
      "name": "addDonneesNaissance",
      "outputs": [],
      "payable": false,
      "stateMutability": "nonpayable",
      "type": "function"
    },
    {
      "constant": false,
      "inputs": [
        {
          "internalType": "string",
          "name": "_login",
          "type": "string"
        },
        {
          "internalType": "string",
          "name": "_nomFamilleMere",
          "type": "string"
        },
        {
          "internalType": "string",
          "name": "_prenomMere",
          "type": "string"
        },
        {
          "internalType": "string",
          "name": "_nomFamillePere",
          "type": "string"
        },
        {
          "internalType": "string",
          "name": "_prenomPere",
          "type": "string"
        }
      ],
      "name": "addDonneesParents",
      "outputs": [],
      "payable": false,
      "stateMutability": "nonpayable",
      "type": "function"
    },
    {
      "constant": false,
      "inputs": [
        {
          "internalType": "string",
          "name": "_login",
          "type": "string"
        }
      ],
      "name": "verifyIdentite",
      "outputs": [],
      "payable": false,
      "stateMutability": "nonpayable",
      "type": "function"
    },
    {
      "constant": true,
      "inputs": [
        {
          "internalType": "string",
          "name": "_login",
          "type": "string"
        }
      ],
      "name": "getHash",
      "outputs": [
        {
          "internalType": "bytes32",
          "name": "_hash",
          "type": "bytes32"
        }
      ],
      "payable": false,
      "stateMutability": "view",
      "type": "function"
    },
    {
      "constant": true,
      "inputs": [
        {
          "internalType": "string",
          "name": "_login",
          "type": "string"
        },
        {
          "internalType": "string",
          "name": "_pwd",
          "type": "string"
        }
      ],
      "name": "verifyAuthentification",
      "outputs": [
        {
          "internalType": "string",
          "name": "_verify",
          "type": "string"
        },
        {
          "internalType": "string",
          "name": "_typ",
          "type": "string"
        }
      ],
      "payable": false,
      "stateMutability": "view",
      "type": "function"
    },
    {
      "constant": true,
      "inputs": [
        {
          "internalType": "bytes32",
          "name": "id_hash",
          "type": "bytes32"
        }
      ],
      "name": "verifyCertification",
      "outputs": [
        {
          "internalType": "string",
          "name": "_login",
          "type": "string"
        }
      ],
      "payable": false,
      "stateMutability": "view",
      "type": "function"
    }
  ],
  "bytecode": "0x60806040526000600155600060025560006003556000600455600060055534801561002957600080fd5b50336000806101000a81548173ffffffffffffffffffffffffffffffffffffffff021916908373ffffffffffffffffffffffffffffffffffffffff160217905550614af7806100796000396000f3fe608060405234801561001057600080fd5b50600436106101005760003560e01c80636a78c47a11610097578063bcf6e46a11610066578063bcf6e46a146117fc578063c606ef6614611a74578063d31a739a14611cab578063db9552f414611cc957610100565b80636a78c47a1461115f57806383ebabaa1461136b5780638da5cb5b146115325780638e09e63c1461157c57610100565b8063229c8efa116100d3578063229c8efa14610cfb5780633de79ac914610f2e5780635b6beeb914610fd5578063676152b5146110a457610100565b806302759bb61461010557806307569f2f146104555780630aba0e20146106cd5780631d5a3b82146109e4575b600080fd5b6101be6004803603602081101561011b57600080fd5b810190808035906020019064010000000081111561013857600080fd5b82018360208201111561014a57600080fd5b8035906020019184600183028401116401000000008311171561016c57600080fd5b91908080601f016020809104026020016040519081016040528093929190818152602001838380828437600081840152601f19601f820116905080830192505050505050509192919290505050611dfd565b6040518080602001806020018060200180602001806020018060200187810387528d818151815260200191508051906020019080838360005b838110156102125780820151818401526020810190506101f7565b50505050905090810190601f16801561023f5780820380516001836020036101000a031916815260200191505b5087810386528c818151815260200191508051906020019080838360005b8381101561027857808201518184015260208101905061025d565b50505050905090810190601f1680156102a55780820380516001836020036101000a031916815260200191505b5087810385528b818151815260200191508051906020019080838360005b838110156102de5780820151818401526020810190506102c3565b50505050905090810190601f16801561030b5780820380516001836020036101000a031916815260200191505b5087810384528a818151815260200191508051906020019080838360005b83811015610344578082015181840152602081019050610329565b50505050905090810190601f1680156103715780820380516001836020036101000a031916815260200191505b50878103835289818151815260200191508051906020019080838360005b838110156103aa57808201518184015260208101905061038f565b50505050905090810190601f1680156103d75780820380516001836020036101000a031916815260200191505b50878103825288818151815260200191508051906020019080838360005b838110156104105780820151818401526020810190506103f5565b50505050905090810190601f16801561043d5780820380516001836020036101000a031916815260200191505b509c5050505050505050505050505060405180910390f35b61050e6004803603602081101561046b57600080fd5b810190808035906020019064010000000081111561048857600080fd5b82018360208201111561049a57600080fd5b803590602001918460018302840111640100000000831117156104bc57600080fd5b91908080601f016020809104026020016040519081016040528093929190818152602001838380828437600081840152601f19601f820116905080830192505050505050509192919290505050612287565b6040518080602001806020018060200180602001858103855289818151815260200191508051906020019080838360005b8381101561055a57808201518184015260208101905061053f565b50505050905090810190601f1680156105875780820380516001836020036101000a031916815260200191505b50858103845288818151815260200191508051906020019080838360005b838110156105c05780820151818401526020810190506105a5565b50505050905090810190601f1680156105ed5780820380516001836020036101000a031916815260200191505b50858103835287818151815260200191508051906020019080838360005b8381101561062657808201518184015260208101905061060b565b50505050905090810190601f1680156106535780820380516001836020036101000a031916815260200191505b50858103825286818151815260200191508051906020019080838360005b8381101561068c578082015181840152602081019050610671565b50505050905090810190601f1680156106b95780820380516001836020036101000a031916815260200191505b509850505050505050505060405180910390f35b6109e2600480360360a08110156106e357600080fd5b810190808035906020019064010000000081111561070057600080fd5b82018360208201111561071257600080fd5b8035906020019184600183028401116401000000008311171561073457600080fd5b91908080601f016020809104026020016040519081016040528093929190818152602001838380828437600081840152601f19601f8201169050808301925050505050505091929192908035906020019064010000000081111561079757600080fd5b8201836020820111156107a957600080fd5b803590602001918460018302840111640100000000831117156107cb57600080fd5b91908080601f016020809104026020016040519081016040528093929190818152602001838380828437600081840152601f19601f8201169050808301925050505050505091929192908035906020019064010000000081111561082e57600080fd5b82018360208201111561084057600080fd5b8035906020019184600183028401116401000000008311171561086257600080fd5b91908080601f016020809104026020016040519081016040528093929190818152602001838380828437600081840152601f19601f820116905080830192505050505050509192919290803590602001906401000000008111156108c557600080fd5b8201836020820111156108d757600080fd5b803590602001918460018302840111640100000000831117156108f957600080fd5b91908080601f016020809104026020016040519081016040528093929190818152602001838380828437600081840152601f19601f8201169050808301925050505050505091929192908035906020019064010000000081111561095c57600080fd5b82018360208201111561096e57600080fd5b8035906020019184600183028401116401000000008311171561099057600080fd5b91908080601f016020809104026020016040519081016040528093929190818152602001838380828437600081840152601f19601f820116905080830192505050505050509192919290505050612625565b005b610cf9600480360360a08110156109fa57600080fd5b8101908080359060200190640100000000811115610a1757600080fd5b820183602082011115610a2957600080fd5b80359060200191846001830284011164010000000083111715610a4b57600080fd5b91908080601f016020809104026020016040519081016040528093929190818152602001838380828437600081840152601f19601f82011690508083019250505050505050919291929080359060200190640100000000811115610aae57600080fd5b820183602082011115610ac057600080fd5b80359060200191846001830284011164010000000083111715610ae257600080fd5b91908080601f016020809104026020016040519081016040528093929190818152602001838380828437600081840152601f19601f82011690508083019250505050505050919291929080359060200190640100000000811115610b4557600080fd5b820183602082011115610b5757600080fd5b80359060200191846001830284011164010000000083111715610b7957600080fd5b91908080601f016020809104026020016040519081016040528093929190818152602001838380828437600081840152601f19601f82011690508083019250505050505050919291929080359060200190640100000000811115610bdc57600080fd5b820183602082011115610bee57600080fd5b80359060200191846001830284011164010000000083111715610c1057600080fd5b91908080601f016020809104026020016040519081016040528093929190818152602001838380828437600081840152601f19601f82011690508083019250505050505050919291929080359060200190640100000000811115610c7357600080fd5b820183602082011115610c8557600080fd5b80359060200191846001830284011164010000000083111715610ca757600080fd5b91908080601f016020809104026020016040519081016040528093929190818152602001838380828437600081840152601f19601f820116905080830192505050505050509192919290505050612c6f565b005b610d03612d86565b60405180806020018060200180602001806020018060200186810386528b818151815260200191508051906020019080838360005b83811015610d53578082015181840152602081019050610d38565b50505050905090810190601f168015610d805780820380516001836020036101000a031916815260200191505b5086810385528a818151815260200191508051906020019080838360005b83811015610db9578082015181840152602081019050610d9e565b50505050905090810190601f168015610de65780820380516001836020036101000a031916815260200191505b50868103845289818151815260200191508051906020019080838360005b83811015610e1f578082015181840152602081019050610e04565b50505050905090810190601f168015610e4c5780820380516001836020036101000a031916815260200191505b50868103835288818151815260200191508051906020019080838360005b83811015610e85578082015181840152602081019050610e6a565b50505050905090810190601f168015610eb25780820380516001836020036101000a031916815260200191505b50868103825287818151815260200191508051906020019080838360005b83811015610eeb578082015181840152602081019050610ed0565b50505050905090810190601f168015610f185780820380516001836020036101000a031916815260200191505b509a505050505050505050505060405180910390f35b610f5a60048036036020811015610f4457600080fd5b81019080803590602001909291905050506130a2565b6040518080602001828103825283818151815260200191508051906020019080838360005b83811015610f9a578082015181840152602081019050610f7f565b50505050905090810190601f168015610fc75780820380516001836020036101000a031916815260200191505b509250505060405180910390f35b61108e60048036036020811015610feb57600080fd5b810190808035906020019064010000000081111561100857600080fd5b82018360208201111561101a57600080fd5b8035906020019184600183028401116401000000008311171561103c57600080fd5b91908080601f016020809104026020016040519081016040528093929190818152602001838380828437600081840152601f19601f820116905080830192505050505050509192919290505050613157565b6040518082815260200191505060405180910390f35b61115d600480360360208110156110ba57600080fd5b81019080803590602001906401000000008111156110d757600080fd5b8201836020820111156110e957600080fd5b8035906020019184600183028401116401000000008311171561110b57600080fd5b91908080601f016020809104026020016040519081016040528093929190818152602001838380828437600081840152601f19601f8201169050808301925050505050505091929192905050506131cd565b005b6112186004803603602081101561117557600080fd5b810190808035906020019064010000000081111561119257600080fd5b8201836020820111156111a457600080fd5b803590602001918460018302840111640100000000831117156111c657600080fd5b91908080601f016020809104026020016040519081016040528093929190818152602001838380828437600081840152601f19601f820116905080830192505050505050509192919290505050613bd6565b60405180806020018060200180602001848103845287818151815260200191508051906020019080838360005b83811015611260578082015181840152602081019050611245565b50505050905090810190601f16801561128d5780820380516001836020036101000a031916815260200191505b50848103835286818151815260200191508051906020019080838360005b838110156112c65780820151818401526020810190506112ab565b50505050905090810190601f1680156112f35780820380516001836020036101000a031916815260200191505b50848103825285818151815260200191508051906020019080838360005b8381101561132c578082015181840152602081019050611311565b50505050905090810190601f1680156113595780820380516001836020036101000a031916815260200191505b50965050505050505060405180910390f35b611373613e5f565b6040518080602001806020018060200180602001858103855289818151815260200191508051906020019080838360005b838110156113bf5780820151818401526020810190506113a4565b50505050905090810190601f1680156113ec5780820380516001836020036101000a031916815260200191505b50858103845288818151815260200191508051906020019080838360005b8381101561142557808201518184015260208101905061140a565b50505050905090810190601f1680156114525780820380516001836020036101000a031916815260200191505b50858103835287818151815260200191508051906020019080838360005b8381101561148b578082015181840152602081019050611470565b50505050905090810190601f1680156114b85780820380516001836020036101000a031916815260200191505b50858103825286818151815260200191508051906020019080838360005b838110156114f15780820151818401526020810190506114d6565b50505050905090810190601f16801561151e5780820380516001836020036101000a031916815260200191505b509850505050505050505060405180910390f35b61153a6140dd565b604051808273ffffffffffffffffffffffffffffffffffffffff1673ffffffffffffffffffffffffffffffffffffffff16815260200191505060405180910390f35b6117fa6004803603608081101561159257600080fd5b81019080803590602001906401000000008111156115af57600080fd5b8201836020820111156115c157600080fd5b803590602001918460018302840111640100000000831117156115e357600080fd5b91908080601f016020809104026020016040519081016040528093929190818152602001838380828437600081840152601f19601f8201169050808301925050505050505091929192908035906020019064010000000081111561164657600080fd5b82018360208201111561165857600080fd5b8035906020019184600183028401116401000000008311171561167a57600080fd5b91908080601f016020809104026020016040519081016040528093929190818152602001838380828437600081840152601f19601f820116905080830192505050505050509192919290803590602001906401000000008111156116dd57600080fd5b8201836020820111156116ef57600080fd5b8035906020019184600183028401116401000000008311171561171157600080fd5b91908080601f016020809104026020016040519081016040528093929190818152602001838380828437600081840152601f19601f8201169050808301925050505050505091929192908035906020019064010000000081111561177457600080fd5b82018360208201111561178657600080fd5b803590602001918460018302840111640100000000831117156117a857600080fd5b91908080601f016020809104026020016040519081016040528093929190818152602001838380828437600081840152601f19601f820116905080830192505050505050509192919290505050614102565b005b6118b56004803603602081101561181257600080fd5b810190808035906020019064010000000081111561182f57600080fd5b82018360208201111561184157600080fd5b8035906020019184600183028401116401000000008311171561186357600080fd5b91908080601f016020809104026020016040519081016040528093929190818152602001838380828437600081840152601f19601f8201169050808301925050505050505091929192905050506141f5565b6040518080602001806020018060200180602001858103855289818151815260200191508051906020019080838360005b838110156119015780820151818401526020810190506118e6565b50505050905090810190601f16801561192e5780820380516001836020036101000a031916815260200191505b50858103845288818151815260200191508051906020019080838360005b8381101561196757808201518184015260208101905061194c565b50505050905090810190601f1680156119945780820380516001836020036101000a031916815260200191505b50858103835287818151815260200191508051906020019080838360005b838110156119cd5780820151818401526020810190506119b2565b50505050905090810190601f1680156119fa5780820380516001836020036101000a031916815260200191505b50858103825286818151815260200191508051906020019080838360005b83811015611a33578082015181840152602081019050611a18565b50505050905090810190601f168015611a605780820380516001836020036101000a031916815260200191505b509850505050505050505060405180910390f35b611bc460048036036040811015611a8a57600080fd5b8101908080359060200190640100000000811115611aa757600080fd5b820183602082011115611ab957600080fd5b80359060200191846001830284011164010000000083111715611adb57600080fd5b91908080601f016020809104026020016040519081016040528093929190818152602001838380828437600081840152601f19601f82011690508083019250505050505050919291929080359060200190640100000000811115611b3e57600080fd5b820183602082011115611b5057600080fd5b80359060200191846001830284011164010000000083111715611b7257600080fd5b91908080601f016020809104026020016040519081016040528093929190818152602001838380828437600081840152601f19601f820116905080830192505050505050509192919290505050614528565b604051808060200180602001838103835285818151815260200191508051906020019080838360005b83811015611c08578082015181840152602081019050611bed565b50505050905090810190601f168015611c355780820380516001836020036101000a031916815260200191505b50838103825284818151815260200191508051906020019080838360005b83811015611c6e578082015181840152602081019050611c53565b50505050905090810190601f168015611c9b5780820380516001836020036101000a031916815260200191505b5094505050505060405180910390f35b611cb3614762565b6040518082815260200191505060405180910390f35b611d8260048036036020811015611cdf57600080fd5b8101908080359060200190640100000000811115611cfc57600080fd5b820183602082011115611d0e57600080fd5b80359060200191846001830284011164010000000083111715611d3057600080fd5b91908080601f016020809104026020016040519081016040528093929190818152602001838380828437600081840152601f19601f82011690508083019250505050505050919291929050505061476c565b6040518080602001828103825283818151815260200191508051906020019080838360005b83811015611dc2578082015181840152602081019050611da7565b50505050905090810190601f168015611def5780820380516001836020036101000a031916815260200191505b509250505060405180910390f35b606080606080606080611e0e61487a565b6013886040518082805190602001908083835b60208310611e445780518252602082019150602081019050602083039250611e21565b6001836020036101000a03801982511681845116808217855250505050505090500191505090815260200160405180910390206005016040518060c0016040529081600082018054600181600116156101000203166002900480601f016020809104026020016040519081016040528092919081815260200182805460018160011615610100020316600290048015611f1e5780601f10611ef357610100808354040283529160200191611f1e565b820191906000526020600020905b815481529060010190602001808311611f0157829003601f168201915b50505050508152602001600182018054600181600116156101000203166002900480601f016020809104026020016040519081016040528092919081815260200182805460018160011615610100020316600290048015611fc05780601f10611f9557610100808354040283529160200191611fc0565b820191906000526020600020905b815481529060010190602001808311611fa357829003601f168201915b50505050508152602001600282018054600181600116156101000203166002900480601f0160208091040260200160405190810160405280929190818152602001828054600181600116156101000203166002900480156120625780601f1061203757610100808354040283529160200191612062565b820191906000526020600020905b81548152906001019060200180831161204557829003601f168201915b50505050508152602001600382018054600181600116156101000203166002900480601f0160208091040260200160405190810160405280929190818152602001828054600181600116156101000203166002900480156121045780601f106120d957610100808354040283529160200191612104565b820191906000526020600020905b8154815290600101906020018083116120e757829003601f168201915b50505050508152602001600482018054600181600116156101000203166002900480601f0160208091040260200160405190810160405280929190818152602001828054600181600116156101000203166002900480156121a65780601f1061217b576101008083540402835291602001916121a6565b820191906000526020600020905b81548152906001019060200180831161218957829003601f168201915b50505050508152602001600582018054600181600116156101000203166002900480601f0160208091040260200160405190810160405280929190818152602001828054600181600116156101000203166002900480156122485780601f1061221d57610100808354040283529160200191612248565b820191906000526020600020905b81548152906001019060200180831161222b57829003601f168201915b505050505081525050905080600001519650806020015195508060400151945080606001519350806080015192508060a0015191505091939550919395565b6060806060806010856040518082805190602001908083835b602083106122c357805182526020820191506020810190506020830392506122a0565b6001836020036101000a0380198251168184511680821785525050505050509050019150509081526020016040518091039020600801600b600082018160000190805460018160011615610100020316600290046123229291906148b0565b506001820181600101908054600181600116156101000203166002900461234a9291906148b0565b50600282018160020190805460018160011615610100020316600290046123729291906148b0565b506003820181600301908054600181600116156101000203166002900461239a9291906148b0565b50905050600b6000018054600181600116156101000203166002900480601f0160208091040260200160405190810160405280929190818152602001828054600181600116156101000203166002900480156124375780601f1061240c57610100808354040283529160200191612437565b820191906000526020600020905b81548152906001019060200180831161241a57829003601f168201915b50505050509350600b6001018054600181600116156101000203166002900480601f0160208091040260200160405190810160405280929190818152602001828054600181600116156101000203166002900480156124d75780601f106124ac576101008083540402835291602001916124d7565b820191906000526020600020905b8154815290600101906020018083116124ba57829003601f168201915b50505050509250600b6002018054600181600116156101000203166002900480601f0160208091040260200160405190810160405280929190818152602001828054600181600116156101000203166002900480156125775780601f1061254c57610100808354040283529160200191612577565b820191906000526020600020905b81548152906001019060200180831161255a57829003601f168201915b50505050509150600b6003018054600181600116156101000203166002900480601f0160208091040260200160405190810160405280929190818152602001828054600181600116156101000203166002900480156126175780601f106125ec57610100808354040283529160200191612617565b820191906000526020600020905b8154815290600101906020018083116125fa57829003601f168201915b505050505090509193509193565b61262d61487a565b612635614937565b61263d614958565b60608790508073__LibConcatenateStrings_________________63266001d39091886040518363ffffffff1660e01b8152600401808060200180602001838103835285818151815260200191508051906020019080838360005b838110156126b3578082015181840152602081019050612698565b50505050905090810190601f1680156126e05780820380516001836020036101000a031916815260200191505b50838103825284818151815260200191508051906020019080838360005b838110156127195780820151818401526020810190506126fe565b50505050905090810190601f1680156127465780820380516001836020036101000a031916815260200191505b5094505050505060006040518083038186803b15801561276557600080fd5b505af4158015612779573d6000803e3d6000fd5b505050506040513d6000823e3d601f19601f8201168201806040525060208110156127a357600080fd5b81019080805160405193929190846401000000008211156127c357600080fd5b838201915060208201858111156127d957600080fd5b82518660018202830111640100000000821117156127f657600080fd5b8083526020830192505050908051906020019080838360005b8381101561282a57808201518184015260208101905061280f565b50505050905090810190601f1680156128575780820380516001836020036101000a031916815260200191505b5060405250505090506060819050600081805190602001209050612879614980565b60006040518060400160405280600981526020017f6e61697373616e6365000000000000000000000000000000000000000000000081525080519060200120905060405180604001604052808481526020016040518060400160405280600781526020017f6369746f79656e0000000000000000000000000000000000000000000000000081525081525091506040518060c001604052808e81526020018d81526020018c81526020018b81526020018a81526020016040518060400160405280600b81526020017f63656c696261746169726500000000000000000000000000000000000000000081525081525097506040518060e001604052808681526020016040518060400160405280600981526020017f6e6f6e76616c69646500000000000000000000000000000000000000000000008152508152602001828152602001838152602001898152602001888152602001878152506013866040518082805190602001908083835b60208310612a0857805182526020820191506020810190506020830392506129e5565b6001836020036101000a03801982511681845116808217855250505050505090500191505090815260200160405180910390206000820151816000019080519060200190612a5792919061499d565b506020820151816001019080519060200190612a7492919061499d565b5060408201518160020155606082015181600301600082015181600001556020820151816001019080519060200190612aae92919061499d565b5050506080820151816005016000820151816000019080519060200190612ad692919061499d565b506020820151816001019080519060200190612af392919061499d565b506040820151816002019080519060200190612b1092919061499d565b506060820151816003019080519060200190612b2d92919061499d565b506080820151816004019080519060200190612b4a92919061499d565b5060a0820151816005019080519060200190612b6792919061499d565b50505060a082015181600b016000820151816000019080519060200190612b8f92919061499d565b506020820151816001019080519060200190612bac92919061499d565b506040820151816002019080519060200190612bc992919061499d565b50505060c082015181600e016000820151816000019080519060200190612bf192919061499d565b506020820151816001019080519060200190612c0e92919061499d565b506040820151816002019080519060200190612c2b92919061499d565b506060820151816003019080519060200190612c4892919061499d565b50505090505060056000815480929190600101919050555050505050505050505050505050565b612c77614958565b6040518060800160405280868152602001858152602001848152602001838152509050806013876040518082805190602001908083835b60208310612cd15780518252602082019150602081019050602083039250612cae565b6001836020036101000a0380198251168184511680821785525050505050509050019150509081526020016040518091039020600e016000820151816000019080519060200190612d2392919061499d565b506020820151816001019080519060200190612d4092919061499d565b506040820151816002019080519060200190612d5d92919061499d565b506060820151816003019080519060200190612d7a92919061499d565b50905050505050505050565b6006806000018054600181600116156101000203166002900480601f016020809104026020016040519081016040528092919081815260200182805460018160011615610100020316600290048015612e205780601f10612df557610100808354040283529160200191612e20565b820191906000526020600020905b815481529060010190602001808311612e0357829003601f168201915b505050505090806001018054600181600116156101000203166002900480601f016020809104026020016040519081016040528092919081815260200182805460018160011615610100020316600290048015612ebe5780601f10612e9357610100808354040283529160200191612ebe565b820191906000526020600020905b815481529060010190602001808311612ea157829003601f168201915b505050505090806002018054600181600116156101000203166002900480601f016020809104026020016040519081016040528092919081815260200182805460018160011615610100020316600290048015612f5c5780601f10612f3157610100808354040283529160200191612f5c565b820191906000526020600020905b815481529060010190602001808311612f3f57829003601f168201915b505050505090806003018054600181600116156101000203166002900480601f016020809104026020016040519081016040528092919081815260200182805460018160011615610100020316600290048015612ffa5780601f10612fcf57610100808354040283529160200191612ffa565b820191906000526020600020905b815481529060010190602001808311612fdd57829003601f168201915b505050505090806004018054600181600116156101000203166002900480601f0160208091040260200160405190810160405280929190818152602001828054600181600116156101000203166002900480156130985780601f1061306d57610100808354040283529160200191613098565b820191906000526020600020905b81548152906001019060200180831161307b57829003601f168201915b5050505050905085565b6060601460008381526020019081526020016000208054600181600116156101000203166002900480601f01602080910402602001604051908101604052809291908181526020018280546001816001161561010002031660029004801561314b5780601f106131205761010080835404028352916020019161314b565b820191906000526020600020905b81548152906001019060200180831161312e57829003601f168201915b50505050509050919050565b60006013826040518082805190602001908083835b6020831061318f578051825260208201915060208101905060208303925061316c565b6001836020036101000a0380198251168184511680821785525050505050509050019150509081526020016040518091039020600201549050919050565b6131d561487a565b6040518060400160405280600681526020017f76616c69646500000000000000000000000000000000000000000000000000008152506013836040518082805190602001908083835b60208310613241578051825260208201915060208101905060208303925061321e565b6001836020036101000a0380198251168184511680821785525050505050509050019150509081526020016040518091039020600101908051906020019061328a929190614a1d565b50613293614980565b6013836040518082805190602001908083835b602083106132c957805182526020820191506020810190506020830392506132a6565b6001836020036101000a038019825116818451168082178552505050505050905001915050908152602001604051809103902060030160405180604001604052908160008201548152602001600182018054600181600116156101000203166002900480601f0160208091040260200160405190810160405280929190818152602001828054600181600116156101000203166002900480156133ad5780601f10613382576101008083540402835291602001916133ad565b820191906000526020600020905b81548152906001019060200180831161339057829003601f168201915b50505050508152505090506000816000015190506013846040518082805190602001908083835b602083106133f757805182526020820191506020810190506020830392506133d4565b6001836020036101000a03801982511681845116808217855250505050505090500191505090815260200160405180910390206005016040518060c0016040529081600082018054600181600116156101000203166002900480601f0160208091040260200160405190810160405280929190818152602001828054600181600116156101000203166002900480156134d15780601f106134a6576101008083540402835291602001916134d1565b820191906000526020600020905b8154815290600101906020018083116134b457829003601f168201915b50505050508152602001600182018054600181600116156101000203166002900480601f0160208091040260200160405190810160405280929190818152602001828054600181600116156101000203166002900480156135735780601f1061354857610100808354040283529160200191613573565b820191906000526020600020905b81548152906001019060200180831161355657829003601f168201915b50505050508152602001600282018054600181600116156101000203166002900480601f0160208091040260200160405190810160405280929190818152602001828054600181600116156101000203166002900480156136155780601f106135ea57610100808354040283529160200191613615565b820191906000526020600020905b8154815290600101906020018083116135f857829003601f168201915b50505050508152602001600382018054600181600116156101000203166002900480601f0160208091040260200160405190810160405280929190818152602001828054600181600116156101000203166002900480156136b75780601f1061368c576101008083540402835291602001916136b7565b820191906000526020600020905b81548152906001019060200180831161369a57829003601f168201915b50505050508152602001600482018054600181600116156101000203166002900480601f0160208091040260200160405190810160405280929190818152602001828054600181600116156101000203166002900480156137595780601f1061372e57610100808354040283529160200191613759565b820191906000526020600020905b81548152906001019060200180831161373c57829003601f168201915b50505050508152602001600582018054600181600116156101000203166002900480601f0160208091040260200160405190810160405280929190818152602001828054600181600116156101000203166002900480156137fb5780601f106137d0576101008083540402835291602001916137fb565b820191906000526020600020905b8154815290600101906020018083116137de57829003601f168201915b505050505081525050925060608360200151905060608460600151905060608273__LibConcatenateStrings_________________63266001d39091846040518363ffffffff1660e01b8152600401808060200180602001838103835285818151815260200191508051906020019080838360005b8381101561388b578082015181840152602081019050613870565b50505050905090810190601f1680156138b85780820380516001836020036101000a031916815260200191505b50838103825284818151815260200191508051906020019080838360005b838110156138f15780820151818401526020810190506138d6565b50505050905090810190601f16801561391e5780820380516001836020036101000a031916815260200191505b5094505050505060006040518083038186803b15801561393d57600080fd5b505af4158015613951573d6000803e3d6000fd5b505050506040513d6000823e3d601f19601f82011682018060405250602081101561397b57600080fd5b810190808051604051939291908464010000000082111561399b57600080fd5b838201915060208201858111156139b157600080fd5b82518660018202830111640100000000821117156139ce57600080fd5b8083526020830192505050908051906020019080838360005b83811015613a025780820151818401526020810190506139e7565b50505050905090810190601f168015613a2f5780820380516001836020036101000a031916815260200191505b506040525050509050600081805190602001209050806013896040518082805190602001908083835b60208310613a7b5780518252602082019150602081019050602083039250613a58565b6001836020036101000a03801982511681845116808217855250505050505090500191505090815260200160405180910390206002018190555087601460008381526020019081526020016000209080519060200190613adc929190614a1d565b5060405180604001604052808681526020016040518060400160405280600781526020017f6369746f79656e00000000000000000000000000000000000000000000000000815250815250600f896040518082805190602001908083835b60208310613b5d5780518252602082019150602081019050602083039250613b3a565b6001836020036101000a0380198251168184511680821785525050505050509050019150509081526020016040518091039020600082015181600001556020820151816001019080519060200190613bb692919061499d565b509050506001600081548092919060010191905055505050505050505050565b6060806060613be3614937565b6013856040518082805190602001908083835b60208310613c195780518252602082019150602081019050602083039250613bf6565b6001836020036101000a0380198251168184511680821785525050505050509050019150509081526020016040518091039020600b01604051806060016040529081600082018054600181600116156101000203166002900480601f016020809104026020016040519081016040528092919081815260200182805460018160011615610100020316600290048015613cf35780601f10613cc857610100808354040283529160200191613cf3565b820191906000526020600020905b815481529060010190602001808311613cd657829003601f168201915b50505050508152602001600182018054600181600116156101000203166002900480601f016020809104026020016040519081016040528092919081815260200182805460018160011615610100020316600290048015613d955780601f10613d6a57610100808354040283529160200191613d95565b820191906000526020600020905b815481529060010190602001808311613d7857829003601f168201915b50505050508152602001600282018054600181600116156101000203166002900480601f016020809104026020016040519081016040528092919081815260200182805460018160011615610100020316600290048015613e375780601f10613e0c57610100808354040283529160200191613e37565b820191906000526020600020905b815481529060010190602001808311613e1a57829003601f168201915b5050505050815250509050806000015193508060200151925080604001519150509193909250565b600b806000018054600181600116156101000203166002900480601f016020809104026020016040519081016040528092919081815260200182805460018160011615610100020316600290048015613ef95780601f10613ece57610100808354040283529160200191613ef9565b820191906000526020600020905b815481529060010190602001808311613edc57829003601f168201915b505050505090806001018054600181600116156101000203166002900480601f016020809104026020016040519081016040528092919081815260200182805460018160011615610100020316600290048015613f975780601f10613f6c57610100808354040283529160200191613f97565b820191906000526020600020905b815481529060010190602001808311613f7a57829003601f168201915b505050505090806002018054600181600116156101000203166002900480601f0160208091040260200160405190810160405280929190818152602001828054600181600116156101000203166002900480156140355780601f1061400a57610100808354040283529160200191614035565b820191906000526020600020905b81548152906001019060200180831161401857829003601f168201915b505050505090806003018054600181600116156101000203166002900480601f0160208091040260200160405190810160405280929190818152602001828054600181600116156101000203166002900480156140d35780601f106140a8576101008083540402835291602001916140d3565b820191906000526020600020905b8154815290600101906020018083116140b657829003601f168201915b5050505050905084565b6000809054906101000a900473ffffffffffffffffffffffffffffffffffffffff1681565b61410a614937565b6040518060600160405280858152602001848152602001838152509050806013866040518082805190602001908083835b6020831061415e578051825260208201915060208101905060208303925061413b565b6001836020036101000a0380198251168184511680821785525050505050509050019150509081526020016040518091039020600b0160008201518160000190805190602001906141b092919061499d565b5060208201518160010190805190602001906141cd92919061499d565b5060408201518160020190805190602001906141ea92919061499d565b509050505050505050565b606080606080614203614958565b6013866040518082805190602001908083835b602083106142395780518252602082019150602081019050602083039250614216565b6001836020036101000a0380198251168184511680821785525050505050509050019150509081526020016040518091039020600e01604051806080016040529081600082018054600181600116156101000203166002900480601f0160208091040260200160405190810160405280929190818152602001828054600181600116156101000203166002900480156143135780601f106142e857610100808354040283529160200191614313565b820191906000526020600020905b8154815290600101906020018083116142f657829003601f168201915b50505050508152602001600182018054600181600116156101000203166002900480601f0160208091040260200160405190810160405280929190818152602001828054600181600116156101000203166002900480156143b55780601f1061438a576101008083540402835291602001916143b5565b820191906000526020600020905b81548152906001019060200180831161439857829003601f168201915b50505050508152602001600282018054600181600116156101000203166002900480601f0160208091040260200160405190810160405280929190818152602001828054600181600116156101000203166002900480156144575780601f1061442c57610100808354040283529160200191614457565b820191906000526020600020905b81548152906001019060200180831161443a57829003601f168201915b50505050508152602001600382018054600181600116156101000203166002900480601f0160208091040260200160405190810160405280929190818152602001828054600181600116156101000203166002900480156144f95780601f106144ce576101008083540402835291602001916144f9565b820191906000526020600020905b8154815290600101906020018083116144dc57829003601f168201915b505050505081525050905080600001519450806020015193508060400151925080606001519150509193509193565b6060808280519060200120600f856040518082805190602001908083835b602083106145695780518252602082019150602081019050602083039250614546565b6001836020036101000a03801982511681845116808217855250505050505090500191505090815260200160405180910390206000015414156146ea576040518060400160405280600281526020017f6f6b0000000000000000000000000000000000000000000000000000000000008152509150600f846040518082805190602001908083835b6020831061461457805182526020820191506020810190506020830392506145f1565b6001836020036101000a03801982511681845116808217855250505050505090500191505090815260200160405180910390206001018054600181600116156101000203166002900480601f0160208091040260200160405190810160405280929190818152602001828054600181600116156101000203166002900480156146de5780601f106146b3576101008083540402835291602001916146de565b820191906000526020600020905b8154815290600101906020018083116146c157829003601f168201915b5050505050905061475b565b6040518060400160405280600281526020017f6b6f00000000000000000000000000000000000000000000000000000000000081525091506040518060400160405280600481526020017f4e554c4c0000000000000000000000000000000000000000000000000000000081525090505b9250929050565b6000600254905090565b6060600f826040518082805190602001908083835b602083106147a45780518252602082019150602081019050602083039250614781565b6001836020036101000a03801982511681845116808217855250505050505090500191505090815260200160405180910390206001018054600181600116156101000203166002900480601f01602080910402602001604051908101604052809291908181526020018280546001816001161561010002031660029004801561486e5780601f106148435761010080835404028352916020019161486e565b820191906000526020600020905b81548152906001019060200180831161485157829003601f168201915b50505050509050919050565b6040518060c001604052806060815260200160608152602001606081526020016060815260200160608152602001606081525090565b828054600181600116156101000203166002900490600052602060002090601f016020900481019282601f106148e95780548555614926565b8280016001018555821561492657600052602060002091601f016020900482015b8281111561492557825482559160010191906001019061490a565b5b5090506149339190614a9d565b5090565b60405180606001604052806060815260200160608152602001606081525090565b6040518060800160405280606081526020016060815260200160608152602001606081525090565b604051806040016040528060008019168152602001606081525090565b828054600181600116156101000203166002900490600052602060002090601f016020900481019282601f106149de57805160ff1916838001178555614a0c565b82800160010185558215614a0c579182015b82811115614a0b5782518255916020019190600101906149f0565b5b509050614a199190614a9d565b5090565b828054600181600116156101000203166002900490600052602060002090601f016020900481019282601f10614a5e57805160ff1916838001178555614a8c565b82800160010185558215614a8c579182015b82811115614a8b578251825591602001919060010190614a70565b5b509050614a999190614a9d565b5090565b614abf91905b80821115614abb576000816000905550600101614aa3565b5090565b9056fea265627a7a723158203e06c613b32d6d62ee47ad997b7135773b0d6b3a3aa130af4aa3765a565d21cf64736f6c63430005100032",
  "source": "// SPDX-License-Identifier: MIT\r\npragma solidity >=0.4.21 <0.8.0;\r\n\r\n/* \r\n* Libraries needed in the contract 'Civil State' contract\r\n*/\r\n/** @title LibConcatenateStrings. */\r\n/// @dev Library with a function for concatenating strings\r\nimport {LibConcatenateStrings} from './LibConcatenateStrings.sol';\r\n/** @title LibTransformUintString. */\r\n/// @dev Library with a function to transform an 'uint' in a 'string\r\nimport {LibTransformUintString} from './LibTransformUintString.sol';\r\n/** @title SafeMath. */\r\n/** \r\n * @dev Library with functions to realize arithmetic operations with overflow checks\r\n *\r\n * Contract collection retrieved from : https://github.com/OpenZeppelin/openzeppelin-contracts/blob/master/contracts/math/SafeMath.sol\r\n *\r\n*/\r\nimport {SafeMath} from './SafeMath.sol';\r\n\r\n/** @title CivilState. */\r\ncontract CivilState {\r\n    /// @dev Include libraries codes and initialize its use in the contract\r\n    using LibConcatenateStrings for string;\r\n    using LibTransformUintString for *;\r\n    using SafeMath for uint; \r\n\r\n    /// @dev Owner address\r\n    address payable public owner;\r\n    \r\n    /// @dev Compteur du nombre d'utilisateurs registrs \r\n    uint utilisateursCount = 0;\r\n    \r\n    /// @dev Compteur du nombre d'utilisateurs hopital\r\n    uint utilisateursHopital = 0;\r\n\r\n    /// @dev Compteur du nombre d'utilisateurs prefecture\r\n    uint utilisateursPrefecture = 0;\r\n\r\n    /// @dev Compteur du nombre d'utilisateurs mairie\r\n    uint utilisateursMairie = 0;\r\n\r\n    /// @dev Compteur du nombre de citoyens\r\n    uint citoyensCount = 0;\r\n\r\n    DonneesIdentification public _donneesIdentTemp;\r\n    DonneesEtablissement public _donneesEtabTemp;\r\n\r\n    /**\r\n    * Informations d'authentifications des utilisateurs\r\n    * typ : pour dfinir si citoyen, admin, membre hpital, membre prefecture, membre mairie\r\n    * valeurs possibles typ : citoyen, admin, hopital, prefecture, mairie\r\n    */\r\n    struct Authentification {\r\n        bytes32 mdp;\r\n        string typ;\r\n    }\r\n\r\n    /**\r\n    * Donnes d'identification des membres\r\n    * de l'hopital, de la prefecture, de la mairie\r\n    *\r\n    */\r\n    struct DonneesIdentification {\r\n        string civilite;\r\n        string nom;\r\n        string prenom;\r\n        string dateNaissance;\r\n        string role;\r\n    }\r\n\r\n    /**\r\n    * Donnes de l'tablissement des membres\r\n    * de l'hopital, de la prefecture, de la mairie\r\n    *\r\n    */\r\n    struct DonneesEtablissement {\r\n        string nom;\r\n        string adresse;\r\n        string codePostale;\r\n        string ville;\r\n    }\r\n\r\n    struct DonneesMembres {\r\n        string login;\r\n        Authentification auth;\r\n        DonneesIdentification donneesIdent;\r\n        DonneesEtablissement donneesEtablissement;\r\n    }\r\n\r\n    /**\r\n    * Donnes d'identification des citoyens\r\n    */\r\n    struct DonneesIdentificationCitoyen {\r\n        string sexe;\r\n        string nomFamille;\r\n        string nomUsage;\r\n        string premierPrenom;\r\n        string autresPrenoms;\r\n        string etatCivil;\r\n    }\r\n\r\n    /**\r\n    * Donnes de naissance des citoyens\r\n    */\r\n    struct DonneesNaissanceCitoyen {\r\n        string dateNaissance;\r\n        string communeNaissance;\r\n        string departementNaissance;\r\n    }\r\n\r\n    /**\r\n    * Donnes des parents des citoyens\r\n    */\r\n    struct DonneesParentsCitoyen {\r\n        string nomFamilleMere;\r\n        string prenomMere;\r\n        string nomFamillePere;\r\n        string prenomPere;\r\n    }\r\n\r\n    struct DonneesCitoyen {\r\n        string login;\r\n        string identite;\r\n        bytes32 hashCertification;\r\n        Authentification auth;\r\n        DonneesIdentificationCitoyen donneesIdentCitoyen;\r\n        DonneesNaissanceCitoyen donneesNaissanceCitoyen;\r\n        DonneesParentsCitoyen donneesParentsCitoyen;\r\n    }            \r\n\r\n    /*\r\n    * Mapping pour le suivi des utilisateurs\r\n    * cl : string login\r\n    */\r\n    mapping (string => Authentification) utilisateurs;\r\n\r\n    /** @dev\r\n    * Mappings pour suivi des membres de l'hopital, de la prefecture et de la mairie\r\n    *\r\n    */\r\n    mapping(string => DonneesMembres) membresHopital;\r\n\r\n    mapping(string => DonneesMembres) membresPrefecture;\r\n\r\n    mapping(string => DonneesMembres) membresMairie;\r\n\r\n    /** @dev\r\n    * Mappings pour suivi des citoyens\r\n    *\r\n    */\r\n    mapping(string => DonneesCitoyen) citoyens;    \r\n\r\n    /// @dev Mapping des hash\r\n    mapping(bytes32 => string) hashCertifications;    \r\n\r\n    /// @dev Contract constructor sets the owner\r\n    constructor () public {\r\n        owner = msg.sender;\r\n    }   \r\n    \r\n\r\n    /**\r\n    * Read functions \r\n    */\r\n\r\n    function getTypeUtilisateur(string memory _login) public view returns(string memory _typ) {\r\n        _typ = utilisateurs[_login].typ;\r\n    }\r\n\r\n    /// @dev Gets the hospital members count.\r\n    /// @return utilisateursHopital Membres hopital count.\r\n    function getUtilisateursHopitalCount() public view returns(uint){\r\n        return utilisateursHopital;\r\n    }\r\n\r\n    /*function getInfoIdentMembreHopital(string memory _login) public returns(string memory _civilite, string memory _nom, string memory _prenom, string memory _dateNaissance, string memory _role){\r\n     \r\n        _donneesIdentTemp = membresHopital[_login].donneesIdent;\r\n        _civilite = _donneesIdentTemp.civilite;\r\n        _nom = _donneesIdentTemp.nom;\r\n        _prenom = _donneesIdentTemp.prenom;\r\n        _dateNaissance = _donneesIdentTemp.dateNaissance;\r\n        _role = _donneesIdentTemp.role;\r\n    }*/\r\n\r\n    function getInfoEtabMembreHopital(string memory _login) public returns(string memory _nomEtab, string memory _adresseEtab, string memory _codePostaleEtab, string memory _villeEtab){\r\n     \r\n        _donneesEtabTemp = membresHopital[_login].donneesEtablissement;\r\n        _nomEtab = _donneesEtabTemp.nom;\r\n        _adresseEtab = _donneesEtabTemp.adresse;\r\n        _codePostaleEtab = _donneesEtabTemp.codePostale;\r\n        _villeEtab = _donneesEtabTemp.ville;\r\n\r\n    }\r\n\r\n    function getInfoIdentificationCitoyen (string memory _login) public view returns(string memory _sexe, \r\n    string memory _nomFamille, string memory _nomUsage, string memory _premierPrenom, \r\n    string memory _autresPrenoms, string memory _etatCivil) {\r\n       DonneesIdentificationCitoyen memory _donneesIdentificationCitoyen;\r\n        _donneesIdentificationCitoyen = citoyens[_login].donneesIdentCitoyen;\r\n\r\n        _sexe = _donneesIdentificationCitoyen.sexe;\r\n        _nomFamille = _donneesIdentificationCitoyen.nomFamille;\r\n        _nomUsage = _donneesIdentificationCitoyen.nomUsage;\r\n        _premierPrenom = _donneesIdentificationCitoyen.premierPrenom;\r\n        _autresPrenoms = _donneesIdentificationCitoyen.autresPrenoms;\r\n        _etatCivil = _donneesIdentificationCitoyen.etatCivil;\r\n\r\n    }\r\n\r\n    function getInfoNaissanceCitoyen (string memory _login) public view returns(string memory _dateNaissance, \r\n    string memory _communeNaissance, string memory _departementNaissance) {\r\n        DonneesNaissanceCitoyen memory _donneesNaissanceCitoyen;\r\n        _donneesNaissanceCitoyen = citoyens[_login].donneesNaissanceCitoyen;\r\n\r\n        _dateNaissance = _donneesNaissanceCitoyen.dateNaissance;\r\n        _communeNaissance = _donneesNaissanceCitoyen.communeNaissance;\r\n        _departementNaissance = _donneesNaissanceCitoyen.departementNaissance;\r\n\r\n    }\r\n\r\n    function getInfoParentsCitoyen (string memory _login) public view returns(string memory _nomFamilleMere,\r\n    string memory _prenomMere, string memory _nomFamillePere, string memory _prenomPere) {\r\n        DonneesParentsCitoyen memory _donneesParentsCitoyen;\r\n        _donneesParentsCitoyen = citoyens[_login].donneesParentsCitoyen;\r\n\r\n        _nomFamilleMere = _donneesParentsCitoyen.nomFamilleMere;\r\n        _prenomMere = _donneesParentsCitoyen.prenomMere;\r\n        _nomFamillePere = _donneesParentsCitoyen.nomFamillePere;\r\n        _prenomPere = _donneesParentsCitoyen.prenomPere;        \r\n    }\r\n\r\n    /**\r\n    * Write functions \r\n    */    \r\n    /*\r\n    /// @dev Function pour ajouter un nouveau utilisateur \r\n    function addMembreHopital(string memory _civilite, string memory _nom, string memory _prenom, string memory _dateNaissance, string memory _role,\r\n    string memory _nomEtab, string memory _adresseEtab, string memory _codePostaleEtab, string memory _villeEtab) public {\r\n        DonneesIdentification memory _donneesIdent;\r\n        DonneesEtablissement memory _donneesEtab;\r\n        string memory _login = _nom;\r\n        _login = _login.concatenate(_prenom);\r\n        _login = _login.concatenate(_dateNaissance);\r\n        string memory _mdp = _login;\r\n        bytes32 _mdpHash = keccak256(bytes(_mdp));\r\n\r\n        Authentification memory _auth;   \r\n\r\n        _donneesIdent = DonneesIdentification({\r\n            civilite: _civilite,\r\n            nom: _nom,\r\n            prenom : _prenom,\r\n            dateNaissance : _dateNaissance,\r\n            role : _role\r\n        });\r\n        \r\n        _donneesEtab = DonneesEtablissement({\r\n            nom : _nomEtab,\r\n            adresse : _adresseEtab,\r\n            codePostale : _codePostaleEtab,\r\n            ville : _villeEtab\r\n        });\r\n\r\n        _auth = Authentification({\r\n            mdp : _mdpHash,\r\n            typ : \"hopital\"\r\n        });\r\n        \r\n    \r\n        membresHopital[_login] = DonneesMembres({\r\n            login : _login,\r\n            auth : _auth,\r\n            donneesIdent : _donneesIdent,\r\n            donneesEtablissement : _donneesEtab\r\n        });\r\n\r\n        utilisateurs[_login] = Authentification({\r\n            mdp : _mdpHash,\r\n            typ : \"hopital\"\r\n        });\r\n\r\n        utilisateursHopital++;\r\n        utilisateursCount++;\r\n    }*/\r\n\r\n    /// @dev Function pour ajouter un nouveau citoyen \r\n    function addNaissance(string memory _sexe, string memory _nomFamille, string memory _nomUsage, string memory _premierPrenom, string memory _autresPrenoms) public {\r\n        \r\n        DonneesIdentificationCitoyen memory _donneesIdentificationCitoyen;\r\n        DonneesNaissanceCitoyen memory _donneesNaissanceCitoyen;\r\n        DonneesParentsCitoyen memory _donneesParentsCitoyen;\r\n\r\n        string memory _login = _nomFamille;\r\n        _login = _login.concatenate(_premierPrenom);\r\n        string memory _mdp = _login;\r\n        bytes32 _mdpHash = keccak256(bytes(_mdp));\r\n        Authentification memory _auth;\r\n        bytes32 lambdaCertification = keccak256(bytes(\"naissance\"));\r\n\r\n        _auth = Authentification({\r\n            mdp : _mdpHash,\r\n            typ : \"citoyen\"\r\n        });\r\n\r\n        _donneesIdentificationCitoyen = DonneesIdentificationCitoyen({\r\n            sexe : _sexe,\r\n            nomFamille : _nomFamille,\r\n            nomUsage : _nomUsage,\r\n            premierPrenom : _premierPrenom,\r\n            autresPrenoms : _autresPrenoms,\r\n            etatCivil : \"celibataire\"\r\n        });\r\n\r\n        citoyens[_login] = DonneesCitoyen({\r\n            login : _login,\r\n            identite : \"nonvalide\",\r\n            hashCertification : lambdaCertification,\r\n            auth : _auth,\r\n            donneesIdentCitoyen : _donneesIdentificationCitoyen,\r\n            donneesNaissanceCitoyen : _donneesNaissanceCitoyen,\r\n            donneesParentsCitoyen : _donneesParentsCitoyen\r\n        });\r\n\r\n        citoyensCount++; \r\n\r\n    }\r\n\r\n    \r\n    /// @dev Function pour ajouter les donnes de naissance\r\n    function addDonneesNaissance(string memory _login, string memory _dateNaissance, string memory _communeNaissance, string memory _departementNaissance) public {\r\n        DonneesNaissanceCitoyen memory _donneesNaissanceCitoyen;\r\n\r\n        _donneesNaissanceCitoyen = DonneesNaissanceCitoyen({\r\n            dateNaissance : _dateNaissance,\r\n            communeNaissance : _communeNaissance,\r\n            departementNaissance : _departementNaissance\r\n        });\r\n\r\n        citoyens[_login].donneesNaissanceCitoyen = _donneesNaissanceCitoyen;         \r\n    }\r\n\r\n\r\n    /// @dev Function pour ajouter un nouveau citoyen \r\n    function addDonneesParents(string memory _login, string memory _nomFamilleMere, string memory _prenomMere, string memory _nomFamillePere,string memory _prenomPere) public {\r\n        DonneesParentsCitoyen memory _donneesParentsCitoyen;\r\n\r\n        _donneesParentsCitoyen = DonneesParentsCitoyen({\r\n            nomFamilleMere : _nomFamilleMere,\r\n            prenomMere : _prenomMere,\r\n            nomFamillePere : _nomFamillePere,\r\n            prenomPere : _prenomPere\r\n        });\r\n\r\n        citoyens[_login].donneesParentsCitoyen = _donneesParentsCitoyen;        \r\n    }\r\n\r\n    /// @dev Function pour vrifier identit\r\n    function verifyIdentite(string memory _login) public {\r\n        DonneesIdentificationCitoyen memory _donneesIdent;\r\n        citoyens[_login].identite = \"valide\";\r\n\r\n        Authentification memory _auth = citoyens[_login].auth;\r\n        bytes32 _mdpHash = _auth.mdp;\r\n        \r\n        /**\r\n         * Gnration du hash\r\n         */\r\n        _donneesIdent = citoyens[_login].donneesIdentCitoyen;\r\n\r\n        string memory _nom = _donneesIdent.nomFamille;\r\n        string memory _prenom = _donneesIdent.premierPrenom;\r\n        string memory _conc = _nom.concatenate(_prenom);\r\n        bytes32 certification_hash = keccak256(bytes(_conc));\r\n\r\n        citoyens[_login].hashCertification = certification_hash;\r\n        hashCertifications[certification_hash] = _login;\r\n\r\n        utilisateurs[_login] = Authentification({\r\n            mdp : _mdpHash,\r\n            typ : \"citoyen\"\r\n        });\r\n\r\n        utilisateursCount++;\r\n\r\n    }\r\n\r\n    /// @dev Rcuprer un hash\r\n    function getHash (string memory _login) public view returns (bytes32 _hash) {\r\n        _hash = citoyens[_login].hashCertification;\r\n    }\r\n\r\n    /// @dev Vrifier l'authentification et renvoie le type d'utilisateur.\r\n    function verifyAuthentification (string memory _login, string memory _pwd) public view returns (string memory _verify, string memory _typ){\r\n        //Verify that the user used the good password\r\n        \r\n        if (utilisateurs[_login].mdp == keccak256(bytes(_pwd))) {\r\n           _verify = \"ok\";\r\n            _typ = utilisateurs[_login].typ;\r\n        } else {\r\n           _verify = \"ko\";\r\n            _typ = \"NULL\";\r\n        }\r\n\r\n    }\r\n\r\n    /// @dev Vrifier un hash\r\n    function verifyCertification (bytes32 id_hash) public view returns (string memory _login) {\r\n        _login =  hashCertifications[id_hash];\r\n    }\r\n\r\n}",
  "sourcePath": "C:/Users/anatereza.mascarenha/Documents/POC Etat Civil/contracts/CivilState.sol",
  "compiler": {
    "name": "solc",
    "version": "0.5.16+commit.9c3226ce.Emscripten.clang"
  },
  "schemaVersion": "3.0.22",
  "updatedAt": "2021-02-12T13:57:43.756Z",
  "networkType": "ethereum",
  "devdoc": {
    "methods": {
      "addDonneesNaissance(string,string,string,string)": {
        "details": "Function pour ajouter les donnes de naissance"
      },
      "addDonneesParents(string,string,string,string,string)": {
        "details": "Function pour ajouter un nouveau citoyen "
      },
      "addNaissance(string,string,string,string,string)": {
        "details": "Function pour ajouter un nouveau citoyen "
      },
      "constructor": {
        "details": "Contract constructor sets the owner"
      },
      "getHash(string)": {
        "details": "Rcuprer un hash"
      },
      "getUtilisateursHopitalCount()": {
        "details": "Gets the hospital members count.",
        "return": "utilisateursHopital Membres hopital count."
      },
      "verifyAuthentification(string,string)": {
        "details": "Vrifier l'authentification et renvoie le type d'utilisateur."
      },
      "verifyCertification(bytes32)": {
        "details": "Vrifier un hash"
      },
      "verifyIdentite(string)": {
        "details": "Function pour vrifier identit"
      }
    },
    "title": "CivilState. "
  },
  "userdoc": {
    "methods": {
      "getTypeUtilisateur(string)": {
        "notice": "Read functions "
      }
    }
  }
}