{
  "contractName": "CivilState",
  "abi": [
    {
      "inputs": [],
      "payable": false,
      "stateMutability": "nonpayable",
      "type": "constructor"
    },
    {
      "constant": true,
      "inputs": [],
      "name": "_donneesEtabTemp",
      "outputs": [
        {
          "internalType": "string",
          "name": "nom",
          "type": "string"
        },
        {
          "internalType": "string",
          "name": "adresse",
          "type": "string"
        },
        {
          "internalType": "string",
          "name": "codePostale",
          "type": "string"
        },
        {
          "internalType": "string",
          "name": "ville",
          "type": "string"
        }
      ],
      "payable": false,
      "stateMutability": "view",
      "type": "function"
    },
    {
      "constant": true,
      "inputs": [],
      "name": "_donneesIdentTemp",
      "outputs": [
        {
          "internalType": "string",
          "name": "civilite",
          "type": "string"
        },
        {
          "internalType": "string",
          "name": "nom",
          "type": "string"
        },
        {
          "internalType": "string",
          "name": "prenom",
          "type": "string"
        },
        {
          "internalType": "string",
          "name": "dateNaissance",
          "type": "string"
        },
        {
          "internalType": "string",
          "name": "role",
          "type": "string"
        }
      ],
      "payable": false,
      "stateMutability": "view",
      "type": "function"
    },
    {
      "constant": true,
      "inputs": [],
      "name": "owner",
      "outputs": [
        {
          "internalType": "address payable",
          "name": "",
          "type": "address"
        }
      ],
      "payable": false,
      "stateMutability": "view",
      "type": "function"
    },
    {
      "constant": true,
      "inputs": [
        {
          "internalType": "string",
          "name": "_login",
          "type": "string"
        }
      ],
      "name": "getTypeUtilisateur",
      "outputs": [
        {
          "internalType": "string",
          "name": "_typ",
          "type": "string"
        }
      ],
      "payable": false,
      "stateMutability": "view",
      "type": "function"
    },
    {
      "constant": true,
      "inputs": [],
      "name": "getCitoyensCount",
      "outputs": [
        {
          "internalType": "uint256",
          "name": "",
          "type": "uint256"
        }
      ],
      "payable": false,
      "stateMutability": "view",
      "type": "function"
    },
    {
      "constant": true,
      "inputs": [
        {
          "internalType": "uint256",
          "name": "_count",
          "type": "uint256"
        }
      ],
      "name": "getLoginIdStatut",
      "outputs": [
        {
          "internalType": "string",
          "name": "_login",
          "type": "string"
        },
        {
          "internalType": "bytes4",
          "name": "_id",
          "type": "bytes4"
        },
        {
          "internalType": "bool",
          "name": "_statut",
          "type": "bool"
        }
      ],
      "payable": false,
      "stateMutability": "view",
      "type": "function"
    },
    {
      "constant": true,
      "inputs": [
        {
          "internalType": "bytes4",
          "name": "_id",
          "type": "bytes4"
        }
      ],
      "name": "getLoginFromId",
      "outputs": [
        {
          "internalType": "string",
          "name": "_login",
          "type": "string"
        }
      ],
      "payable": false,
      "stateMutability": "view",
      "type": "function"
    },
    {
      "constant": true,
      "inputs": [
        {
          "internalType": "string",
          "name": "_login",
          "type": "string"
        }
      ],
      "name": "getIdFromLogin",
      "outputs": [
        {
          "internalType": "bytes4",
          "name": "_id",
          "type": "bytes4"
        }
      ],
      "payable": false,
      "stateMutability": "view",
      "type": "function"
    },
    {
      "constant": true,
      "inputs": [],
      "name": "getUtilisateursHopitalCount",
      "outputs": [
        {
          "internalType": "uint256",
          "name": "",
          "type": "uint256"
        }
      ],
      "payable": false,
      "stateMutability": "view",
      "type": "function"
    },
    {
      "constant": false,
      "inputs": [
        {
          "internalType": "string",
          "name": "_login",
          "type": "string"
        }
      ],
      "name": "getInfoEtabMembreHopital",
      "outputs": [
        {
          "internalType": "string",
          "name": "_nomEtab",
          "type": "string"
        },
        {
          "internalType": "string",
          "name": "_adresseEtab",
          "type": "string"
        },
        {
          "internalType": "string",
          "name": "_codePostaleEtab",
          "type": "string"
        },
        {
          "internalType": "string",
          "name": "_villeEtab",
          "type": "string"
        }
      ],
      "payable": false,
      "stateMutability": "nonpayable",
      "type": "function"
    },
    {
      "constant": true,
      "inputs": [
        {
          "internalType": "string",
          "name": "_login",
          "type": "string"
        }
      ],
      "name": "getInfoIdentificationCitoyen",
      "outputs": [
        {
          "internalType": "string",
          "name": "_sexe",
          "type": "string"
        },
        {
          "internalType": "string",
          "name": "_nomFamille",
          "type": "string"
        },
        {
          "internalType": "string",
          "name": "_nomUsage",
          "type": "string"
        },
        {
          "internalType": "string",
          "name": "_premierPrenom",
          "type": "string"
        },
        {
          "internalType": "string",
          "name": "_autresPrenoms",
          "type": "string"
        },
        {
          "internalType": "string",
          "name": "_etatCivil",
          "type": "string"
        }
      ],
      "payable": false,
      "stateMutability": "view",
      "type": "function"
    },
    {
      "constant": true,
      "inputs": [
        {
          "internalType": "string",
          "name": "_login",
          "type": "string"
        }
      ],
      "name": "getInfoNaissanceCitoyen",
      "outputs": [
        {
          "internalType": "string",
          "name": "_dateNaissance",
          "type": "string"
        },
        {
          "internalType": "string",
          "name": "_communeNaissance",
          "type": "string"
        },
        {
          "internalType": "string",
          "name": "_departementNaissance",
          "type": "string"
        }
      ],
      "payable": false,
      "stateMutability": "view",
      "type": "function"
    },
    {
      "constant": true,
      "inputs": [
        {
          "internalType": "string",
          "name": "_login",
          "type": "string"
        }
      ],
      "name": "getInfoParentsCitoyen",
      "outputs": [
        {
          "internalType": "string",
          "name": "_nomFamilleMere",
          "type": "string"
        },
        {
          "internalType": "string",
          "name": "_prenomMere",
          "type": "string"
        },
        {
          "internalType": "string",
          "name": "_nomFamillePere",
          "type": "string"
        },
        {
          "internalType": "string",
          "name": "_prenomPere",
          "type": "string"
        }
      ],
      "payable": false,
      "stateMutability": "view",
      "type": "function"
    },
    {
      "constant": true,
      "inputs": [
        {
          "internalType": "bytes4",
          "name": "code",
          "type": "bytes4"
        }
      ],
      "name": "fromCode",
      "outputs": [
        {
          "internalType": "string",
          "name": "",
          "type": "string"
        }
      ],
      "payable": false,
      "stateMutability": "pure",
      "type": "function"
    },
    {
      "constant": false,
      "inputs": [
        {
          "internalType": "string",
          "name": "_sexe",
          "type": "string"
        },
        {
          "internalType": "string",
          "name": "_nomFamille",
          "type": "string"
        },
        {
          "internalType": "string",
          "name": "_nomUsage",
          "type": "string"
        },
        {
          "internalType": "string",
          "name": "_premierPrenom",
          "type": "string"
        },
        {
          "internalType": "string",
          "name": "_autresPrenoms",
          "type": "string"
        }
      ],
      "name": "addNaissance",
      "outputs": [],
      "payable": false,
      "stateMutability": "nonpayable",
      "type": "function"
    },
    {
      "constant": false,
      "inputs": [
        {
          "internalType": "string",
          "name": "_login",
          "type": "string"
        },
        {
          "internalType": "string",
          "name": "_dateNaissance",
          "type": "string"
        },
        {
          "internalType": "string",
          "name": "_communeNaissance",
          "type": "string"
        },
        {
          "internalType": "string",
          "name": "_departementNaissance",
          "type": "string"
        }
      ],
      "name": "addDonneesNaissance",
      "outputs": [],
      "payable": false,
      "stateMutability": "nonpayable",
      "type": "function"
    },
    {
      "constant": false,
      "inputs": [
        {
          "internalType": "string",
          "name": "_login",
          "type": "string"
        },
        {
          "internalType": "string",
          "name": "_nomFamilleMere",
          "type": "string"
        },
        {
          "internalType": "string",
          "name": "_prenomMere",
          "type": "string"
        },
        {
          "internalType": "string",
          "name": "_nomFamillePere",
          "type": "string"
        },
        {
          "internalType": "string",
          "name": "_prenomPere",
          "type": "string"
        }
      ],
      "name": "addDonneesParents",
      "outputs": [],
      "payable": false,
      "stateMutability": "nonpayable",
      "type": "function"
    },
    {
      "constant": false,
      "inputs": [
        {
          "internalType": "string",
          "name": "_login",
          "type": "string"
        }
      ],
      "name": "verifyIdentite",
      "outputs": [],
      "payable": false,
      "stateMutability": "nonpayable",
      "type": "function"
    },
    {
      "constant": true,
      "inputs": [
        {
          "internalType": "string",
          "name": "_login",
          "type": "string"
        }
      ],
      "name": "getHash",
      "outputs": [
        {
          "internalType": "bytes32",
          "name": "_hash",
          "type": "bytes32"
        }
      ],
      "payable": false,
      "stateMutability": "view",
      "type": "function"
    },
    {
      "constant": true,
      "inputs": [
        {
          "internalType": "string",
          "name": "_login",
          "type": "string"
        },
        {
          "internalType": "string",
          "name": "_pwd",
          "type": "string"
        }
      ],
      "name": "verifyAuthentification",
      "outputs": [
        {
          "internalType": "string",
          "name": "_verify",
          "type": "string"
        },
        {
          "internalType": "string",
          "name": "_typ",
          "type": "string"
        }
      ],
      "payable": false,
      "stateMutability": "view",
      "type": "function"
    },
    {
      "constant": true,
      "inputs": [
        {
          "internalType": "bytes32",
          "name": "id_hash",
          "type": "bytes32"
        }
      ],
      "name": "verifyCertification",
      "outputs": [
        {
          "internalType": "string",
          "name": "_login",
          "type": "string"
        }
      ],
      "payable": false,
      "stateMutability": "view",
      "type": "function"
    },
    {
      "constant": false,
      "inputs": [
        {
          "internalType": "string",
          "name": "_login",
          "type": "string"
        },
        {
          "internalType": "string",
          "name": "_etatCivil",
          "type": "string"
        }
      ],
      "name": "declareMariage",
      "outputs": [],
      "payable": false,
      "stateMutability": "nonpayable",
      "type": "function"
    }
  ],
  "bytecode": "0x60806040526000600155600060025560006003556000600455600060055534801561002957600080fd5b50336000806101000a81548173ffffffffffffffffffffffffffffffffffffffff021916908373ffffffffffffffffffffffffffffffffffffffff160217905550615c3e806200007a6000396000f3fe608060405234801561001057600080fd5b50600436106101425760003560e01c80636a78c47a116100b8578063b0c96cfb1161007c578063b0c96cfb14611adf578063bcf6e46a14611bec578063c606ef6614611e64578063d31a739a1461209b578063db9552f4146120b9578063e218567b146121ed57610142565b80636a78c47a1461137c5780637c770e431461158857806383ebabaa1461164e5780638da5cb5b146118155780638e09e63c1461185f57610142565b8063229c8efa1161010a578063229c8efa14610e345780632c0ad2ad146110675780633c8beaeb1461112d5780633de79ac91461114b5780635b6beeb9146111f2578063676152b5146112c157610142565b806302759bb61461014757806307569f2f146104975780630aba0e201461070f578063122717b714610a265780631d5a3b8214610b1d575b600080fd5b6102006004803603602081101561015d57600080fd5b810190808035906020019064010000000081111561017a57600080fd5b82018360208201111561018c57600080fd5b803590602001918460018302840111640100000000831117156101ae57600080fd5b91908080601f016020809104026020016040519081016040528093929190818152602001838380828437600081840152601f19601f82011690508083019250505050505050919291929050505061233f565b6040518080602001806020018060200180602001806020018060200187810387528d818151815260200191508051906020019080838360005b83811015610254578082015181840152602081019050610239565b50505050905090810190601f1680156102815780820380516001836020036101000a031916815260200191505b5087810386528c818151815260200191508051906020019080838360005b838110156102ba57808201518184015260208101905061029f565b50505050905090810190601f1680156102e75780820380516001836020036101000a031916815260200191505b5087810385528b818151815260200191508051906020019080838360005b83811015610320578082015181840152602081019050610305565b50505050905090810190601f16801561034d5780820380516001836020036101000a031916815260200191505b5087810384528a818151815260200191508051906020019080838360005b8381101561038657808201518184015260208101905061036b565b50505050905090810190601f1680156103b35780820380516001836020036101000a031916815260200191505b50878103835289818151815260200191508051906020019080838360005b838110156103ec5780820151818401526020810190506103d1565b50505050905090810190601f1680156104195780820380516001836020036101000a031916815260200191505b50878103825288818151815260200191508051906020019080838360005b83811015610452578082015181840152602081019050610437565b50505050905090810190601f16801561047f5780820380516001836020036101000a031916815260200191505b509c5050505050505050505050505060405180910390f35b610550600480360360208110156104ad57600080fd5b81019080803590602001906401000000008111156104ca57600080fd5b8201836020820111156104dc57600080fd5b803590602001918460018302840111640100000000831117156104fe57600080fd5b91908080601f016020809104026020016040519081016040528093929190818152602001838380828437600081840152601f19601f8201169050808301925050505050505091929192905050506127c9565b6040518080602001806020018060200180602001858103855289818151815260200191508051906020019080838360005b8381101561059c578082015181840152602081019050610581565b50505050905090810190601f1680156105c95780820380516001836020036101000a031916815260200191505b50858103845288818151815260200191508051906020019080838360005b838110156106025780820151818401526020810190506105e7565b50505050905090810190601f16801561062f5780820380516001836020036101000a031916815260200191505b50858103835287818151815260200191508051906020019080838360005b8381101561066857808201518184015260208101905061064d565b50505050905090810190601f1680156106955780820380516001836020036101000a031916815260200191505b50858103825286818151815260200191508051906020019080838360005b838110156106ce5780820151818401526020810190506106b3565b50505050905090810190601f1680156106fb5780820380516001836020036101000a031916815260200191505b509850505050505050505060405180910390f35b610a24600480360360a081101561072557600080fd5b810190808035906020019064010000000081111561074257600080fd5b82018360208201111561075457600080fd5b8035906020019184600183028401116401000000008311171561077657600080fd5b91908080601f016020809104026020016040519081016040528093929190818152602001838380828437600081840152601f19601f820116905080830192505050505050509192919290803590602001906401000000008111156107d957600080fd5b8201836020820111156107eb57600080fd5b8035906020019184600183028401116401000000008311171561080d57600080fd5b91908080601f016020809104026020016040519081016040528093929190818152602001838380828437600081840152601f19601f8201169050808301925050505050505091929192908035906020019064010000000081111561087057600080fd5b82018360208201111561088257600080fd5b803590602001918460018302840111640100000000831117156108a457600080fd5b91908080601f016020809104026020016040519081016040528093929190818152602001838380828437600081840152601f19601f8201169050808301925050505050505091929192908035906020019064010000000081111561090757600080fd5b82018360208201111561091957600080fd5b8035906020019184600183028401116401000000008311171561093b57600080fd5b91908080601f016020809104026020016040519081016040528093929190818152602001838380828437600081840152601f19601f8201169050808301925050505050505091929192908035906020019064010000000081111561099e57600080fd5b8201836020820111156109b057600080fd5b803590602001918460018302840111640100000000831117156109d257600080fd5b91908080601f016020809104026020016040519081016040528093929190818152602001838380828437600081840152601f19601f820116905080830192505050505050509192919290505050612b67565b005b610a5260048036036020811015610a3c57600080fd5b81019080803590602001909291905050506132a9565b6040518080602001847bffffffffffffffffffffffffffffffffffffffffffffffffffffffff19167bffffffffffffffffffffffffffffffffffffffffffffffffffffffff1916815260200183151515158152602001828103825285818151815260200191508051906020019080838360005b83811015610ae0578082015181840152602081019050610ac5565b50505050905090810190601f168015610b0d5780820380516001836020036101000a031916815260200191505b5094505050505060405180910390f35b610e32600480360360a0811015610b3357600080fd5b8101908080359060200190640100000000811115610b5057600080fd5b820183602082011115610b6257600080fd5b80359060200191846001830284011164010000000083111715610b8457600080fd5b91908080601f016020809104026020016040519081016040528093929190818152602001838380828437600081840152601f19601f82011690508083019250505050505050919291929080359060200190640100000000811115610be757600080fd5b820183602082011115610bf957600080fd5b80359060200191846001830284011164010000000083111715610c1b57600080fd5b91908080601f016020809104026020016040519081016040528093929190818152602001838380828437600081840152601f19601f82011690508083019250505050505050919291929080359060200190640100000000811115610c7e57600080fd5b820183602082011115610c9057600080fd5b80359060200191846001830284011164010000000083111715610cb257600080fd5b91908080601f016020809104026020016040519081016040528093929190818152602001838380828437600081840152601f19601f82011690508083019250505050505050919291929080359060200190640100000000811115610d1557600080fd5b820183602082011115610d2757600080fd5b80359060200191846001830284011164010000000083111715610d4957600080fd5b91908080601f016020809104026020016040519081016040528093929190818152602001838380828437600081840152601f19601f82011690508083019250505050505050919291929080359060200190640100000000811115610dac57600080fd5b820183602082011115610dbe57600080fd5b80359060200191846001830284011164010000000083111715610de057600080fd5b91908080601f016020809104026020016040519081016040528093929190818152602001838380828437600081840152601f19601f82011690508083019250505050505050919291929050505061345b565b005b610e3c613572565b60405180806020018060200180602001806020018060200186810386528b818151815260200191508051906020019080838360005b83811015610e8c578082015181840152602081019050610e71565b50505050905090810190601f168015610eb95780820380516001836020036101000a031916815260200191505b5086810385528a818151815260200191508051906020019080838360005b83811015610ef2578082015181840152602081019050610ed7565b50505050905090810190601f168015610f1f5780820380516001836020036101000a031916815260200191505b50868103845289818151815260200191508051906020019080838360005b83811015610f58578082015181840152602081019050610f3d565b50505050905090810190601f168015610f855780820380516001836020036101000a031916815260200191505b50868103835288818151815260200191508051906020019080838360005b83811015610fbe578082015181840152602081019050610fa3565b50505050905090810190601f168015610feb5780820380516001836020036101000a031916815260200191505b50868103825287818151815260200191508051906020019080838360005b83811015611024578082015181840152602081019050611009565b50505050905090810190601f1680156110515780820380516001836020036101000a031916815260200191505b509a505050505050505050505060405180910390f35b6110b26004803603602081101561107d57600080fd5b8101908080357bffffffffffffffffffffffffffffffffffffffffffffffffffffffff1916906020019092919050505061388e565b6040518080602001828103825283818151815260200191508051906020019080838360005b838110156110f25780820151818401526020810190506110d7565b50505050905090810190601f16801561111f5780820380516001836020036101000a031916815260200191505b509250505060405180910390f35b611135613a78565b6040518082815260200191505060405180910390f35b6111776004803603602081101561116157600080fd5b8101908080359060200190929190505050613a82565b6040518080602001828103825283818151815260200191508051906020019080838360005b838110156111b757808201518184015260208101905061119c565b50505050905090810190601f1680156111e45780820380516001836020036101000a031916815260200191505b509250505060405180910390f35b6112ab6004803603602081101561120857600080fd5b810190808035906020019064010000000081111561122557600080fd5b82018360208201111561123757600080fd5b8035906020019184600183028401116401000000008311171561125957600080fd5b91908080601f016020809104026020016040519081016040528093929190818152602001838380828437600081840152601f19601f820116905080830192505050505050509192919290505050613b37565b6040518082815260200191505060405180910390f35b61137a600480360360208110156112d757600080fd5b81019080803590602001906401000000008111156112f457600080fd5b82018360208201111561130657600080fd5b8035906020019184600183028401116401000000008311171561132857600080fd5b91908080601f016020809104026020016040519081016040528093929190818152602001838380828437600081840152601f19601f820116905080830192505050505050509192919290505050613bad565b005b6114356004803603602081101561139257600080fd5b81019080803590602001906401000000008111156113af57600080fd5b8201836020820111156113c157600080fd5b803590602001918460018302840111640100000000831117156113e357600080fd5b91908080601f016020809104026020016040519081016040528093929190818152602001838380828437600081840152601f19601f820116905080830192505050505050509192919290505050614585565b60405180806020018060200180602001848103845287818151815260200191508051906020019080838360005b8381101561147d578082015181840152602081019050611462565b50505050905090810190601f1680156114aa5780820380516001836020036101000a031916815260200191505b50848103835286818151815260200191508051906020019080838360005b838110156114e35780820151818401526020810190506114c8565b50505050905090810190601f1680156115105780820380516001836020036101000a031916815260200191505b50848103825285818151815260200191508051906020019080838360005b8381101561154957808201518184015260208101905061152e565b50505050905090810190601f1680156115765780820380516001836020036101000a031916815260200191505b50965050505050505060405180910390f35b6115d36004803603602081101561159e57600080fd5b8101908080357bffffffffffffffffffffffffffffffffffffffffffffffffffffffff1916906020019092919050505061480e565b6040518080602001828103825283818151815260200191508051906020019080838360005b838110156116135780820151818401526020810190506115f8565b50505050905090810190601f1680156116405780820380516001836020036101000a031916815260200191505b509250505060405180910390f35b611656614901565b6040518080602001806020018060200180602001858103855289818151815260200191508051906020019080838360005b838110156116a2578082015181840152602081019050611687565b50505050905090810190601f1680156116cf5780820380516001836020036101000a031916815260200191505b50858103845288818151815260200191508051906020019080838360005b838110156117085780820151818401526020810190506116ed565b50505050905090810190601f1680156117355780820380516001836020036101000a031916815260200191505b50858103835287818151815260200191508051906020019080838360005b8381101561176e578082015181840152602081019050611753565b50505050905090810190601f16801561179b5780820380516001836020036101000a031916815260200191505b50858103825286818151815260200191508051906020019080838360005b838110156117d45780820151818401526020810190506117b9565b50505050905090810190601f1680156118015780820380516001836020036101000a031916815260200191505b509850505050505050505060405180910390f35b61181d614b7f565b604051808273ffffffffffffffffffffffffffffffffffffffff1673ffffffffffffffffffffffffffffffffffffffff16815260200191505060405180910390f35b611add6004803603608081101561187557600080fd5b810190808035906020019064010000000081111561189257600080fd5b8201836020820111156118a457600080fd5b803590602001918460018302840111640100000000831117156118c657600080fd5b91908080601f016020809104026020016040519081016040528093929190818152602001838380828437600081840152601f19601f8201169050808301925050505050505091929192908035906020019064010000000081111561192957600080fd5b82018360208201111561193b57600080fd5b8035906020019184600183028401116401000000008311171561195d57600080fd5b91908080601f016020809104026020016040519081016040528093929190818152602001838380828437600081840152601f19601f820116905080830192505050505050509192919290803590602001906401000000008111156119c057600080fd5b8201836020820111156119d257600080fd5b803590602001918460018302840111640100000000831117156119f457600080fd5b91908080601f016020809104026020016040519081016040528093929190818152602001838380828437600081840152601f19601f82011690508083019250505050505050919291929080359060200190640100000000811115611a5757600080fd5b820183602082011115611a6957600080fd5b80359060200191846001830284011164010000000083111715611a8b57600080fd5b91908080601f016020809104026020016040519081016040528093929190818152602001838380828437600081840152601f19601f820116905080830192505050505050509192919290505050614ba4565b005b611b9860048036036020811015611af557600080fd5b8101908080359060200190640100000000811115611b1257600080fd5b820183602082011115611b2457600080fd5b80359060200191846001830284011164010000000083111715611b4657600080fd5b91908080601f016020809104026020016040519081016040528093929190818152602001838380828437600081840152601f19601f820116905080830192505050505050509192919290505050614c97565b60405180827bffffffffffffffffffffffffffffffffffffffffffffffffffffffff19167bffffffffffffffffffffffffffffffffffffffffffffffffffffffff1916815260200191505060405180910390f35b611ca560048036036020811015611c0257600080fd5b8101908080359060200190640100000000811115611c1f57600080fd5b820183602082011115611c3157600080fd5b80359060200191846001830284011164010000000083111715611c5357600080fd5b91908080601f016020809104026020016040519081016040528093929190818152602001838380828437600081840152601f19601f820116905080830192505050505050509192919290505050614d1a565b6040518080602001806020018060200180602001858103855289818151815260200191508051906020019080838360005b83811015611cf1578082015181840152602081019050611cd6565b50505050905090810190601f168015611d1e5780820380516001836020036101000a031916815260200191505b50858103845288818151815260200191508051906020019080838360005b83811015611d57578082015181840152602081019050611d3c565b50505050905090810190601f168015611d845780820380516001836020036101000a031916815260200191505b50858103835287818151815260200191508051906020019080838360005b83811015611dbd578082015181840152602081019050611da2565b50505050905090810190601f168015611dea5780820380516001836020036101000a031916815260200191505b50858103825286818151815260200191508051906020019080838360005b83811015611e23578082015181840152602081019050611e08565b50505050905090810190601f168015611e505780820380516001836020036101000a031916815260200191505b509850505050505050505060405180910390f35b611fb460048036036040811015611e7a57600080fd5b8101908080359060200190640100000000811115611e9757600080fd5b820183602082011115611ea957600080fd5b80359060200191846001830284011164010000000083111715611ecb57600080fd5b91908080601f016020809104026020016040519081016040528093929190818152602001838380828437600081840152601f19601f82011690508083019250505050505050919291929080359060200190640100000000811115611f2e57600080fd5b820183602082011115611f4057600080fd5b80359060200191846001830284011164010000000083111715611f6257600080fd5b91908080601f016020809104026020016040519081016040528093929190818152602001838380828437600081840152601f19601f82011690508083019250505050505050919291929050505061504d565b604051808060200180602001838103835285818151815260200191508051906020019080838360005b83811015611ff8578082015181840152602081019050611fdd565b50505050905090810190601f1680156120255780820380516001836020036101000a031916815260200191505b50838103825284818151815260200191508051906020019080838360005b8381101561205e578082015181840152602081019050612043565b50505050905090810190601f16801561208b5780820380516001836020036101000a031916815260200191505b5094505050505060405180910390f35b6120a3615287565b6040518082815260200191505060405180910390f35b612172600480360360208110156120cf57600080fd5b81019080803590602001906401000000008111156120ec57600080fd5b8201836020820111156120fe57600080fd5b8035906020019184600183028401116401000000008311171561212057600080fd5b91908080601f016020809104026020016040519081016040528093929190818152602001838380828437600081840152601f19601f820116905080830192505050505050509192919290505050615291565b6040518080602001828103825283818151815260200191508051906020019080838360005b838110156121b2578082015181840152602081019050612197565b50505050905090810190601f1680156121df5780820380516001836020036101000a031916815260200191505b509250505060405180910390f35b61233d6004803603604081101561220357600080fd5b810190808035906020019064010000000081111561222057600080fd5b82018360208201111561223257600080fd5b8035906020019184600183028401116401000000008311171561225457600080fd5b91908080601f016020809104026020016040519081016040528093929190818152602001838380828437600081840152601f19601f820116905080830192505050505050509192919290803590602001906401000000008111156122b757600080fd5b8201836020820111156122c957600080fd5b803590602001918460018302840111640100000000831117156122eb57600080fd5b91908080601f016020809104026020016040519081016040528093929190818152602001838380828437600081840152601f19601f82011690508083019250505050505050919291929050505061539f565b005b6060806060806060806123506159c1565b6013886040518082805190602001908083835b602083106123865780518252602082019150602081019050602083039250612363565b6001836020036101000a03801982511681845116808217855250505050505090500191505090815260200160405180910390206005016040518060c0016040529081600082018054600181600116156101000203166002900480601f0160208091040260200160405190810160405280929190818152602001828054600181600116156101000203166002900480156124605780601f1061243557610100808354040283529160200191612460565b820191906000526020600020905b81548152906001019060200180831161244357829003601f168201915b50505050508152602001600182018054600181600116156101000203166002900480601f0160208091040260200160405190810160405280929190818152602001828054600181600116156101000203166002900480156125025780601f106124d757610100808354040283529160200191612502565b820191906000526020600020905b8154815290600101906020018083116124e557829003601f168201915b50505050508152602001600282018054600181600116156101000203166002900480601f0160208091040260200160405190810160405280929190818152602001828054600181600116156101000203166002900480156125a45780601f10612579576101008083540402835291602001916125a4565b820191906000526020600020905b81548152906001019060200180831161258757829003601f168201915b50505050508152602001600382018054600181600116156101000203166002900480601f0160208091040260200160405190810160405280929190818152602001828054600181600116156101000203166002900480156126465780601f1061261b57610100808354040283529160200191612646565b820191906000526020600020905b81548152906001019060200180831161262957829003601f168201915b50505050508152602001600482018054600181600116156101000203166002900480601f0160208091040260200160405190810160405280929190818152602001828054600181600116156101000203166002900480156126e85780601f106126bd576101008083540402835291602001916126e8565b820191906000526020600020905b8154815290600101906020018083116126cb57829003601f168201915b50505050508152602001600582018054600181600116156101000203166002900480601f01602080910402602001604051908101604052809291908181526020018280546001816001161561010002031660029004801561278a5780601f1061275f5761010080835404028352916020019161278a565b820191906000526020600020905b81548152906001019060200180831161276d57829003601f168201915b505050505081525050905080600001519650806020015195508060400151945080606001519350806080015192508060a0015191505091939550919395565b6060806060806010856040518082805190602001908083835b6020831061280557805182526020820191506020810190506020830392506127e2565b6001836020036101000a0380198251168184511680821785525050505050509050019150509081526020016040518091039020600801600b600082018160000190805460018160011615610100020316600290046128649291906159f7565b506001820181600101908054600181600116156101000203166002900461288c9291906159f7565b50600282018160020190805460018160011615610100020316600290046128b49291906159f7565b50600382018160030190805460018160011615610100020316600290046128dc9291906159f7565b50905050600b6000018054600181600116156101000203166002900480601f0160208091040260200160405190810160405280929190818152602001828054600181600116156101000203166002900480156129795780601f1061294e57610100808354040283529160200191612979565b820191906000526020600020905b81548152906001019060200180831161295c57829003601f168201915b50505050509350600b6001018054600181600116156101000203166002900480601f016020809104026020016040519081016040528092919081815260200182805460018160011615610100020316600290048015612a195780601f106129ee57610100808354040283529160200191612a19565b820191906000526020600020905b8154815290600101906020018083116129fc57829003601f168201915b50505050509250600b6002018054600181600116156101000203166002900480601f016020809104026020016040519081016040528092919081815260200182805460018160011615610100020316600290048015612ab95780601f10612a8e57610100808354040283529160200191612ab9565b820191906000526020600020905b815481529060010190602001808311612a9c57829003601f168201915b50505050509150600b6003018054600181600116156101000203166002900480601f016020809104026020016040519081016040528092919081815260200182805460018160011615610100020316600290048015612b595780601f10612b2e57610100808354040283529160200191612b59565b820191906000526020600020905b815481529060010190602001808311612b3c57829003601f168201915b505050505090509193509193565b612b6f6159c1565b612b77615a7e565b612b7f615a9f565b60608790508073__LibConcatenateStrings_________________63266001d39091886040518363ffffffff1660e01b8152600401808060200180602001838103835285818151815260200191508051906020019080838360005b83811015612bf5578082015181840152602081019050612bda565b50505050905090810190601f168015612c225780820380516001836020036101000a031916815260200191505b50838103825284818151815260200191508051906020019080838360005b83811015612c5b578082015181840152602081019050612c40565b50505050905090810190601f168015612c885780820380516001836020036101000a031916815260200191505b5094505050505060006040518083038186803b158015612ca757600080fd5b505af4158015612cbb573d6000803e3d6000fd5b505050506040513d6000823e3d601f19601f820116820180604052506020811015612ce557600080fd5b8101908080516040519392919084640100000000821115612d0557600080fd5b83820191506020820185811115612d1b57600080fd5b8251866001820283011164010000000082111715612d3857600080fd5b8083526020830192505050908051906020019080838360005b83811015612d6c578082015181840152602081019050612d51565b50505050905090810190601f168015612d995780820380516001836020036101000a031916815260200191505b50604052505050905060606040518060400160405280600881526020017f70617373776f72640000000000000000000000000000000000000000000000008152509050600081805190602001209050612df0615ac7565b60006040518060400160405280600981526020017f6e61697373616e63650000000000000000000000000000000000000000000000815250805190602001209050600085805190602001209050612e468161388e565b955060405180604001604052808581526020016040518060400160405280600781526020017f6369746f79656e0000000000000000000000000000000000000000000000000081525081525092506040518060c001604052808f81526020018e81526020018d81526020018c81526020018b81526020016040518060400160405280600b81526020017f43454c49424154414952450000000000000000000000000000000000000000008152508152509850604051806101000160405280878152602001600015158152602001827bffffffffffffffffffffffffffffffffffffffffffffffffffffffff191681526020018381526020018481526020018a8152602001898152602001888152506013876040518082805190602001908083835b60208310612f8a5780518252602082019150602081019050602083039250612f67565b6001836020036101000a03801982511681845116808217855250505050505090500191505090815260200160405180910390206000820151816000019080519060200190612fd9929190615ae4565b5060208201518160010160006101000a81548160ff02191690831515021790555060408201518160010160016101000a81548163ffffffff021916908360e01c021790555060608201518160020155608082015181600301600082015181600001556020820151816001019080519060200190613057929190615ae4565b50505060a082015181600501600082015181600001908051906020019061307f929190615ae4565b50602082015181600101908051906020019061309c929190615ae4565b5060408201518160020190805190602001906130b9929190615ae4565b5060608201518160030190805190602001906130d6929190615ae4565b5060808201518160040190805190602001906130f3929190615ae4565b5060a0820151816005019080519060200190613110929190615ae4565b50505060c082015181600b016000820151816000019080519060200190613138929190615ae4565b506020820151816001019080519060200190613155929190615ae4565b506040820151816002019080519060200190613172929190615ae4565b50505060e082015181600e01600082015181600001908051906020019061319a929190615ae4565b5060208201518160010190805190602001906131b7929190615ae4565b5060408201518160020190805190602001906131d4929190615ae4565b5060608201518160030190805190602001906131f1929190615ae4565b505050905050856014600060055481526020019081526020016000209080519060200190613220929190615b64565b508560156000837bffffffffffffffffffffffffffffffffffffffffffffffffffffffff19167bffffffffffffffffffffffffffffffffffffffffffffffffffffffff191681526020019081526020016000209080519060200190613286929190615b64565b506005600081548092919060010191905055505050505050505050505050505050565b6060600080601460008581526020019081526020016000208054600181600116156101000203166002900480601f0160208091040260200160405190810160405280929190818152602001828054600181600116156101000203166002900480156133555780601f1061332a57610100808354040283529160200191613355565b820191906000526020600020905b81548152906001019060200180831161333857829003601f168201915b505050505092506013836040518082805190602001908083835b60208310613392578051825260208201915060208101905060208303925061336f565b6001836020036101000a038019825116818451168082178552505050505050905001915050908152602001604051809103902060010160019054906101000a900460e01b91506013836040518082805190602001908083835b6020831061340e57805182526020820191506020810190506020830392506133eb565b6001836020036101000a038019825116818451168082178552505050505050905001915050908152602001604051809103902060010160009054906101000a900460ff1690509193909250565b613463615a9f565b6040518060800160405280868152602001858152602001848152602001838152509050806013876040518082805190602001908083835b602083106134bd578051825260208201915060208101905060208303925061349a565b6001836020036101000a0380198251168184511680821785525050505050509050019150509081526020016040518091039020600e01600082015181600001908051906020019061350f929190615ae4565b50602082015181600101908051906020019061352c929190615ae4565b506040820151816002019080519060200190613549929190615ae4565b506060820151816003019080519060200190613566929190615ae4565b50905050505050505050565b6006806000018054600181600116156101000203166002900480601f01602080910402602001604051908101604052809291908181526020018280546001816001161561010002031660029004801561360c5780601f106135e15761010080835404028352916020019161360c565b820191906000526020600020905b8154815290600101906020018083116135ef57829003601f168201915b505050505090806001018054600181600116156101000203166002900480601f0160208091040260200160405190810160405280929190818152602001828054600181600116156101000203166002900480156136aa5780601f1061367f576101008083540402835291602001916136aa565b820191906000526020600020905b81548152906001019060200180831161368d57829003601f168201915b505050505090806002018054600181600116156101000203166002900480601f0160208091040260200160405190810160405280929190818152602001828054600181600116156101000203166002900480156137485780601f1061371d57610100808354040283529160200191613748565b820191906000526020600020905b81548152906001019060200180831161372b57829003601f168201915b505050505090806003018054600181600116156101000203166002900480601f0160208091040260200160405190810160405280929190818152602001828054600181600116156101000203166002900480156137e65780601f106137bb576101008083540402835291602001916137e6565b820191906000526020600020905b8154815290600101906020018083116137c957829003601f168201915b505050505090806004018054600181600116156101000203166002900480601f0160208091040260200160405190810160405280929190818152602001828054600181600116156101000203166002900480156138845780601f1061385957610100808354040283529160200191613884565b820191906000526020600020905b81548152906001019060200180831161386757829003601f168201915b5050505050905085565b606080600a6040519080825280601f01601f1916602001820160405280156138c55781602001600182028038833980820191505090505b5090507f3000000000000000000000000000000000000000000000000000000000000000816000815181106138f657fe5b60200101907effffffffffffffffffffffffffffffffffffffffffffffffffffffffffffff1916908160001a9053507f78000000000000000000000000000000000000000000000000000000000000008160018151811061395357fe5b60200101907effffffffffffffffffffffffffffffffffffffffffffffffffffffffffffff1916908160001a90535060008090505b6004811015613a6e576139b960108583600481106139a257fe5b1a60f81b60f81c60ff16816139b357fe5b04615918565b8260028360020201815181106139cb57fe5b60200101907effffffffffffffffffffffffffffffffffffffffffffffffffffffffffffff1916908160001a905350613a226010858360048110613a0b57fe5b1a60f81b60f81c60ff1681613a1c57fe5b06615918565b826003836002020181518110613a3457fe5b60200101907effffffffffffffffffffffffffffffffffffffffffffffffffffffffffffff1916908160001a905350806001019050613988565b5080915050919050565b6000600554905090565b6060601660008381526020019081526020016000208054600181600116156101000203166002900480601f016020809104026020016040519081016040528092919081815260200182805460018160011615610100020316600290048015613b2b5780601f10613b0057610100808354040283529160200191613b2b565b820191906000526020600020905b815481529060010190602001808311613b0e57829003601f168201915b50505050509050919050565b60006013826040518082805190602001908083835b60208310613b6f5780518252602082019150602081019050602083039250613b4c565b6001836020036101000a0380198251168184511680821785525050505050509050019150509081526020016040518091039020600201549050919050565b613bb56159c1565b60016013836040518082805190602001908083835b60208310613bed5780518252602082019150602081019050602083039250613bca565b6001836020036101000a038019825116818451168082178552505050505050905001915050908152602001604051809103902060010160006101000a81548160ff021916908315150217905550613c42615ac7565b6013836040518082805190602001908083835b60208310613c785780518252602082019150602081019050602083039250613c55565b6001836020036101000a038019825116818451168082178552505050505050905001915050908152602001604051809103902060030160405180604001604052908160008201548152602001600182018054600181600116156101000203166002900480601f016020809104026020016040519081016040528092919081815260200182805460018160011615610100020316600290048015613d5c5780601f10613d3157610100808354040283529160200191613d5c565b820191906000526020600020905b815481529060010190602001808311613d3f57829003601f168201915b50505050508152505090506000816000015190506013846040518082805190602001908083835b60208310613da65780518252602082019150602081019050602083039250613d83565b6001836020036101000a03801982511681845116808217855250505050505090500191505090815260200160405180910390206005016040518060c0016040529081600082018054600181600116156101000203166002900480601f016020809104026020016040519081016040528092919081815260200182805460018160011615610100020316600290048015613e805780601f10613e5557610100808354040283529160200191613e80565b820191906000526020600020905b815481529060010190602001808311613e6357829003601f168201915b50505050508152602001600182018054600181600116156101000203166002900480601f016020809104026020016040519081016040528092919081815260200182805460018160011615610100020316600290048015613f225780601f10613ef757610100808354040283529160200191613f22565b820191906000526020600020905b815481529060010190602001808311613f0557829003601f168201915b50505050508152602001600282018054600181600116156101000203166002900480601f016020809104026020016040519081016040528092919081815260200182805460018160011615610100020316600290048015613fc45780601f10613f9957610100808354040283529160200191613fc4565b820191906000526020600020905b815481529060010190602001808311613fa757829003601f168201915b50505050508152602001600382018054600181600116156101000203166002900480601f0160208091040260200160405190810160405280929190818152602001828054600181600116156101000203166002900480156140665780601f1061403b57610100808354040283529160200191614066565b820191906000526020600020905b81548152906001019060200180831161404957829003601f168201915b50505050508152602001600482018054600181600116156101000203166002900480601f0160208091040260200160405190810160405280929190818152602001828054600181600116156101000203166002900480156141085780601f106140dd57610100808354040283529160200191614108565b820191906000526020600020905b8154815290600101906020018083116140eb57829003601f168201915b50505050508152602001600582018054600181600116156101000203166002900480601f0160208091040260200160405190810160405280929190818152602001828054600181600116156101000203166002900480156141aa5780601f1061417f576101008083540402835291602001916141aa565b820191906000526020600020905b81548152906001019060200180831161418d57829003601f168201915b505050505081525050925060608360200151905060608460600151905060608273__LibConcatenateStrings_________________63266001d39091846040518363ffffffff1660e01b8152600401808060200180602001838103835285818151815260200191508051906020019080838360005b8381101561423a57808201518184015260208101905061421f565b50505050905090810190601f1680156142675780820380516001836020036101000a031916815260200191505b50838103825284818151815260200191508051906020019080838360005b838110156142a0578082015181840152602081019050614285565b50505050905090810190601f1680156142cd5780820380516001836020036101000a031916815260200191505b5094505050505060006040518083038186803b1580156142ec57600080fd5b505af4158015614300573d6000803e3d6000fd5b505050506040513d6000823e3d601f19601f82011682018060405250602081101561432a57600080fd5b810190808051604051939291908464010000000082111561434a57600080fd5b8382019150602082018581111561436057600080fd5b825186600182028301116401000000008211171561437d57600080fd5b8083526020830192505050908051906020019080838360005b838110156143b1578082015181840152602081019050614396565b50505050905090810190601f1680156143de5780820380516001836020036101000a031916815260200191505b506040525050509050600081805190602001209050806013896040518082805190602001908083835b6020831061442a5780518252602082019150602081019050602083039250614407565b6001836020036101000a0380198251168184511680821785525050505050509050019150509081526020016040518091039020600201819055508760166000838152602001908152602001600020908051906020019061448b929190615b64565b5060405180604001604052808681526020016040518060400160405280600781526020017f6369746f79656e00000000000000000000000000000000000000000000000000815250815250600f896040518082805190602001908083835b6020831061450c57805182526020820191506020810190506020830392506144e9565b6001836020036101000a0380198251168184511680821785525050505050509050019150509081526020016040518091039020600082015181600001556020820151816001019080519060200190614565929190615ae4565b509050506001600081548092919060010191905055505050505050505050565b6060806060614592615a7e565b6013856040518082805190602001908083835b602083106145c857805182526020820191506020810190506020830392506145a5565b6001836020036101000a0380198251168184511680821785525050505050509050019150509081526020016040518091039020600b01604051806060016040529081600082018054600181600116156101000203166002900480601f0160208091040260200160405190810160405280929190818152602001828054600181600116156101000203166002900480156146a25780601f10614677576101008083540402835291602001916146a2565b820191906000526020600020905b81548152906001019060200180831161468557829003601f168201915b50505050508152602001600182018054600181600116156101000203166002900480601f0160208091040260200160405190810160405280929190818152602001828054600181600116156101000203166002900480156147445780601f1061471957610100808354040283529160200191614744565b820191906000526020600020905b81548152906001019060200180831161472757829003601f168201915b50505050508152602001600282018054600181600116156101000203166002900480601f0160208091040260200160405190810160405280929190818152602001828054600181600116156101000203166002900480156147e65780601f106147bb576101008083540402835291602001916147e6565b820191906000526020600020905b8154815290600101906020018083116147c957829003601f168201915b5050505050815250509050806000015193508060200151925080604001519150509193909250565b606060156000837bffffffffffffffffffffffffffffffffffffffffffffffffffffffff19167bffffffffffffffffffffffffffffffffffffffffffffffffffffffff191681526020019081526020016000208054600181600116156101000203166002900480601f0160208091040260200160405190810160405280929190818152602001828054600181600116156101000203166002900480156148f55780601f106148ca576101008083540402835291602001916148f5565b820191906000526020600020905b8154815290600101906020018083116148d857829003601f168201915b50505050509050919050565b600b806000018054600181600116156101000203166002900480601f01602080910402602001604051908101604052809291908181526020018280546001816001161561010002031660029004801561499b5780601f106149705761010080835404028352916020019161499b565b820191906000526020600020905b81548152906001019060200180831161497e57829003601f168201915b505050505090806001018054600181600116156101000203166002900480601f016020809104026020016040519081016040528092919081815260200182805460018160011615610100020316600290048015614a395780601f10614a0e57610100808354040283529160200191614a39565b820191906000526020600020905b815481529060010190602001808311614a1c57829003601f168201915b505050505090806002018054600181600116156101000203166002900480601f016020809104026020016040519081016040528092919081815260200182805460018160011615610100020316600290048015614ad75780601f10614aac57610100808354040283529160200191614ad7565b820191906000526020600020905b815481529060010190602001808311614aba57829003601f168201915b505050505090806003018054600181600116156101000203166002900480601f016020809104026020016040519081016040528092919081815260200182805460018160011615610100020316600290048015614b755780601f10614b4a57610100808354040283529160200191614b75565b820191906000526020600020905b815481529060010190602001808311614b5857829003601f168201915b5050505050905084565b6000809054906101000a900473ffffffffffffffffffffffffffffffffffffffff1681565b614bac615a7e565b6040518060600160405280858152602001848152602001838152509050806013866040518082805190602001908083835b60208310614c005780518252602082019150602081019050602083039250614bdd565b6001836020036101000a0380198251168184511680821785525050505050509050019150509081526020016040518091039020600b016000820151816000019080519060200190614c52929190615ae4565b506020820151816001019080519060200190614c6f929190615ae4565b506040820151816002019080519060200190614c8c929190615ae4565b509050505050505050565b60006013826040518082805190602001908083835b60208310614ccf5780518252602082019150602081019050602083039250614cac565b6001836020036101000a038019825116818451168082178552505050505050905001915050908152602001604051809103902060010160019054906101000a900460e01b9050919050565b606080606080614d28615a9f565b6013866040518082805190602001908083835b60208310614d5e5780518252602082019150602081019050602083039250614d3b565b6001836020036101000a0380198251168184511680821785525050505050509050019150509081526020016040518091039020600e01604051806080016040529081600082018054600181600116156101000203166002900480601f016020809104026020016040519081016040528092919081815260200182805460018160011615610100020316600290048015614e385780601f10614e0d57610100808354040283529160200191614e38565b820191906000526020600020905b815481529060010190602001808311614e1b57829003601f168201915b50505050508152602001600182018054600181600116156101000203166002900480601f016020809104026020016040519081016040528092919081815260200182805460018160011615610100020316600290048015614eda5780601f10614eaf57610100808354040283529160200191614eda565b820191906000526020600020905b815481529060010190602001808311614ebd57829003601f168201915b50505050508152602001600282018054600181600116156101000203166002900480601f016020809104026020016040519081016040528092919081815260200182805460018160011615610100020316600290048015614f7c5780601f10614f5157610100808354040283529160200191614f7c565b820191906000526020600020905b815481529060010190602001808311614f5f57829003601f168201915b50505050508152602001600382018054600181600116156101000203166002900480601f01602080910402602001604051908101604052809291908181526020018280546001816001161561010002031660029004801561501e5780601f10614ff35761010080835404028352916020019161501e565b820191906000526020600020905b81548152906001019060200180831161500157829003601f168201915b505050505081525050905080600001519450806020015193508060400151925080606001519150509193509193565b6060808280519060200120600f856040518082805190602001908083835b6020831061508e578051825260208201915060208101905060208303925061506b565b6001836020036101000a038019825116818451168082178552505050505050905001915050908152602001604051809103902060000154141561520f576040518060400160405280600281526020017f6f6b0000000000000000000000000000000000000000000000000000000000008152509150600f846040518082805190602001908083835b602083106151395780518252602082019150602081019050602083039250615116565b6001836020036101000a03801982511681845116808217855250505050505090500191505090815260200160405180910390206001018054600181600116156101000203166002900480601f0160208091040260200160405190810160405280929190818152602001828054600181600116156101000203166002900480156152035780601f106151d857610100808354040283529160200191615203565b820191906000526020600020905b8154815290600101906020018083116151e657829003601f168201915b50505050509050615280565b6040518060400160405280600281526020017f6b6f00000000000000000000000000000000000000000000000000000000000081525091506040518060400160405280600481526020017f4e554c4c0000000000000000000000000000000000000000000000000000000081525090505b9250929050565b6000600254905090565b6060600f826040518082805190602001908083835b602083106152c957805182526020820191506020810190506020830392506152a6565b6001836020036101000a03801982511681845116808217855250505050505090500191505090815260200160405180910390206001018054600181600116156101000203166002900480601f0160208091040260200160405190810160405280929190818152602001828054600181600116156101000203166002900480156153935780601f1061536857610100808354040283529160200191615393565b820191906000526020600020905b81548152906001019060200180831161537657829003601f168201915b50505050509050919050565b6153a76159c1565b6013836040518082805190602001908083835b602083106153dd57805182526020820191506020810190506020830392506153ba565b6001836020036101000a03801982511681845116808217855250505050505090500191505090815260200160405180910390206005016040518060c0016040529081600082018054600181600116156101000203166002900480601f0160208091040260200160405190810160405280929190818152602001828054600181600116156101000203166002900480156154b75780601f1061548c576101008083540402835291602001916154b7565b820191906000526020600020905b81548152906001019060200180831161549a57829003601f168201915b50505050508152602001600182018054600181600116156101000203166002900480601f0160208091040260200160405190810160405280929190818152602001828054600181600116156101000203166002900480156155595780601f1061552e57610100808354040283529160200191615559565b820191906000526020600020905b81548152906001019060200180831161553c57829003601f168201915b50505050508152602001600282018054600181600116156101000203166002900480601f0160208091040260200160405190810160405280929190818152602001828054600181600116156101000203166002900480156155fb5780601f106155d0576101008083540402835291602001916155fb565b820191906000526020600020905b8154815290600101906020018083116155de57829003601f168201915b50505050508152602001600382018054600181600116156101000203166002900480601f01602080910402602001604051908101604052809291908181526020018280546001816001161561010002031660029004801561569d5780601f106156725761010080835404028352916020019161569d565b820191906000526020600020905b81548152906001019060200180831161568057829003601f168201915b50505050508152602001600482018054600181600116156101000203166002900480601f01602080910402602001604051908101604052809291908181526020018280546001816001161561010002031660029004801561573f5780601f106157145761010080835404028352916020019161573f565b820191906000526020600020905b81548152906001019060200180831161572257829003601f168201915b50505050508152602001600582018054600181600116156101000203166002900480601f0160208091040260200160405190810160405280929190818152602001828054600181600116156101000203166002900480156157e15780601f106157b6576101008083540402835291602001916157e1565b820191906000526020600020905b8154815290600101906020018083116157c457829003601f168201915b5050505050815250509050818160a00181905250806013846040518082805190602001908083835b6020831061582c5780518252602082019150602081019050602083039250615809565b6001836020036101000a0380198251168184511680821785525050505050509050019150509081526020016040518091039020600501600082015181600001908051906020019061587e929190615ae4565b50602082015181600101908051906020019061589b929190615ae4565b5060408201518160020190805190602001906158b8929190615ae4565b5060608201518160030190805190602001906158d5929190615ae4565b5060808201518160040190805190602001906158f2929190615ae4565b5060a082015181600501908051906020019061590f929190615ae4565b50905050505050565b60008160ff16600011158015615932575060098260ff1611155b1561596757817f300000000000000000000000000000000000000000000000000000000000000060f81c0160f81b90506159bc565b8160ff16600a1115801561597f5750600f8260ff1611155b156159b757600a827f610000000000000000000000000000000000000000000000000000000000000060f81c010360f81b90506159bc565b600080fd5b919050565b6040518060c001604052806060815260200160608152602001606081526020016060815260200160608152602001606081525090565b828054600181600116156101000203166002900490600052602060002090601f016020900481019282601f10615a305780548555615a6d565b82800160010185558215615a6d57600052602060002091601f016020900482015b82811115615a6c578254825591600101919060010190615a51565b5b509050615a7a9190615be4565b5090565b60405180606001604052806060815260200160608152602001606081525090565b6040518060800160405280606081526020016060815260200160608152602001606081525090565b604051806040016040528060008019168152602001606081525090565b828054600181600116156101000203166002900490600052602060002090601f016020900481019282601f10615b2557805160ff1916838001178555615b53565b82800160010185558215615b53579182015b82811115615b52578251825591602001919060010190615b37565b5b509050615b609190615be4565b5090565b828054600181600116156101000203166002900490600052602060002090601f016020900481019282601f10615ba557805160ff1916838001178555615bd3565b82800160010185558215615bd3579182015b82811115615bd2578251825591602001919060010190615bb7565b5b509050615be09190615be4565b5090565b615c0691905b80821115615c02576000816000905550600101615bea565b5090565b9056fea265627a7a72315820eeb7637de1fc66247b85b790e7ba1c5a76b4450c6463a73d59103e8ba1ddee9664736f6c63430005100032",
  "source": "// SPDX-License-Identifier: MIT\r\npragma solidity >=0.4.21 <0.8.0;\r\n\r\n/* \r\n* Libraries needed in the contract 'Civil State' contract\r\n*/\r\n/** @title LibConcatenateStrings. */\r\n/// @dev Library with a function for concatenating strings\r\nimport {LibConcatenateStrings} from './LibConcatenateStrings.sol';\r\n/** @title LibTransformUintString. */\r\n/// @dev Library with a function to transform an 'uint' in a 'string\r\nimport {LibTransformUintString} from './LibTransformUintString.sol';\r\n/** @title SafeMath. */\r\n/** \r\n * @dev Library with functions to realize arithmetic operations with overflow checks\r\n *\r\n * Contract collection retrieved from : https://github.com/OpenZeppelin/openzeppelin-contracts/blob/master/contracts/math/SafeMath.sol\r\n *\r\n*/\r\nimport {SafeMath} from './SafeMath.sol';\r\n\r\n/** @title CivilState. */\r\ncontract CivilState {\r\n    /// @dev Include libraries codes and initialize its use in the contract\r\n    using LibConcatenateStrings for string;\r\n    using LibTransformUintString for *;\r\n    using SafeMath for uint; \r\n\r\n    /// @dev Owner address\r\n    address payable public owner;\r\n    \r\n    /// @dev Compteur du nombre d'utilisateurs registrs \r\n    uint utilisateursCount = 0;\r\n    \r\n    /// @dev Compteur du nombre d'utilisateurs hopital\r\n    uint utilisateursHopital = 0;\r\n\r\n    /// @dev Compteur du nombre d'utilisateurs prefecture\r\n    uint utilisateursPrefecture = 0;\r\n\r\n    /// @dev Compteur du nombre d'utilisateurs mairie\r\n    uint utilisateursMairie = 0;\r\n\r\n    /// @dev Compteur du nombre de citoyens\r\n    uint citoyensCount = 0;\r\n\r\n    DonneesIdentification public _donneesIdentTemp;\r\n    DonneesEtablissement public _donneesEtabTemp;\r\n\r\n    /**\r\n    * Informations d'authentifications des utilisateurs\r\n    * typ : pour dfinir si citoyen, admin, membre hpital, membre prefecture, membre mairie\r\n    * valeurs possibles typ : citoyen, admin, hopital, prefecture, mairie\r\n    */\r\n    struct Authentification {\r\n        bytes32 mdp;\r\n        string typ;\r\n    }\r\n\r\n    /**\r\n    * Donnes d'identification des membres\r\n    * de l'hopital, de la prefecture, de la mairie\r\n    *\r\n    */\r\n    struct DonneesIdentification {\r\n        string civilite;\r\n        string nom;\r\n        string prenom;\r\n        string dateNaissance;\r\n        string role;\r\n    }\r\n\r\n    /**\r\n    * Donnes de l'tablissement des membres\r\n    * de l'hopital, de la prefecture, de la mairie\r\n    *\r\n    */\r\n    struct DonneesEtablissement {\r\n        string nom;\r\n        string adresse;\r\n        string codePostale;\r\n        string ville;\r\n    }\r\n\r\n    struct DonneesMembres {\r\n        string login;\r\n        Authentification auth;\r\n        DonneesIdentification donneesIdent;\r\n        DonneesEtablissement donneesEtablissement;\r\n    }\r\n\r\n    /**\r\n    * Donnes d'identification des citoyens\r\n    */\r\n    struct DonneesIdentificationCitoyen {\r\n        string sexe;\r\n        string nomFamille;\r\n        string nomUsage;\r\n        string premierPrenom;\r\n        string autresPrenoms;\r\n        string etatCivil;\r\n    }\r\n\r\n    /**\r\n    * Donnes de naissance des citoyens\r\n    */\r\n    struct DonneesNaissanceCitoyen {\r\n        string dateNaissance;\r\n        string communeNaissance;\r\n        string departementNaissance;\r\n    }\r\n\r\n    /**\r\n    * Donnes des parents des citoyens\r\n    */\r\n    struct DonneesParentsCitoyen {\r\n        string nomFamilleMere;\r\n        string prenomMere;\r\n        string nomFamillePere;\r\n        string prenomPere;\r\n    }\r\n\r\n    struct DonneesCitoyen {\r\n        string login;\r\n        bool identite;\r\n        bytes4 id;\r\n        bytes32 hashCertification;\r\n        Authentification auth;\r\n        DonneesIdentificationCitoyen donneesIdentCitoyen;\r\n        DonneesNaissanceCitoyen donneesNaissanceCitoyen;\r\n        DonneesParentsCitoyen donneesParentsCitoyen;\r\n    }            \r\n\r\n    /*\r\n    * Mapping pour le suivi des utilisateurs\r\n    * cl : string login\r\n    */\r\n    mapping (string => Authentification) utilisateurs;\r\n\r\n    /** @dev\r\n    * Mappings pour suivi des membres de l'hopital, de la prefecture et de la mairie\r\n    *\r\n    */\r\n    mapping(string => DonneesMembres) membresHopital;\r\n\r\n    mapping(string => DonneesMembres) membresPrefecture;\r\n\r\n    mapping(string => DonneesMembres) membresMairie;\r\n\r\n    /** @dev\r\n    * Mappings pour suivi des citoyens\r\n    *\r\n    */\r\n    mapping(string => DonneesCitoyen) citoyens;\r\n\r\n    // CitoyenCount --> login\r\n    mapping(uint => string) ids;\r\n\r\n    // ID --> login\r\n    mapping(bytes4 => string) idLogins;\r\n\r\n    /// @dev Mapping des hash\r\n    mapping(bytes32 => string) hashCertifications;    \r\n\r\n    /// @dev Contract constructor sets the owner\r\n    constructor () public {\r\n        owner = msg.sender;\r\n    }   \r\n    \r\n\r\n    /**\r\n    * Read functions \r\n    */\r\n\r\n    function getTypeUtilisateur(string memory _login) public view returns(string memory _typ) {\r\n        _typ = utilisateurs[_login].typ;\r\n    }\r\n\r\n\r\n    /// @dev Gets the citoyens members count.\r\n    /// @return citoyenCount Citoyens count.\r\n    function getCitoyensCount() public view returns(uint){\r\n        return citoyensCount;\r\n    }\r\n\r\n    function getLoginIdStatut(uint _count) public view returns(string memory _login, bytes4 _id, bool _statut) {\r\n        _login = ids[_count];\r\n        _id = citoyens[_login].id;\r\n        _statut = citoyens[_login].identite;\r\n    }\r\n\r\n    function getLoginFromId(bytes4 _id) public view returns(string memory _login) {\r\n        _login = idLogins[_id];\r\n    }\r\n\r\n    function getIdFromLogin(string memory _login) public view returns (bytes4 _id) {\r\n        _id = citoyens[_login].id;\r\n    }\r\n\r\n    /// @dev Gets the hospital members count.\r\n    /// @return utilisateursHopital Membres hopital count.\r\n    function getUtilisateursHopitalCount() public view returns(uint){\r\n        return utilisateursHopital;\r\n    }\r\n\r\n    /*function getInfoIdentMembreHopital(string memory _login) public returns(string memory _civilite, string memory _nom, string memory _prenom, string memory _dateNaissance, string memory _role){\r\n     \r\n        _donneesIdentTemp = membresHopital[_login].donneesIdent;\r\n        _civilite = _donneesIdentTemp.civilite;\r\n        _nom = _donneesIdentTemp.nom;\r\n        _prenom = _donneesIdentTemp.prenom;\r\n        _dateNaissance = _donneesIdentTemp.dateNaissance;\r\n        _role = _donneesIdentTemp.role;\r\n    }*/\r\n\r\n    function getInfoEtabMembreHopital(string memory _login) public returns(string memory _nomEtab, string memory _adresseEtab, string memory _codePostaleEtab, string memory _villeEtab){\r\n     \r\n        _donneesEtabTemp = membresHopital[_login].donneesEtablissement;\r\n        _nomEtab = _donneesEtabTemp.nom;\r\n        _adresseEtab = _donneesEtabTemp.adresse;\r\n        _codePostaleEtab = _donneesEtabTemp.codePostale;\r\n        _villeEtab = _donneesEtabTemp.ville;\r\n\r\n    }\r\n\r\n    function getInfoIdentificationCitoyen (string memory _login) public view returns(string memory _sexe, \r\n    string memory _nomFamille, string memory _nomUsage, string memory _premierPrenom, \r\n    string memory _autresPrenoms, string memory _etatCivil) {\r\n       DonneesIdentificationCitoyen memory _donneesIdentificationCitoyen;\r\n        _donneesIdentificationCitoyen = citoyens[_login].donneesIdentCitoyen;\r\n\r\n        _sexe = _donneesIdentificationCitoyen.sexe;\r\n        _nomFamille = _donneesIdentificationCitoyen.nomFamille;\r\n        _nomUsage = _donneesIdentificationCitoyen.nomUsage;\r\n        _premierPrenom = _donneesIdentificationCitoyen.premierPrenom;\r\n        _autresPrenoms = _donneesIdentificationCitoyen.autresPrenoms;\r\n        _etatCivil = _donneesIdentificationCitoyen.etatCivil;\r\n\r\n    }\r\n\r\n    function getInfoNaissanceCitoyen (string memory _login) public view returns(string memory _dateNaissance, \r\n    string memory _communeNaissance, string memory _departementNaissance) {\r\n        DonneesNaissanceCitoyen memory _donneesNaissanceCitoyen;\r\n        _donneesNaissanceCitoyen = citoyens[_login].donneesNaissanceCitoyen;\r\n\r\n        _dateNaissance = _donneesNaissanceCitoyen.dateNaissance;\r\n        _communeNaissance = _donneesNaissanceCitoyen.communeNaissance;\r\n        _departementNaissance = _donneesNaissanceCitoyen.departementNaissance;\r\n\r\n    }\r\n\r\n    function getInfoParentsCitoyen (string memory _login) public view returns(string memory _nomFamilleMere,\r\n    string memory _prenomMere, string memory _nomFamillePere, string memory _prenomPere) {\r\n        DonneesParentsCitoyen memory _donneesParentsCitoyen;\r\n        _donneesParentsCitoyen = citoyens[_login].donneesParentsCitoyen;\r\n\r\n        _nomFamilleMere = _donneesParentsCitoyen.nomFamilleMere;\r\n        _prenomMere = _donneesParentsCitoyen.prenomMere;\r\n        _nomFamillePere = _donneesParentsCitoyen.nomFamillePere;\r\n        _prenomPere = _donneesParentsCitoyen.prenomPere;        \r\n    }\r\n\r\n    /**\r\n    * Write functions \r\n    */    \r\n    /*\r\n    /// @dev Function pour ajouter un nouveau utilisateur \r\n    function addMembreHopital(string memory _civilite, string memory _nom, string memory _prenom, string memory _dateNaissance, string memory _role,\r\n    string memory _nomEtab, string memory _adresseEtab, string memory _codePostaleEtab, string memory _villeEtab) public {\r\n        DonneesIdentification memory _donneesIdent;\r\n        DonneesEtablissement memory _donneesEtab;\r\n        string memory _login = _nom;\r\n        _login = _login.concatenate(_prenom);\r\n        _login = _login.concatenate(_dateNaissance);\r\n        string memory _mdp = _login;\r\n        bytes32 _mdpHash = keccak256(bytes(_mdp));\r\n\r\n        Authentification memory _auth;   \r\n\r\n        _donneesIdent = DonneesIdentification({\r\n            civilite: _civilite,\r\n            nom: _nom,\r\n            prenom : _prenom,\r\n            dateNaissance : _dateNaissance,\r\n            role : _role\r\n        });\r\n        \r\n        _donneesEtab = DonneesEtablissement({\r\n            nom : _nomEtab,\r\n            adresse : _adresseEtab,\r\n            codePostale : _codePostaleEtab,\r\n            ville : _villeEtab\r\n        });\r\n\r\n        _auth = Authentification({\r\n            mdp : _mdpHash,\r\n            typ : \"hopital\"\r\n        });\r\n        \r\n    \r\n        membresHopital[_login] = DonneesMembres({\r\n            login : _login,\r\n            auth : _auth,\r\n            donneesIdent : _donneesIdent,\r\n            donneesEtablissement : _donneesEtab\r\n        });\r\n\r\n        utilisateurs[_login] = Authentification({\r\n            mdp : _mdpHash,\r\n            typ : \"hopital\"\r\n        });\r\n\r\n        utilisateursHopital++;\r\n        utilisateursCount++;\r\n    }*/\r\n\r\n    function toHexDigit(uint8 d) pure internal returns (byte) {                                                                                      \r\n    if (0 <= d && d <= 9) {                                                                                                                      \r\n        return byte(uint8(byte('0')) + d);                                                                                                       \r\n    } else if (10 <= uint8(d) && uint8(d) <= 15) {                                                                                               \r\n        return byte(uint8(byte('a')) + d - 10);                                                                                                  \r\n    }                                                                                                                                            \r\n    revert();                                                                                                                                    \r\n    }                                                                                                                                                \r\n\r\n    function fromCode(bytes4 code) public pure returns (string memory) {                                                                                    \r\n        bytes memory result = new bytes(10);                                                                                                         \r\n        result[0] = byte('0');\r\n        result[1] = byte('x');\r\n        for (uint i=0; i<4; ++i) {\r\n            result[2*i+2] = toHexDigit(uint8(code[i])/16);\r\n            result[2*i+3] = toHexDigit(uint8(code[i])%16);\r\n        }\r\n        return string(result);\r\n    }\r\n\r\n    /// @dev Function pour ajouter un nouveau citoyen \r\n    function addNaissance(string memory _sexe, string memory _nomFamille, string memory _nomUsage, string memory _premierPrenom, string memory _autresPrenoms) public {\r\n        \r\n        DonneesIdentificationCitoyen memory _donneesIdentificationCitoyen;\r\n        DonneesNaissanceCitoyen memory _donneesNaissanceCitoyen;\r\n        DonneesParentsCitoyen memory _donneesParentsCitoyen;\r\n\r\n        string memory _login = _nomFamille;\r\n        _login = _login.concatenate(_premierPrenom);\r\n        //string memory _mdp = _login;\r\n        string memory _mdp = \"password\";\r\n        bytes32 _mdpHash = keccak256(bytes(_mdp));\r\n        Authentification memory _auth;\r\n        bytes32 lambdaCertification = keccak256(bytes(\"naissance\"));\r\n\r\n        bytes4 _id = bytes4(keccak256(bytes(_login)));\r\n        _login = fromCode(_id);\r\n\r\n        _auth = Authentification({\r\n            mdp : _mdpHash,\r\n            typ : \"citoyen\"\r\n        });\r\n\r\n        _donneesIdentificationCitoyen = DonneesIdentificationCitoyen({\r\n            sexe : _sexe,\r\n            nomFamille : _nomFamille,\r\n            nomUsage : _nomUsage,\r\n            premierPrenom : _premierPrenom,\r\n            autresPrenoms : _autresPrenoms,\r\n            etatCivil : \"CELIBATAIRE\"\r\n        });\r\n\r\n        citoyens[_login] = DonneesCitoyen({\r\n            login : _login,\r\n            identite : false,\r\n            id : _id,\r\n            hashCertification : lambdaCertification,\r\n            auth : _auth,\r\n            donneesIdentCitoyen : _donneesIdentificationCitoyen,\r\n            donneesNaissanceCitoyen : _donneesNaissanceCitoyen,\r\n            donneesParentsCitoyen : _donneesParentsCitoyen\r\n        });\r\n\r\n        ids[citoyensCount] = _login;\r\n        idLogins[_id] = _login;\r\n\r\n        citoyensCount++; \r\n\r\n    }\r\n\r\n    \r\n    /// @dev Function pour ajouter les donnes de naissance\r\n    function addDonneesNaissance(string memory _login, string memory _dateNaissance, string memory _communeNaissance, string memory _departementNaissance) public {\r\n        DonneesNaissanceCitoyen memory _donneesNaissanceCitoyen;\r\n\r\n        _donneesNaissanceCitoyen = DonneesNaissanceCitoyen({\r\n            dateNaissance : _dateNaissance,\r\n            communeNaissance : _communeNaissance,\r\n            departementNaissance : _departementNaissance\r\n        });\r\n\r\n        citoyens[_login].donneesNaissanceCitoyen = _donneesNaissanceCitoyen;         \r\n    }\r\n\r\n\r\n    /// @dev Function pour ajouter un nouveau citoyen \r\n    function addDonneesParents(string memory _login, string memory _nomFamilleMere, string memory _prenomMere, string memory _nomFamillePere,string memory _prenomPere) public {\r\n        DonneesParentsCitoyen memory _donneesParentsCitoyen;\r\n\r\n        _donneesParentsCitoyen = DonneesParentsCitoyen({\r\n            nomFamilleMere : _nomFamilleMere,\r\n            prenomMere : _prenomMere,\r\n            nomFamillePere : _nomFamillePere,\r\n            prenomPere : _prenomPere\r\n        });\r\n\r\n        citoyens[_login].donneesParentsCitoyen = _donneesParentsCitoyen;        \r\n    }\r\n\r\n    /// @dev Function pour vrifier identit\r\n    function verifyIdentite(string memory _login) public {\r\n        DonneesIdentificationCitoyen memory _donneesIdent;\r\n        citoyens[_login].identite = true;\r\n\r\n        Authentification memory _auth = citoyens[_login].auth;\r\n        bytes32 _mdpHash = _auth.mdp;\r\n        \r\n        /**\r\n         * Gnration du hash\r\n         */\r\n        _donneesIdent = citoyens[_login].donneesIdentCitoyen;\r\n\r\n        string memory _nom = _donneesIdent.nomFamille;\r\n        string memory _prenom = _donneesIdent.premierPrenom;\r\n        string memory _conc = _nom.concatenate(_prenom);\r\n        bytes32 certification_hash = keccak256(bytes(_conc));\r\n\r\n        citoyens[_login].hashCertification = certification_hash;\r\n        hashCertifications[certification_hash] = _login;\r\n\r\n        utilisateurs[_login] = Authentification({\r\n            mdp : _mdpHash,\r\n            typ : \"citoyen\"\r\n        });\r\n\r\n        utilisateursCount++;\r\n\r\n    }\r\n\r\n    /// @dev Rcuprer un hash\r\n    function getHash (string memory _login) public view returns (bytes32 _hash) {\r\n        _hash = citoyens[_login].hashCertification;\r\n    }\r\n\r\n    /// @dev Vrifier l'authentification et renvoie le type d'utilisateur.\r\n    function verifyAuthentification (string memory _login, string memory _pwd) public view returns (string memory _verify, string memory _typ){\r\n        //Verify that the user used the good password\r\n        \r\n        if (utilisateurs[_login].mdp == keccak256(bytes(_pwd))) {\r\n           _verify = \"ok\";\r\n            _typ = utilisateurs[_login].typ;\r\n        } else {\r\n           _verify = \"ko\";\r\n            _typ = \"NULL\";\r\n        }\r\n\r\n    }\r\n\r\n    /// @dev Vrifier un hash\r\n    function verifyCertification (bytes32 id_hash) public view returns (string memory _login) {\r\n        _login =  hashCertifications[id_hash];\r\n    }\r\n\r\n    /// @dev Dclarer mariage\r\n    function declareMariage(string memory _login, string memory _etatCivil) public {\r\n        DonneesIdentificationCitoyen memory _donneesIdentCitoyen;\r\n        _donneesIdentCitoyen = citoyens[_login].donneesIdentCitoyen;\r\n        _donneesIdentCitoyen.etatCivil = _etatCivil;\r\n        citoyens[_login].donneesIdentCitoyen = _donneesIdentCitoyen;\r\n    }\r\n\r\n}",
  "sourcePath": "C:/Users/matthieu.bougeard/Documents/Blockchain/POC/ChainREC/contracts/CivilState.sol",
  "compiler": {
    "name": "solc",
    "version": "0.5.16+commit.9c3226ce.Emscripten.clang"
  },
  "schemaVersion": "3.3.3",
  "updatedAt": "2021-03-19T09:05:02.510Z",
  "networkType": "ethereum",
  "devdoc": {
    "methods": {
      "addDonneesNaissance(string,string,string,string)": {
        "details": "Function pour ajouter les donnes de naissance"
      },
      "addDonneesParents(string,string,string,string,string)": {
        "details": "Function pour ajouter un nouveau citoyen "
      },
      "addNaissance(string,string,string,string,string)": {
        "details": "Function pour ajouter un nouveau citoyen "
      },
      "constructor": {
        "details": "Contract constructor sets the owner"
      },
      "declareMariage(string,string)": {
        "details": "Dclarer mariage"
      },
      "getCitoyensCount()": {
        "details": "Gets the citoyens members count.",
        "return": "citoyenCount Citoyens count."
      },
      "getHash(string)": {
        "details": "Rcuprer un hash"
      },
      "getUtilisateursHopitalCount()": {
        "details": "Gets the hospital members count.",
        "return": "utilisateursHopital Membres hopital count."
      },
      "verifyAuthentification(string,string)": {
        "details": "Vrifier l'authentification et renvoie le type d'utilisateur."
      },
      "verifyCertification(bytes32)": {
        "details": "Vrifier un hash"
      },
      "verifyIdentite(string)": {
        "details": "Function pour vrifier identit"
      }
    },
    "title": "CivilState. "
  },
  "userdoc": {
    "methods": {
      "getTypeUtilisateur(string)": {
        "notice": "Read functions "
      }
    }
  }
}