{
  "contractName": "LibConcatenateStrings",
  "abi": [
    {
      "constant": true,
      "inputs": [
        {
          "internalType": "string",
          "name": "a",
          "type": "string"
        },
        {
          "internalType": "string",
          "name": "b",
          "type": "string"
        }
      ],
      "name": "concatenate",
      "outputs": [
        {
          "internalType": "string",
          "name": "",
          "type": "string"
        }
      ],
      "payable": false,
      "stateMutability": "pure",
      "type": "function"
    }
  ],
  "bytecode": "0x610302610026600b82828239805160001a60731461001957fe5b30600052607381538281f3fe73000000000000000000000000000000000000000030146080604052600436106100355760003560e01c8063266001d31461003a575b600080fd5b61018a6004803603604081101561005057600080fd5b810190808035906020019064010000000081111561006d57600080fd5b82018360208201111561007f57600080fd5b803590602001918460018302840111640100000000831117156100a157600080fd5b91908080601f016020809104026020016040519081016040528093929190818152602001838380828437600081840152601f19601f8201169050808301925050505050505091929192908035906020019064010000000081111561010457600080fd5b82018360208201111561011657600080fd5b8035906020019184600183028401116401000000008311171561013857600080fd5b91908080601f016020809104026020016040519081016040528093929190818152602001838380828437600081840152601f19601f820116905080830192505050505050509192919290505050610205565b6040518080602001828103825283818151815260200191508051906020019080838360005b838110156101ca5780820151818401526020810190506101af565b50505050905090810190601f1680156101f75780820380516001836020036101000a031916815260200191505b509250505060405180910390f35b606082826040516020018083805190602001908083835b6020831061023f578051825260208201915060208101905060208303925061021c565b6001836020036101000a03801982511681845116808217855250505050505090500182805190602001908083835b60208310610290578051825260208201915060208101905060208303925061026d565b6001836020036101000a0380198251168184511680821785525050505050509050019250505060405160208183030381529060405290509291505056fea265627a7a7231582016cc33fa04764cc5f2c2b725b325148645fb11536778edf7da0a994f37a4a3f464736f6c63430005100032",
  "source": "// SPDX-License-Identifier: MIT\r\npragma solidity >=0.4.21 <0.8.0;\r\n\r\nlibrary LibConcatenateStrings {\r\n    // Function to concatenate two strings\r\n    function concatenate(string memory a, string  memory b) public pure returns(string memory) {\r\n        return string(abi.encodePacked(a, b));\r\n    }\r\n}",
  "sourcePath": "C:\\Users\\anatereza.mascarenha\\Documents\\POC Etat Civil\\contracts\\LibConcatenateStrings.sol",
  "compiler": {
    "name": "solc",
    "version": "0.5.16+commit.9c3226ce.Emscripten.clang"
  },
  "schemaVersion": "3.0.22",
  "updatedAt": "2021-02-25T13:56:15.815Z",
  "networkType": "ethereum",
  "devdoc": {
    "methods": {}
  },
  "userdoc": {
    "methods": {}
  }
}