{
  "contractName": "LibTransformUintString",
  "abi": [
    {
      "constant": true,
      "inputs": [
        {
          "internalType": "uint256",
          "name": "v",
          "type": "uint256"
        }
      ],
      "name": "uintToString",
      "outputs": [
        {
          "internalType": "string",
          "name": "str",
          "type": "string"
        }
      ],
      "payable": false,
      "stateMutability": "pure",
      "type": "function"
    }
  ],
  "bytecode": "0x610284610026600b82828239805160001a60731461001957fe5b30600052607381538281f3fe73000000000000000000000000000000000000000030146080604052600436106100355760003560e01c8063e93956791461003a575b600080fd5b6100666004803603602081101561005057600080fd5b81019080803590602001909291905050506100e1565b6040518080602001828103825283818151815260200191508051906020019080838360005b838110156100a657808201518184015260208101905061008b565b50505050905090810190601f1680156100d35780820380516001836020036101000a031916815260200191505b509250505060405180910390f35b60606000606490506060816040519080825280601f01601f19166020018201604052801561011e5781602001600182028038833980820191505090505b50905060008090505b60008514610199576000600a868161013b57fe5b069050600a868161014857fe5b0495508060300160f81b83838060010194508151811061016457fe5b60200101907effffffffffffffffffffffffffffffffffffffffffffffffffffffffffffff1916908160001a90535050610127565b6060600182016040519080825280601f01601f1916602001820160405280156101d15781602001600182028038833980820191505090505b50905060008090505b8281116102425783818403815181106101ef57fe5b602001015160f81c60f81b82828151811061020657fe5b60200101907effffffffffffffffffffffffffffffffffffffffffffffffffffffffffffff1916908160001a90535080806001019150506101da565b508094505050505091905056fea265627a7a723158201ca0d65fbeb96d1f31a63adc1c0c71581343350c90dabdcee9f898e7b05053f864736f6c63430005100032",
  "source": "// SPDX-License-Identifier: MIT\r\npragma solidity >=0.4.21 <0.8.0;\r\n\r\nlibrary LibTransformUintString {\r\n    // Function to transform a uint to a string\r\n    function uintToString(uint256 v) public pure returns (string memory str) {\r\n        uint256 maxlength = 100;\r\n        bytes memory reversed = new bytes(maxlength);\r\n        uint256 i = 0;\r\n        while (v != 0) {\r\n            uint256 remainder = v % 10;\r\n            v = v / 10;\r\n            reversed[i++] = byte(uint8(48 + remainder));\r\n        }\r\n        bytes memory s = new bytes(i + 1);\r\n        for (uint256 j = 0; j <= i; j++) {\r\n            s[j] = reversed[i - j];\r\n        }\r\n        str = string(s);\r\n    }    \r\n}",
  "sourcePath": "C:\\Users\\anatereza.mascarenha\\Documents\\POC Etat Civil\\contracts\\LibTransformUintString.sol",
  "compiler": {
    "name": "solc",
    "version": "0.5.16+commit.9c3226ce.Emscripten.clang"
  },
  "schemaVersion": "3.0.22",
  "updatedAt": "2021-03-22T14:25:14.048Z",
  "networkType": "ethereum",
  "devdoc": {
    "methods": {}
  },
  "userdoc": {
    "methods": {}
  }
}